:100000000C944A000C94F3030C943C040C94850467
:100010000C94CE040C9417050C9472000C94D50625
:100020000C94F9060C941D070C9465060C941D069F
:100030000C9441060C9489060C9488050C94AC052C
:100040000C94D0050C9472000C9472000C94720005
:100050000C9472000C94AA030C9472000C9472001D
:100060000C94120A0C947200CE0317046004A904C5
:10007000F2043B05F405AD064107380A860AD503AC
:100080001E046704B004F9044205FB05B4064807E2
:100090003F0A8D0A11241FBECFEFD8E0DEBFCDBFCF
:1000A00011E0A0E0B1E0EAE8FBE102C005900D92AA
:1000B000AE32B107D9F721E0AEE2B1E001C01D9246
:1000C000A838B207E1F710E0CFE3D0E004C02197F1
:1000D000FE010E94760BC433D107C9F70E94F90ACA
:1000E0000C94B80D0C940000E82FF92F11821082A7
:1000F00013821282158214828681887F86831086FD
:100100001782128611868385887F8387148685856A
:10011000982F987F9587807C85878F7B85878F77C1
:10012000858786858E7F8687817082608687108A24
:100130001786128A118A0895CF93DF93E82FF92F3B
:10014000858586FB882780F9882369F1958597FB4B
:10015000882780F9992374F52385277095859770F2
:10016000290F3327331F283031054CF596819770BE
:1001700025852695269526952770492F420F5527C8
:10018000551F483051050CF52485213009F465C010
:10019000223009F498C02223F1F08FEF9FEF928B69
:1001A000818B80E004C020ED30E0328B218BDF9129
:1001B000CF9108952EEF3FEF328B218BF8CF8AEF4E
:1001C0009FEF928B818B80E0F2CF89EF9FEF928B34
:1001D000818B80E0ECCFA081B1817C914FE050E039
:1001E0009A0102C0220F331F9A95E2F72095272328
:1001F0002C93A281B3819C9126812770EA0102C0D1
:10020000CC0FDD1F2A95E2F79C2B9C93A781B0852C
:100210009C9123852770EA0102C0CC0FDD1F2A952F
:10022000E2F79C2B9C93A185B2859C912385277036
:1002300002C0440F551F2A95E2F7942B9C9391E03E
:10024000611101C090E0990F26852170922B96874D
:1002500091609687128A118AAACFA081B1817C9180
:100260004FE050E09A0102C0220F331F9A95E2F747
:10027000209527232C93A281B3819C9126812770FE
:1002800002C0440F551F2A95E2F7942B9C93A78137
:10029000B0859C912385277047E050E0EA0102C0B9
:1002A000CC0FDD1F2A95E2F79C2B9C93A185B2858C
:1002B0009C912385277002C0440F551F2A95E2F7B1
:1002C000942B9C93BCCFA081B1817C914FE150E0F5
:1002D0009A0102C0220F331F9A95E2F72095272337
:1002E0002C93A281B3819C912681277002C0440F78
:1002F000551F2A95E2F7942B9C93A781B0859C917A
:100300002385277047E050E0EA0102C0CC0FDD1FD3
:100310002A95E2F79C2B9C93A185B2859C9123851D
:10032000277002C0440F551F2A95E2F7942B9C9327
:1003300086CF0F93CF93DF93E82FF92F862F972F38
:10034000C22FD32F1182108213821282158214823F
:100350002681287F268310861782128611862385A0
:10036000287F238725852F7B25879C0123523109F0
:100370002930310508F047C09E0123523109293048
:10038000310508F046C09C0120523109ABEABAEAB7
:100390000E947C0B9C01369527958E7F820F931FC0
:1003A0009C012F5D3F4F318320832F5F3F4F33836D
:1003B000228380969583848347708681887F482B2B
:1003C00046839E01205231090E947C0B9C01369588
:1003D00027958E7F820F931F9C012F5D3F4F3087A3
:1003E000278382969287818707708385887F082B71
:1003F0000387858580648587128A118A81E0DF9171
:10040000CF910F9108958BEF9FEF928B818B80E0BE
:10041000F6CF8CEF9FEF928B818B80E0F0CFDF9255
:10042000EF92FF920F931F93CF93DF9300D0CDB73E
:10043000DEB70C851D858E85D8011D969C911D9774
:100440009F771D969C931D97813009F440C08230A0
:1004500009F446C0882339F08DEF9FEFF801928BA5
:10046000818B80E097C0977C98611D969C931D9727
:10047000987F93601D969C93D8011C968C931C9733
:100480001D968C911D97282F2695269526952770C9
:1004900030E02F5F3F4F877090E00196289FB001BA
:1004A000299F700D389F700D11241F968D919C917E
:1004B0000E94C20C282F392FF801308B2787232B5D
:1004C000E1F0CE010F969A838983D12C47C0F801C1
:1004D0009585977C98619587987F92609587CCCF1A
:1004E0001D969C911D97977C90621D969C931D97DD
:1004F000987F92601D969C93BFCF8BE090E0928B8B
:10050000818B80E047C0E981FA81CF0102969A830E
:100510008983F080D8011F96ED91FC9150971D962C
:100520008C91869586958695877090E00196829F3E
:10053000B001839F700D929F700D1124460F571FBD
:10054000E40FF51FF082E394F8018585877090E051
:100550004E2D50E084179507B4F6D394D8011D961C
:100560008C911D97869586958695877090E02D2DA8
:1005700030E08217930714F0E12CE6CF1D968C91A2
:100580001D9780681D968C931D9752961C921E9203
:10059000519781E00F900F90DF91CF911F910F91B4
:1005A000FF90EF90DF900895AF92BF92CF92DF92CD
:1005B000EF92FF920F931F93CF93DF93E82FF92FC2
:1005C000A62EB72E86858170882339F0A114B10438
:1005D00049F000E0FF24FA9462C024E030E0328B5E
:1005E000218B89C081E190E0928B818B80E083C078
:1005F000C481D581288130E09681977002C03595FD
:1006000027959A95E2F7042E02C0359527950A940E
:10061000E2F720FFEDCF1F5F2585269526952695CD
:100620002770211758F1412F50E06B01DD24012E76
:1006300002C0D594C7940A94E2F7C0FCD9CFE784EE
:10064000F08830E02F5F3F4F429F6001439FD00C06
:10065000529FD00C1124CA0EDB1EEC0CFD1CE701CE
:10066000F88020E096859695291710F6CFE9DFE00F
:100670002197F1F700C000002F5FF4CFC185D2852C
:10068000988123852770A20FB11D21E030E002C0C0
:10069000220F331FAA95E2F7922B98830F5F95855F
:1006A0009770901720F1C185D2856881A02FB0E0A6
:1006B000938597706D01C90ED11C21E030E002C016
:1006C000220F331FCA94E2F720952623288300C007
:1006D00000C00000C481D581688170E09681977068
:1006E00002C0759567959A95E2F710E095CFD50110
:1006F000FC92128A118ADF91CF911F910F91FF9086
:10070000EF90DF90CF90BF90AF900895E82FF92F32
:10071000158280858E7F808780818E7F80838D7F0C
:1007200080838B7F80838FE090E097838683138222
:100730001482128211820895262F372F019709F013
:1007400008952F3F3F4FE1F782E391E00E94860337
:10075000F7CF08951F920F920FB60F9211242F9387
:100760003F934F935F936F937F938F939F93AF9339
:10077000BF93EF93FF930E94A903FF91EF91BF9165
:10078000AF919F918F917F916F915F914F913F9129
:100790002F910F900FBE0F901F9018956FEF7FEF66
:1007A00081E090E00E949C0308956FEF7FEF80E06E
:1007B00090E00E949C030895E82FF92F1182808118
:1007C0008E7F8083138212820895262F372F019700
:1007D00009F008952F3F3F4FE1F78BE391E00E942E
:1007E000DC03F7CF08951F920F920FB60F921124DA
:1007F0002F933F934F935F936F937F938F939F9329
:10080000AF93BF93EF93FF930E94F203FF91EF9199
:10081000BF91AF919F918F917F916F915F914F9118
:100820003F912F910F900FBE0F901F9018956FEF73
:100830007FEF81E090E00E94E50308956FEF7FEF86
:1008400080E090E00E94E5030895E82FF92F1182DF
:1008500080818E7F8083138212820895262F372F06
:10086000019709F008952F3F3F4FE1F78FE391E0A3
:100870000E942504F7CF08951F920F920FB60F9292
:1008800011242F933F934F935F936F937F938F9395
:100890009F93AF93BF93EF93FF930E943B04FF910D
:1008A000EF91BF91AF919F918F917F916F915F91E8
:1008B0004F913F912F910F900FBE0F901F90189561
:1008C0006FEF7FEF81E090E00E942E0408956FEFBC
:1008D0007FEF80E090E00E942E040895E82FF92F2A
:1008E000118280818E7F8083138212820895262F49
:1008F000372F019709F008952F3F3F4FE1F783E429
:1009000091E00E946E04F7CF08951F920F920FB6E8
:100910000F9211242F933F934F935F936F937F9385
:100920008F939F93AF93BF93EF93FF930E948404A1
:10093000FF91EF91BF91AF919F918F917F916F91B7
:100940005F914F913F912F910F900FBE0F901F908D
:1009500018956FEF7FEF81E090E00E947704089593
:100960006FEF7FEF80E090E00E9477040895E82F1A
:10097000F92F118280818E7F8083138212820895E5
:10098000262F372F019709F008952F3F3F4FE1F7AA
:1009900087E491E00E94B704F7CF08951F920F9269
:1009A0000FB60F9211242F933F934F935F936F9342
:1009B0007F938F939F93AF93BF93EF93FF930E9487
:1009C000CD04FF91EF91BF91AF919F918F917F9156
:1009D0006F915F914F913F912F910F900FBE0F90AC
:1009E0001F9018956FEF7FEF81E090E00E94C004A8
:1009F00008956FEF7FEF80E090E00E94C0040895BB
:100A0000E82FF92F118280818E7F808313821282DA
:100A10000895262F372F019709F008952F3F3F4F54
:100A2000E1F78BE491E00E940005F7CF08951F9253
:100A30000F920FB60F9211242F933F934F935F9312
:100A40006F937F938F939F93AF93BF93EF93FF9396
:100A50000E941605FF91EF91BF91AF919F918F91E9
:100A60007F916F915F914F913F912F910F900FBEAA
:100A70000F901F9018956FEF7FEF81E090E00E943C
:100A8000090508956FEF7FEF80E090E00E9409056F
:100A90000895E82FF92F1182128280818E7F808342
:100AA000148213820895262F372F019709F0089595
:100AB0002F3F3F4FE1F78FE491E00E944905F7CFC8
:100AC000E82FF92F84B535B58C7F377F262F23701B
:100AD000282B862F8695869590E0880F991F880F82
:100AE000991F880F991F832B24BD85BD62831482B3
:100AF000138281E00895E82FF92F85B5887F862B32
:100B000085BD61831482138281E00895089508955C
:100B10001F920F920FB60F9211242F933F934F9372
:100B20005F936F937F938F939F93AF93BF93EF9355
:100B3000FF930E94730BFF91EF91BF91AF919F9133
:100B40008F917F916F915F914F913F912F910F9076
:100B50000FBE0F901F9018951F920F920FB60F9215
:100B600011242F933F934F935F936F937F938F93B2
:100B70009F93AF93BF93EF93FF930E948605FF91DE
:100B8000EF91BF91AF919F918F917F916F915F9105
:100B90004F913F912F910F900FBE0F901F9018957E
:100BA0001F920F920FB60F9211242F933F934F93E2
:100BB0005F936F937F938F939F93AF93BF93EF93C5
:100BC000FF930E948705FF91EF91BF91AF919F9195
:100BD0008F917F916F915F914F913F912F910F90E6
:100BE0000FBE0F901F9018956FEF7FEF81E090E0A0
:100BF0000E94530508956FEF7FEF80E090E00E9420
:100C000053050895E82FF92F1182128280818E7F7B
:100C10008083148213820895262F372F019709F0BD
:100C200008952F3F3F4FE1F784E591E00E940206CF
:100C3000F7CF08950895089508951F920F920FB663
:100C40000F9211242F933F934F935F936F937F9352
:100C50008F939F93AF93BF93EF93FF930E941906D7
:100C6000FF91EF91BF91AF919F918F917F916F9184
:100C70005F914F913F912F910F900FBE0F901F905A
:100C800018951F920F920FB60F9211242F933F9336
:100C90004F935F936F937F938F939F93AF93BF9384
:100CA000EF93FF930E941A06FF91EF91BF91AF91CE
:100CB0009F918F917F916F915F914F913F912F9174
:100CC0000F900FBE0F901F9018951F920F920FB6A6
:100CD0000F9211242F933F934F935F936F937F93C2
:100CE0008F939F93AF93BF93EF93FF930E941B0645
:100CF000FF91EF91BF91AF919F918F917F916F91F4
:100D00005F914F913F912F910F900FBE0F901F90C9
:100D100018951F920F920FB60F9211242F933F93A5
:100D20004F935F936F937F938F939F93AF93BF93F3
:100D3000EF93FF930E941C06FF91EF91BF91AF913B
:100D40009F918F917F916F915F914F913F912F91E3
:100D50000F900FBE0F901F9018956FEF7FEF81E0FF
:100D600090E00E940C0608956FEF7FEF80E090E026
:100D70000E940C060895E82FF92F118212828081BB
:100D80008E7F8083148213820895262F372F019738
:100D900009F008952F3F3F4FE1F789E591E00E9468
:100DA000BB06F7CF0895089508951F920F920FB6CE
:100DB0000F9211242F933F934F935F936F937F93E1
:100DC0008F939F93AF93BF93EF93FF930E94D206AD
:100DD000FF91EF91BF91AF919F918F917F916F9113
:100DE0005F914F913F912F910F900FBE0F901F90E9
:100DF00018951F920F920FB60F9211242F933F93C5
:100E00004F935F936F937F938F939F93AF93BF9312
:100E1000EF93FF930E94D306FF91EF91BF91AF91A3
:100E20009F918F917F916F915F914F913F912F9102
:100E30000F900FBE0F901F9018951F920F920FB634
:100E40000F9211242F933F934F935F936F937F9350
:100E50008F939F93AF93BF93EF93FF930E94D4061A
:100E6000FF91EF91BF91AF919F918F917F916F9182
:100E70005F914F913F912F910F900FBE0F901F9058
:100E800018956FEF7FEF81E090E00E94C50608950E
:100E90006FEF7FEF80E090E00E94C506089527E0A5
:100EA00030E0FC013383228380E0089527E030E0C6
:100EB000FC013383228380E0089527E030E0FC01C9
:100EC0003383228380E0089527E030E0FC01338300
:100ED000228380E0089527E030E0FC013383228301
:100EE00080E0089527E030E0FC013383228380E036
:100EF000089580E090E00895FC0182819381089537
:100F0000E82FF92F9B013370862F8295880F807E02
:100F100095859F71892B85876695669566958685EB
:100F2000807E682B6687832F83708295880F807EF2
:100F30006F79862B8687868140FB80F98683848142
:100F4000816084831086178281E0089585E090E0B7
:100F50000895FC01878190850895E82FF92F8AE094
:100F600091E0918380838EE191E091838083128A66
:100F7000118A83858078838713868485807C848723
:100F800014868585807E858784818D7F84838B7F91
:100F9000848384E190E0908B878710861782089580
:100FA0002EE131E0FC013183208308950F931F93DC
:100FB000CF93DF93C82FD92F062F172FC130D1051C
:100FC00051F0CD2B19F40F3F1F4F69F0DF91CF91F6
:100FD0001F910F9108950F3F100799F78FE591E04A
:100FE0000E94AD07EECF8FE591E00E94D007EECFD3
:100FF000CF92DF92EF92FF92CF93DF9300D000D099
:1010000000D0CDB7DEB78D839E83AD81BE811F96A4
:101010008D919C91892BD9F4CC24CA94DC2C760137
:1010200082E791E00E946D0A69837A838B839C83B7
:10103000C616D706E806F906F8F08091BC0080FDD8
:10104000EFCFED81FE811086178281E01EC082E71E
:1010500091E00E946D0A69837A838B839C83ED8182
:10106000FE8187859089C980DA80EB80FC80C80E7C
:10107000D91EE11CF11CD4CF83E490E0AD81BE8188
:1010800018969C938E93179780E00F900F900F9077
:101090000F900F900F90DF91CF91FF90EF90DF9026
:1010A000CF900895E82FF92F84818B7F848388EF78
:1010B00090E09287818785EA8093BC001086178232
:1010C00081E008950F931F93CF93DF93C82FD92FFB
:1010D000062F172F8C8182FB882780F9882311F037
:1010E00090E011C020E430E038872F8310C0E989F8
:1010F000FA89292F30E0D801A20FB31FE20FF31FA6
:1011000021812C939F5F941790F318861F82DF91A3
:10111000CF911F910F910895AF92BF92CF92DF921E
:10112000EF92FF920F931F93CF93DF93C82FD92F86
:10113000A62EF42EB22EC02ED12E1C811695117023
:101140001123B9F0EE2019F0C114D10411F1CE0130
:101150000E94F807182F882381F0F11046C0E98912
:10116000FA896A2D660F6083E989FA89B18290E075
:1011700025C084E090E098878F83812FDF91CF9105
:101180001F910F91FF90EF90DF90CF90BF90AF90A5
:10119000089581E190E098878F8310E0EECF292FAA
:1011A00030E0E989FA89A9014E5F5F4FE40FF51F2E
:1011B0002C0D3D1DD9018C9180839F5F9E1578F386
:1011C00092E09E0DE794EE24E7948B858F77E82AD2
:1011D000EB8696959F738C85807C892B8C87CE01BE
:1011E0000E94520818861F82C8CFE989FA898A2D81
:1011F000880F8083E989FA89B1828B858F778B8705
:101200008C85807C81608C87CE010E945208CE0143
:101210000E94F807811102C0182FAFCF6A2D70E02D
:10122000660F771FE989FA896160608381E08E0D1E
:10123000982F9795992797952B852F77922B9B879A
:1012400086958F739C85907C892B8C87CE010E941C
:101250005208CE010E94F807811102C0182F8DCFCD
:101260004E2DB601CE010E9462088111BBCF182F0E
:1012700084CFEF920F931F93CF93DF93C82FD92F73
:10128000962F8C81817081110AC021E430E038876B
:101290002F83DF91CF911F910F91EF9008958D854E
:1012A0008295869587706E85660F660F660F682B30
:1012B000E22E042F152F292F41E0CE010E948C0829
:1012C000882339F318861F82E4CFEF920F931F9380
:1012D000CF93DF93C82FD92F962F8C8181708111E6
:1012E0000AC021E430E038872F83DF91CF911F912E
:1012F0000F91EF9008958D858295869587706E8504
:10130000660F660F660F682BE22E042F152F292F0C
:1013100040E0CE010E948C08882339F318861F8292
:10132000E4CFE82FF92F8091B9008C7F883309F43E
:101330006EC0A8F0803509F458C08835C9F5A18978
:10134000B28980915E01A80FB11D8091BB008C9382
:1013500084818460848384E98093BC00089588310B
:1013600021F0F8F0883209F056C09385991F99272B
:10137000991F84858F73880F892B90915E01981730
:1013800068F50188F289E02D81E0890F80935E0184
:10139000E90FF11D80818093BB0085E88093BC003C
:1013A0000895883011F08031B1F510925E01DDCFE3
:1013B000803489F520915E0130E09385991F99274B
:1013C000991F84858F73880F892B8150990B28175B
:1013D0003907CCF485EC8093BC0008958481846047
:1013E000848384E98093BC0008959091BB00A18917
:1013F000B28980915E0121E0280F20935E01A80F41
:10140000B11D9C93D7CF85E88093BC00089585EAF1
:101410008093BC0008958091B900858384E0809317
:10142000BC0008951F920F920FB60F9211242F93B4
:101430003F934F935F936F937F938F939F93AF935C
:10144000BF93EF93FF938FE591E00E949109FF9185
:10145000EF91BF91AF919F918F917F916F915F912C
:101460004F913F912F910F900FBE0F901F901895A5
:101470006FEF7FEF81E090E00E94D60708956FEF55
:101480007FEF80E090E00E94D6070895E82FF92FC3
:1014900080E094E2A4EFB0E086839783A087B187D1
:1014A00080839183A283B383158214821686178664
:1014B000108A118A82898E7F828B148A138A0895FA
:1014C000262F372F019709F008952F3F3F4FE1F75F
:1014D00082E791E00E94460AF7CFCF93DF9300D0D6
:1014E00000D0CDB7DEB7E82FF92F82859385A4858C
:1014F000B58589839A83AB83BC83BC01CD010F90F2
:101500000F900F900F90DF91CF9108956FEF7FEFC5
:1015100081E090E00E94600A08956FEF7FEF80E025
:1015200090E00E94600A089521E02093870116BC94
:101530009BB19B7F9BB9EEE6F0E090819260908337
:10154000AFE9B1E01197F1F700C0000090819D7FF5
:1015500090832093870120E00EC0000090918701C6
:101560009111FBCFEEE6F0E090819D7F908391E0BA
:10157000909387012F5F283050F5482F50E0022EBE
:1015800002C0559547950A94E2F740FF09C09BB108
:1015900094609BB9EEE6F0E0908192609083DECF9C
:1015A0009BB19B7F9BB9EEE6F0E0908192609083C7
:1015B00001C00000909187019111FBCFEEE6F0E0B1
:1015C00090819D7F908391E090938701D3CF8BB1E1
:1015D00084608BB9EEE6F0E0808182608083809148
:1015E00087018111FCCFEEE6F0E080818D7F808362
:1015F0000895CDB7DEB769970FB6F894DEBF0FBE7A
:10160000CDBF81E080938701CE0101967C010E94CD
:10161000740000E024E230E040E067E270E0C701DF
:101620000E9499011F9284E48F931F9286E48F9306
:101630001F9280E38F931F9285E48F931F9283E420
:101640008F931F9283E38F931F9282E38F931F9256
:1016500081E38F931F9282E48F931F9286E38F938F
:101660001F9285E38F931F9284E38F931F9281E4EF
:101670008F931F9289E38F931F9288E38F931F921A
:1016800087E38F931F92FF92EF920E940F020FB693
:10169000F894DEBF0FBECDBF6AE0C7010E949C0078
:1016A00078948FEF8AB98BB184608BB9CE0145965F
:1016B0000E94490562E0CE0145960E94600562E005
:1016C000CE0145960E947B0580ED87BDBE016C5E14
:1016D0007F4FCE0101960E94D4028C898F3FB1F3D7
:1016E0000E94940AF3CF109287010895EE0FFF1F16
:1016F0000590F491E02D0994A29FB001B39FC00121
:10170000A39F700D811D1124911DB29F700D811D2D
:101710001124911D08950F931F93CF93DF939C0184
:10172000029710F422E030E0E0912E01F0912F01B9
:1017300080E090E0A0E0B0E0309791F4009709F4E9
:1017400045C0821B930B84309105B8F58A819B813B
:101750006115710569F1FB0193838283FE0111C05C
:10176000408151810281138142175307F0F04217E3
:10177000530799F4109761F012960C9312971396F1
:101780001C933296CF01DF91CF911F910F91089555
:1017900000932E0110932F01F4CF009719F04817F2
:1017A000590718F4CA01BD01EF01DF01F801C4CFE8
:1017B00090932F0180932E01D1CFFE01E80FF91FE6
:1017C00021933193029799838883DCCF80913001F4
:1017D00090913101892B41F4809102019091030194
:1017E000909331018093300180910001909101012B
:1017F000009741F48DB79EB74091040150910501C7
:10180000841B950B409130015091310148175907C5
:1018100008F0B8CF841B950B8217930708F4B2CF5A
:10182000B9016E5F7F4F8617970708F4ABCF640F3F
:10183000751F7093310160933001FA012193319348
:10184000A1CFCF93DF939C010097D9F0FC01329791
:1018500013821282A0912E01B0912F01109709F0EE
:1018600086C080819181280F391F8091300190912D
:1018700031018217930709F05FC0F0933101E093C3
:101880003001DF91CF910895CE17DF0708F059C0DE
:10189000AE010A80DB81C02D2097B1F7EA01FB83FE
:1018A000EA8329913991CE01820F931FE817F90736
:1018B00061F4808191810296820F931FEA019983DE
:1018C0008883828193819B838A83E0E0F0E0129693
:1018D0008D919C911397009709F04EC0ED0189916D
:1018E00099918C0F9D1F2091300130913101281763
:1018F000390739F6309709F042C010922F01109243
:101900002E01B0933101A0933001BBCFB383A283EA
:1019100080819181280F391FA217B30769F40296BD
:101920002D913C911197820F931F91838083129682
:101930008D919C9193838283F0932F01E0932E01EC
:10194000A0CFD383C28380819181280F391FC21712
:10195000D30709F0A3CF029628813981820F931F04
:10196000918380838A819B819383828397CFAE17F3
:10197000BF0760F6ED018CCFFD01DC01A8CF13821B
:101980001282BFCFA0E0B0E0E8ECFCE00C94830D45
:101990007C01CB01E114F10449F40E948B0BEC01B2
:1019A000CE01CDB7DEB7E0E10C949F0DF701E60F55
:1019B000F71FD7011297C0E0D0E0EA17FB0780F3CA
:1019C0000D911C91119706171707B0F005301105FE
:1019D00088F09801245031092617370758F0061B64
:1019E000170B02501109019311936D937C93CF0152
:1019F0000E94210CE701D4CF4B01801A910A5701B4
:101A0000A00EB11EC0912E01D0912F01412C512C5E
:101A100060E070E0209731F5209130013091310184
:101A20002A153B0509F056C04816590608F052C061
:101A300020910001309101012115310541F42DB7AC
:101A40003EB74091040150910501241B350BE2176C
:101A5000F30708F0A5CFF0933101E09330018D93A7
:101A60009C93C8CF288139816A807B80CA15DB05A9
:101A700051F5690142E0C40ED11CC814D90418F113
:101A8000A801481B590B420F531FEA0122962597C4
:101A900078F062827382518340838D939C936115A9
:101AA000710561F0DB011396FC93EE931297A2CFC0
:101AB000C8010296820F931FF301EFCFF0932F011D
:101AC000E0932E0197CF4216530608F42901BE0178
:101AD000E301A0CF0E948B0BEC01009709F460CFCB
:101AE000A801B7010E94780DC7010E94210C58CFB0
:101AF000FB01DC0102C001900D9241505040D8F72B
:101B000008952F923F924F925F926F927F928F92A1
:101B10009F92AF92BF92CF92DF92EF92FF920F937C
:101B20001F93CF93DF93CDB7DEB7CA1BDB0B0FB686
:101B3000F894DEBF0FBECDBF09942A883988488843
:101B40005F846E847D848C849B84AA84B984C884D9
:101B5000DF80EE80FD800C811B81AA81B981CE0FD0
:101B6000D11D0FB6F894DEBF0FBECDBFED010895B5
:101B700010E0CFE3D0E004C0FE010E94760B219676
:0A1B8000CA34D107C9F7F894FFCF6B
:101B8A00000088012000000000004F0756075D078B
:101B9A0064076B07720779077C07000000003909A0
:0E1BAA0056075D07650980077207A607A907A1
:00000001FF
