:100000000C944C000C9452040C949B040C94E40447
:100010000C942D050C9476050C9474000C943D07FB
:100020000C9461070C9485070C94CD060C948506FE
:100030000C94A9060C94F1060C94C1050C94E505EA
:100040000C9409060C9474000C94550C0C949D0CA3
:100050000C94790C0C9409040C9474000C947400A6
:100060000C947A0A0C9474002D047604BF040805DD
:1000700051059A052D061507A907A00AC10C0F0DF9
:1000800034047D04C6040F055805A10534061C0779
:10009000B007A70AC80C160D11241FBECFEFD8E079
:1000A000DEBFCDBF13E0A0E0B1E0EAE1F6E202C0BE
:1000B00005900D92A237B107D9F723E0A2E7B3E08C
:1000C00001C01D92AB3EB207E1F710E0C0E4D0E002
:1000D00004C02197FE010E94A80FC433D107C9F7BD
:1000E0000E943C0E0C94B6120C940000A82FB92F5D
:1000F000842F952FE22F732F21E03FEE11963C9332
:100100002E9316966C93169718969C938E9317972A
:100110004FEF12964C93129713964C931397149695
:100120004C93149715964C9315978034910538F499
:10013000AC016E2FCD0109960E94AE0F089519965D
:1001400080E4F72F01900D928A95E1F708950F93BF
:100150001F93E82FF92F178216821186108600E46C
:1001600010E013870287158614868FEF9FEFDC015E
:1001700086879787A08BB18B138B028B00E011EEE3
:10018000158B048B268B378B408F518F828F938FEB
:10019000A48FB58F62AB73AB64AB75AB1F910F913E
:1001A0000895AF92BF92CF92DF92EF92FF920F939A
:1001B0001F93CF93C82ED92E062F172FF8016181D8
:1001C00070E0F60184A995A90E94170CF8016081DE
:1001D00071817727F60184A995A90E94170CF8016F
:1001E000628170E0F60184A995A90E94170CF801BC
:1001F000638170E0F60184A995A90E94170CF801AB
:10020000648170E0F60184A995A90E94170CF80199
:10021000658170E0F60184A995A90E94170CF80188
:10022000668170E0F60184A995A90E94170CF80177
:10023000A780B084F2E0AF0EB11CEB2CFF24B70115
:10024000F60184A995A90E94170CBB24B501F601FB
:1002500084A995A90E94170CEA0CFB1CF801868161
:10026000E80EF11CC0E010C05801AC0EB11CF50145
:10027000618570E0F60184A995A90E94170CF5012B
:100280008185E80EF11CCF5F8C2F90E0F80127816B
:1002900030858217930740F360E070E0F60184A98F
:1002A00095A90E94170CB7017727F60184A995A993
:1002B0000E94170CCF911F910F91FF90EF90DF904C
:1002C000CF90BF90AF9008958F929F92AF92BF92C0
:1002D000CF92DF92EF92FF920F931F93CF93DF9312
:1002E0000F92CDB7DEB7882E992EC62ED72EA42E0C
:1002F000B52EE12CF12C00E010E035C0C80132C071
:100300000115110509F05DC089818F3EB9F7F6012D
:10031000108281831FC00730110509F44DC00830D9
:10032000110509F04EC0F601878190852981822B45
:10033000908787830FC0F601808191812981822B6C
:100340009183808381309F4E29F08EEF4EC089814A
:10035000F6018683C8010196065F1F4F0034110520
:1003600008F040C08C018FE99FE00197F1F700C0D1
:1003700000009FEFE91AF90AEA14FB04A8F5BE0190
:100380006F5F7F4FF40184A995A90E94230C06306A
:100390001105E9F208F0BFCF0130110561F208F450
:1003A000AFCFC8010297049760F4F8013297EC0DC3
:1003B000FD1D89818283CECF8981F60117828087D6
:1003C000C9CFF8013997EC0DFD1D89818187F601B0
:1003D00027813085C80108978217930709F0BACFA3
:1003E00080E003C08EEF01C08FEF0F90DF91CF91BF
:1003F0001F910F91FF90EF90DF90CF90BF90AF9043
:100400009F908F9008950F931F93CF93DF93CDB755
:10041000DEB7CA54D1090FB6F894DEBF0FBECDBF08
:10042000082F192F8FE089839E012F5F3F4F41E0F6
:1004300050E061E0CE0102960E947600BE016E5F40
:100440007F4FC8010E94D10048EE53E0BE016E5FAD
:100450007F4FC8010E94640181116EC0888587307A
:1004600009F077C09C858D85F801978386839E85EA
:100470008F859187808798898989938782879A89D0
:100480008B89958784878C8990E0A0E0B0E0B82FB5
:10049000AA27992788274D8950E060E070E0BA01CB
:1004A00055274427842B952BA62BB72B4E8950E03C
:1004B00060E070E0762F652F542F4427842B952B16
:1004C000A62BB72B2F89822B86879787A08BB18B82
:1004D000988D898D938B828B0097A1F480E290E0B8
:1004E000938B828B9A8D8B8D40E855E2849F90018F
:1004F000859F300D949F300D1124F801358B248B8E
:100500008B851BC08130910559F08230910571F0C7
:10051000039741F780E091E0F801938B828BE2CF63
:1005200080E490E0F801938B828BDCCF80E890E050
:10053000F801938B828BD6CF81E0C65BDF4F0FB67D
:10054000F894DEBF0FBECDBFDF91CF911F910F9109
:10055000089581E0F2CF0F931F93CF93DF93CDB730
:10056000DEB7CA54D1090FB6F894DEBF0FBECDBFB7
:10057000082F192F81E089839E012F5F3F4F41E0B3
:1005800050E061E0CE0102960E947600BE016E5FEF
:100590007F4F802F912F0E94D10048EE53E0BE0183
:1005A0006E5F7F4F802F912F0E946401811105C0E3
:1005B0008885873079F48B8501C081E0C65BDF4F89
:1005C0000FB6F894DEBF0FBECDBFDF91CF911F9164
:1005D0000F91089581E0F2CF0F931F93CF93DF9394
:1005E000CDB7DEB7CB54D1090FB6F894DEBF0FBE3E
:1005F000CDBF082F192F1A82198282E089836A835E
:100600009E012F5F3F4F42E050E061E0CE01039634
:100610000E947600BE016D5F7F4F802F912F0E9458
:10062000D10048EE53E0BE016D5F7F4F802F912FC8
:100630000E946401811105C08985873079F48C8519
:1006400001C081E0C55BDF4F0FB6F894DEBF0FBE7F
:10065000CDBFDF91CF911F910F91089581E0F2CF2F
:100660000F931F93CF93DF93CDB7DEB7CF54D1094C
:100670000FB6F894DEBF0FBECDBF082F192F9E0115
:100680002F5F3F4F86E0F90111928A95E9F784E0E8
:1006900089836A83F801828593859D838E8346E0F2
:1006A00050E061E0CE0107960E947600BE01695FCE
:1006B0007F4FC8010E94D10048EE53E0BE01695F40
:1006C0007F4FC8010E946401811124C08D8587304D
:1006D00071F58FEF9FEFF80191838083938382837D
:1006E000898990E091838083982F882791838083E4
:1006F0002A89822B918380838B8990E093838283E4
:10070000982F8827938382832C89822B93838283DB
:10071000888901C081E0C15BDF4F0FB6F894DEBF6E
:100720000FBECDBFDF91CF911F910F91089581E052
:10073000F2CF0F931F93CF93DF93CDB7DEB7CA5499
:10074000D1090FB6F894DEBF0FBECDBF082F192F09
:100750008DE189839E012F5F3F4F41E050E061E0D2
:10076000CE0102960E947600BE016E5F7F4FC801E7
:100770000E94D10048EE53E0BE016E5F7F4FC8017A
:100780000E946401811112C088858730E1F48C8554
:1007900090E0F80195838483982F8827958384833C
:1007A0002D85822B958384838B8501C081E0C65B78
:1007B000DF4F0FB6F894DEBF0FBECDBFDF91CF91F4
:1007C0001F910F91089581E0F2CFE82FF92F158244
:1007D00080858E7F808780818E7F80838D7F8083E0
:1007E0008B7F80838FE090E09783868313821482CF
:1007F000128211820895262F372F019709F008954C
:100800002F3F3F4FE1F788E793E00E94E503F7CFE2
:1008100008951F920F920FB60F9211242F933F93BA
:100820004F935F936F937F938F939F93AF93BF93F8
:10083000EF93FF930E940804FF91EF91BF91AF9156
:100840009F918F917F916F915F914F913F912F91E8
:100850000F900FBE0F901F9018956FEF7FEF81E004
:1008600090E00E94FB0308956FEF7FEF80E090E03F
:100870000E94FB030895E82FF92F118280818E7F5B
:100880008083138212820895262F372F019709F053
:1008900008952F3F3F4FE1F781E893E00E943B042A
:1008A000F7CF08951F920F920FB60F9211242F9336
:1008B0003F934F935F936F937F938F939F93AF93E8
:1008C000BF93EF93FF930E945104FF91EF91BF916B
:1008D000AF919F918F917F916F915F914F913F91D8
:1008E0002F910F900FBE0F901F9018956FEF7FEF15
:1008F00081E090E00E94440408956FEF7FEF80E074
:1009000090E00E9444040895E82FF92F118280811D
:100910008E7F8083138212820895262F372F0197AE
:1009200009F008952F3F3F4FE1F785E893E00E94DB
:100930008404F7CF08951F920F920FB60F921124DF
:100940002F933F934F935F936F937F938F939F93D7
:10095000AF93BF93EF93FF930E949A04FF91EF919F
:10096000BF91AF919F918F917F916F915F914F91C7
:100970003F912F910F900FBE0F901F9018956FEF22
:100980007FEF81E090E00E948D0408956FEF7FEF8C
:1009900080E090E00E948D040895E82FF92F1182E5
:1009A00080818E7F8083138212820895262F372FB5
:1009B000019709F008952F3F3F4FE1F789E893E051
:1009C0000E94CD04F7CF08951F920F920FB60F9299
:1009D00011242F933F934F935F936F937F938F9344
:1009E0009F93AF93BF93EF93FF930E94E304FF9114
:1009F000EF91BF91AF919F918F917F916F915F9197
:100A00004F913F912F910F900FBE0F901F9018950F
:100A10006FEF7FEF81E090E00E94D60408956FEFC2
:100A20007FEF80E090E00E94D6040895E82FF92F30
:100A3000118280818E7F8083138212820895262FF7
:100A4000372F019709F008952F3F3F4FE1F78DE8C9
:100A500093E00E941605F7CF08951F920F920FB6EC
:100A60000F9211242F933F934F935F936F937F9334
:100A70008F939F93AF93BF93EF93FF930E942C05A7
:100A8000FF91EF91BF91AF919F918F917F916F9166
:100A90005F914F913F912F910F900FBE0F901F903C
:100AA00018956FEF7FEF81E090E00E941F05089599
:100AB0006FEF7FEF80E090E00E941F050895E82F20
:100AC000F92F118280818E7F808313821282089594
:100AD000262F372F019709F008952F3F3F4FE1F759
:100AE00081E993E00E945F05F7CF08951F920F926E
:100AF0000FB60F9211242F933F934F935F936F93F1
:100B00007F938F939F93AF93BF93EF93FF930E9435
:100B10007505FF91EF91BF91AF919F918F917F915B
:100B20006F915F914F913F912F910F900FBE0F905A
:100B30001F9018956FEF7FEF81E090E00E946805AD
:100B400008956FEF7FEF80E090E00E9468050895C0
:100B5000E82FF92F1182128280818E7F8083148288
:100B600013820895262F372F019709F008952F3FFC
:100B70003F4FE1F785E993E00E94A805F7CF08957C
:100B800008951F920F920FB60F9211242F933F9347
:100B90004F935F936F937F938F939F93AF93BF9385
:100BA000EF93FF930E941D0DFF91EF91BF91AF91C5
:100BB0009F918F917F916F915F914F913F912F9175
:100BC0000F900FBE0F901F9018951F920F920FB6A7
:100BD0000F9211242F933F934F935F936F937F93C3
:100BE0008F939F93AF93BF93EF93FF930E94BF05A3
:100BF000FF91EF91BF91AF919F918F917F916F91F5
:100C00005F914F913F912F910F900FBE0F901F90CA
:100C100018951F920F920FB60F9211242F933F93A6
:100C20004F935F936F937F938F939F93AF93BF93F4
:100C3000EF93FF930E94C005FF91EF91BF91AF9199
:100C40009F918F917F916F915F914F913F912F91E4
:100C50000F900FBE0F901F9018956FEF7FEF81E000
:100C600090E00E94B20508956FEF7FEF80E090E082
:100C70000E94B2050895E82FF92F11821282808117
:100C80008E7F8083148213820895262F372F019739
:100C900009F008952F3F3F4FE1F78AE993E00E9462
:100CA0003B06F7CFCF93DF93E82FF92FC0E8D0E0D2
:100CB0008881A1E8B0E03C918C7F377E262F23709D
:100CC000282B862F8695869590E0880F991F880F90
:100CD000991F880F991F832B28838C93628314821A
:100CE000138281E0DF91CF910895E82FF92FA1E8D9
:100CF000B0E08C91887F862B8C9361831482138261
:100D000081E008950895089508951F920F920FB6F7
:100D10000F9211242F933F934F935F936F937F9381
:100D20008F939F93AF93BF93EF93FF930E94A90D6F
:100D3000FF91EF91BF91AF919F918F917F916F91B3
:100D40005F914F913F912F910F900FBE0F901F9089
:100D500018951F920F920FB60F9211242F933F9365
:100D60004F935F936F937F938F939F93AF93BF93B3
:100D7000EF93FF930E948206FF91EF91BF91AF9195
:100D80009F918F917F916F915F914F913F912F91A3
:100D90000F900FBE0F901F9018951F920F920FB6D5
:100DA0000F9211242F933F934F935F936F937F93F1
:100DB0008F939F93AF93BF93EF93FF930E9483060C
:100DC000FF91EF91BF91AF919F918F917F916F9123
:100DD0005F914F913F912F910F900FBE0F901F90F9
:100DE00018951F920F920FB60F9211242F933F93D5
:100DF0004F935F936F937F938F939F93AF93BF9323
:100E0000EF93FF930E948406FF91EF91BF91AF9102
:100E10009F918F917F916F915F914F913F912F9112
:100E20000F900FBE0F901F9018956FEF7FEF81E02E
:100E300090E00E94450608956FEF7FEF80E090E01C
:100E40000E9445060895E82FF92F118212828081B1
:100E50008E7F8083148213820895262F372F019767
:100E600009F008952F3F3F4FE1F78FE993E00E948B
:100E70002307F7CF0895089508951F920F920FB694
:100E80000F9211242F933F934F935F936F937F9310
:100E90008F939F93AF93BF93EF93FF930E943A0773
:100EA000FF91EF91BF91AF919F918F917F916F9142
:100EB0005F914F913F912F910F900FBE0F901F9018
:100EC00018951F920F920FB60F9211242F933F93F4
:100ED0004F935F936F937F938F939F93AF93BF9342
:100EE000EF93FF930E943B07FF91EF91BF91AF916A
:100EF0009F918F917F916F915F914F913F912F9132
:100F00000F900FBE0F901F9018951F920F920FB663
:100F10000F9211242F933F934F935F936F937F937F
:100F20008F939F93AF93BF93EF93FF930E943C07E0
:100F3000FF91EF91BF91AF919F918F917F916F91B1
:100F40005F914F913F912F910F900FBE0F901F9087
:100F500018956FEF7FEF81E090E00E942D070895D4
:100F60006FEF7FEF80E090E00E942D07089527E06B
:100F700030E0FC013383228380E0089527E030E0F5
:100F8000FC013383228380E0089527E030E0FC01F8
:100F90003383228380E0089527E030E0FC0133832F
:100FA000228380E0089527E030E0FC013383228330
:100FB00080E0089527E030E0FC013383228380E065
:100FC000089580E090E00895FC0182819381089566
:100FD000E82FF92F9B013370862F8295880F807E32
:100FE00095859F71892B858766956695669586851B
:100FF000807E682B6687832F83708295880F807E22
:101000006F79862B8687868140FB80F98683848171
:10101000816084831086178281E0089585E090E0E6
:101020000895FC01878190850895E82FF92F84E0C9
:1010300091E09183808388E191E091838083128A9B
:10104000118A83858078838713868485807C848752
:1010500014868585807E858784818D7F84838B7FC0
:10106000848384E190E0908B8787108617820895AF
:1010700028E131E0FC013183208308950F931F9311
:10108000CF93DF93C82FD92F062F172FC130D1054B
:1010900051F0CD2B19F40F3F1F4F69F0DF91CF9125
:1010A0001F910F9108950F3F100799F785EA93E07C
:1010B0000E941508EECF85EA93E00E943808EECF33
:1010C000CF92DF92EF92FF92CF93DF9300D000D0C8
:1010D00000D0CDB7DEB78D839E83AD81BE811F96D4
:1010E0008D919C91892BD9F4CC24CA94DC2C760167
:1010F00084ED93E00E94F60C69837A838B839C8352
:10110000C616D706E806F906F8F08091BC0080FD07
:10111000EFCFED81FE811086178281E01EC084ED45
:1011200093E00E94F60C69837A838B839C83ED8124
:10113000FE8187859089C980DA80EB80FC80C80EAB
:10114000D91EE11CF11CD4CF83E490E0AD81BE81B7
:1011500018969C938E93179780E00F900F900F90A6
:101160000F900F900F90DF91CF91FF90EF90DF9055
:10117000CF900895E82FF92F84818B7F848388EFA7
:1011800090E09287818785EA8093BC001086178261
:1011900081E008950F931F93CF93DF93C82FD92F2A
:1011A000062F172F8C8182FB882780F9882311F066
:1011B00090E011C020E430E038872F8310C0E98927
:1011C000FA89292F30E0D801A20FB31FE20FF31FD5
:1011D00021812C939F5F941790F318861F82DF91D3
:1011E000CF911F910F910895AF92BF92CF92DF924E
:1011F000EF92FF920F931F93CF93DF93C82FD92FB6
:10120000A62EF42EB22EC02ED12E1C811695117052
:101210001123B9F0EE2019F0C114D10411F1CE015F
:101220000E946008182F882381F0F11046C0E989D8
:10123000FA896A2D660F6083E989FA89B18290E0A4
:1012400025C084E090E098878F83812FDF91CF9134
:101250001F910F91FF90EF90DF90CF90BF90AF90D4
:10126000089581E190E098878F8310E0EECF292FD9
:1012700030E0E989FA89A9014E5F5F4FE40FF51F5D
:101280002C0D3D1DD9018C9180839F5F9E1578F3B5
:1012900092E09E0DE794EE24E7948B858F77E82A01
:1012A000EB8696959F738C85807C892B8C87CE01ED
:1012B0000E94BA0818861F82C8CFE989FA898A2D48
:1012C000880F8083E989FA89B1828B858F778B8734
:1012D0008C85807C81608C87CE010E94BA08CE010B
:1012E0000E946008811102C0182FAFCF6A2D70E0F4
:1012F000660F771FE989FA896160608381E08E0D4E
:10130000982F9795992797952B852F77922B9B87C9
:1013100086958F739C85907C892B8C87CE010E944B
:10132000BA08CE010E946008811102C0182F8DCF2B
:101330004E2DB601CE010E94CA088111BBCF182FD5
:1013400084CFEF920F931F93CF93DF93C82FD92FA2
:10135000962F8C81817081110AC021E430E038879A
:101360002F83DF91CF911F910F91EF9008958D857D
:101370008295869587706E85660F660F660F682B5F
:10138000E22E042F152F292F41E0CE010E94F408F0
:10139000882339F318861F82E4CFEF920F931F93AF
:1013A000CF93DF93C82FD92F962F8C818170811115
:1013B0000AC021E430E038872F83DF91CF911F915D
:1013C0000F91EF9008958D858295869587706E8533
:1013D000660F660F660F682BE22E042F152F292F3C
:1013E00040E0CE010E94F408882339F318861F825A
:1013F000E4CFE82FF92F8091B9008C7F883309F46E
:101400006EC0A8F0803509F458C08835C9F5A189A7
:10141000B2898091A403A80FB11D8091BB008C9369
:1014200084818460848384E98093BC00089588313A
:1014300021F0F8F0883209F056C09385991F99275A
:10144000991F84858F73880F892B9091A403981717
:1014500068F50188F289E02D81E0890F8093A4036B
:10146000E90FF11D80818093BB0085E88093BC006B
:101470000895883011F08031B1F51092A403DDCFCA
:10148000803489F52091A40330E09385991F992732
:10149000991F84858F73880F892B8150990B28178A
:1014A0003907CCF485EC8093BC0008958481846076
:1014B000848384E98093BC0008959091BB00A18946
:1014C000B2898091A40321E0280F2093A403A80FE0
:1014D000B11D9C93D7CF85E88093BC00089585EA21
:1014E0008093BC0008958091B900858384E0809347
:1014F000BC0008951F920F920FB60F9211242F93E4
:101500003F934F935F936F937F938F939F93AF938B
:10151000BF93EF93FF9385EA93E00E94F909FF914F
:10152000EF91BF91AF919F918F917F916F915F915B
:101530004F913F912F910F900FBE0F901F901895D4
:101540006FEF7FEF81E090E00E943E0808956FEF1B
:101550007FEF80E090E00E943E080895E82FF92F89
:101560008081877F8083683030F086EB90E09383C2
:10157000828380E0089565831382128281E008955A
:10158000E82FF92F8081877F8083643040F06730B7
:1015900031F082EB90E09383828380E0089564834E
:1015A0001382128281E00895E82FF92F842F952F5E
:1015B000A62FB72F2081277F2083803820E792072E
:1015C000A105B10519F108F041C0803C22E1920764
:1015D000A105B105D9F010F5883027E09207A105E3
:1015E000B105A1F038F0803629E09207A105B105D8
:1015F00039F50CC0883522E09207A105B10531F01C
:10160000803B24E09207A105B105D1F4868397833E
:10161000A087B1871382128281E00895803428E385
:101620009207A105B10591F381152BE49207A1055D
:10163000B10561F3803825E29207A105B10531F3C8
:1016400080EB90E09383828380E00895811522EC03
:10165000920721E0A207B105C9F2B0F0811524E894
:10166000920723E0A207B10589F2811528EE9207BF
:1016700023E0A207B10551F2811524EF920721E082
:10168000A207B105E9F6C2CF803C2AED9207A10579
:10169000B10509F4BBCF811521EE9207A105B10573
:1016A00009F4B4CF811526E99207A105B10541F6E9
:1016B000ADCFA82FB92F8C91877F8C93EFEAE60FDF
:1016C000EA3428F4F0E0ED53FD4E0C94A80F83EBC0
:1016D00090E013969C938E93129780E00895862F46
:1016E0008370813051F08230E9F08FEF9FEF1396D5
:1016F0009C938E93129780E008951B961C921B97E3
:10170000862F869586958370813011F1823029F17C
:10171000882369F08FEF9FEF13969C938E93129717
:1017200080E0089581E01B968C931B97E9CF1A9671
:101730001C921A9762956F70673031F198F068309B
:1017400041F1693059F587E014968C93149716C0CF
:1017500081E01A968C931A97EDCF82E01A968C93BB
:101760001A97E8CF653039F06630C1F481E01496FD
:101770008C93149703C014961C92149713961C9282
:101780001E92129781E0089582E014968C9314972C
:10179000F5CF83E014968C931497F0CF8FEF9FEFE3
:1017A00013969C938E93129780E008950F931F9346
:1017B000CF93DF93C82FD92F122FCE010E94D40AC6
:1017C000811105C0DF91CF911F910F910895612F75
:1017D000CE010E94AE0A8823A9F3602FCE010E9499
:1017E000590B882379F3E8EBF3E088E49CE09187D8
:1017F00080871386128682E08383158614861B8277
:101800001A82E0CF0F93262F372F019711F00F91F7
:1018100008952F3F3F4FD9F701E820E040E855E217
:1018200060E070E086EC93E00E94D60BF0CFE82FEA
:10183000F92F8091C00085FFFCCF6093C600138212
:10184000128281E00895E82FF92FA62FB72F8091FB
:10185000C0008823E4F79091C000808193FB80F959
:10186000808394FB81F9808392FB82F980831C92B0
:101870008091C6008C931382128281E0089580913A
:10188000C00085FFFCCF6093C60080E090E0089523
:10189000462F572F682F8091D2039091D3030E9437
:1018A0003F0C08950895089508951F920F920FB662
:1018B0000F9211242F933F934F935F936F937F93D6
:1018C0008F939F93AF93BF93EF93FF930E94520C1C
:1018D000FF91EF91BF91AF919F918F917F916F9108
:1018E0005F914F913F912F910F900FBE0F901F90DE
:1018F00018951F920F920FB60F9211242F933F93BA
:101900004F935F936F937F938F939F93AF93BF9307
:10191000EF93FF930E94540CFF91EF91BF91AF9111
:101920009F918F917F916F915F914F913F912F91F7
:101930000F900FBE0F901F9018951F920F920FB629
:101940000F9211242F933F934F935F936F937F9345
:101950008F939F93AF93BF93EF93FF930E94530C8A
:10196000FF91EF91BF91AF919F918F917F916F9177
:101970005F914F913F912F910F900FBE0F901F904D
:1019800018956FEF7FEF81E090E00E94020C0895C0
:101990006FEF7FEF80E090E00E94020C0895E82F47
:1019A000F92F80E094E2A4EFB0E086839783A087CC
:1019B000B18780839183A283B383158214821686B4
:1019C0001786108A118A82898E7F828B148A138AE5
:1019D0000895262F372F019709F008952F3F3F4F85
:1019E000E1F784ED93E00E94CF0CF7CFCF93DF9324
:1019F00000D000D0CDB7DEB7E82FF92F82859385D0
:101A0000A485B58589839A83AB83BC83BC01CD0152
:101A10000F900F900F900F90DF91CF9108956FEF7F
:101A20007FEF81E090E00E94E90C08956FEF7FEF77
:101A300080E090E00E94E90C08951092E903089577
:101A400091E09093EA0396B3926096BB9FB7F894A7
:101A500010928500109284009FBF9BB1977F9BB925
:101A6000EFE6F0E09081926090839091EA0391110B
:101A7000FCCFEFE6F0E090819D7F908391E0909322
:101A8000EA0320E00EC000009091EA039111FBCF21
:101A9000EFE6F0E090819D7F908391E09093EA03E0
:101AA0002F5F283050F5482F50E0022E02C0559588
:101AB00047950A94E2F740FF09C09BB198609BB933
:101AC000EFE6F0E0908192609083DECF9BB1977F4C
:101AD0009BB9EFE6F0E090819260908301C0000036
:101AE0009091EA039111FBCFEFE6F0E090819D7FAA
:101AF000908391E09093EA03D3CF8BB188608BB948
:101B0000EFE6F0E08081826080838091EA038111BA
:101B1000FCCFEFE6F0E080818D7F808308950F9306
:101B20001F93CF93DF93082F192FC0E0D0E003C09D
:101B30000E94200D2196F801EC0FFD1F808181117C
:101B4000F7CF8AE00E94200DDF91CF911F910F9176
:101B500008951092EA0308950F931F93CF93082FCF
:101B6000192F88E291E00E948F0DC8010E94AB02FC
:101B7000C82F82E491E00E948F0DC23079F148F4C1
:101B8000CC2371F0C13099F584E791E00E948F0D6C
:101B900029C0C33061F588E891E00E948F0D22C012
:101BA00085E591E00E948F0D61E0C8010E94EC0282
:101BB000C82F8630C9F148F08730D9F18531F1F569
:101BC00087ED91E00E948F0D0DC08823A9F0813030
:101BD000A9F584E791E00E948F0D04C081E691E0B1
:101BE0000E948F0D8C2FCF911F910F91089586E940
:101BF00091E00E948F0DF6CF84EA91E00E948F0D54
:101C000061E0C8010E943003C82F84EB91E00E947C
:101C10008F0DCC23C1F0C13029F1C93041F186E9E3
:101C200091E00E948F0DDECF87EC91E00E948F0D36
:101C3000D9CF87ED91E00E948F0DD4CF86E991E056
:101C40000E948F0DCFCF8BEF91E00E948F0D80E12E
:101C500092E00E948F0D8BE192E00E948F0DF801BF
:101C6000C081C0CF84E791E00E948F0DBBCF80E39D
:101C700092E00E948F0DB6CFCDB7DEB7C456D10922
:101C80000FB6F894DEBF0FBECDBF01E820E040E004
:101C900051EE60E070E0CE0101960E94D60B63E049
:101CA000CE0101960E94C00A20E030E0A901BE01E9
:101CB0006F5F7F4FCE010D960E94A700E2E7F3E031
:101CC00088EB93E0958384839383828391838083DD
:101CD000E1ECF0E080818061808380818860808396
:101CE0008BE0EDE5F3E0DE01AD5BBF4F01900D92BF
:101CF0008A95E1F778948FEF8AB98BB188608BB9B8
:101D0000CE01825B9F4F0E943B0664E0CE01825B66
:101D10009F4F0E94520662E0CE01825B9F4F0E945D
:101D200075068FB7F89420ED30E03093890020934A
:101D300088008FBF85E492E00E948F0D2FEF33ED76
:101D400080E3215030408040E1F700C000008AE08D
:101D5000E8E6F3E0DE01AD5ABF4F01900D928A959F
:101D6000E1F78E01035A1F4F88E0F80111928A951E
:101D7000E9F780E592E00E948F0D86E592E00E94EF
:101D80008F0DFFEF29EF30E0F15020403040E1F7B8
:101D900000C00000CE010D960E9403028C898F9333
:101DA0008B898F930F2EF0E7EF2EF2E0FF2EF02DB0
:101DB000FF92EF921F930F930E94B70F85E792E077
:101DC0000E948F0DC8010E948F0D8FEF99EFE0E008
:101DD00081509040E040E1F700C000008B890E94F4
:101DE000200D8E898F938D898F93FF92EF921F9391
:101DF0000F930E94B70F80E892E00E948F0DC801F8
:101E00000E948F0D888D8F938F898F93FF92EF9211
:101E10001F930F930E94B70F8BE892E00E948F0DE3
:101E2000C8010E948F0D8A8D8F93898D8F93FF92A9
:101E3000EF921F930F930E94B70F86E992E00E94E2
:101E40008F0DC8010E948F0D8E8D8F938D8D8F9376
:101E50008C8D8F938B8D8F93FF92EF921F930F93A7
:101E60000E94B70F0FB6F894DEBF0FBECDBF87EA52
:101E700092E00E948F0DC8010E948F0D88A18F9360
:101E80008F8D8F93FF92EF921F930F930E94B70F46
:101E900088EB92E00E948F0DC8010E948F0D8AA1ED
:101EA0008F9389A18F93FF92EF921F930F930E94BC
:101EB000B70F85EC92E00E948F0DC8010E948F0D34
:101EC000CE010D960E94990389899A890FB6F894DC
:101ED000DEBF0FBECDBF892BB1F481ED92E00E9431
:101EE0008F0D87E593E00E948F0DCE010D960E9425
:101EF000AC0DFFEF23EC39E0F15020403040E1F72A
:101F000000C00000EECF8FE193E00E948F0D8BE3C5
:101F100093E00E948F0D8A898F9389898F9380E740
:101F200092E09F938F938E01035A1F4F1F930F933D
:101F30000E94B70FC8010E948F0D8CE493E00E94AD
:101F40008F0D0F900F900F900F900F900F90C9CFA3
:101F5000EE0FFF1F0590F491E02D0994FB01DC01C9
:101F600002C001900D9241505040D8F70895AEE064
:101F7000B0E0EDEBFFE00C948D120D891E8986E038
:101F80008C831A8309838FEF9FE79E838D83AE0135
:101F9000475E5F4F6F89788DCE0101960E94DA0F00
:101FA0002F813885020F131FF80110822E96E4E06E
:101FB0000C94A912AFE0B0E0E0EEFFE00C948212C6
:101FC0006C017B018A01DC0117961C921E92169708
:101FD00013968C9181FFECC12AE0522EF601938179
:101FE000F70193FD859193FF81917F01882309F487
:101FF00073C0853239F493FD859193FF81917F0100
:10200000853229F4B60190E00E94F111E7CF912CBE
:10201000612C712CFFE1F71508F446C08B32C9F131
:10202000F8F48032C1F1833209F43BC0833609F4FD
:102030008AC0833709F493C0833509F0B6C0F8012C
:10204000A190B1908F01692D70E076FC02C06FEF16
:102050007FEFC5010E94DB114C01689477F85FC0E7
:102060008D32E1F0803351F020ED280F2A3048F115
:102070008E3209F039C0689476F802C0689470F81E
:10208000F70193FD859193FF81917F018111C2CF6B
:1020900033C0689471F8689472F8F2CF689473F85A
:1020A000EFCF689474F8ECCF77FC26C020ED280FB2
:1020B0002A3070F476FE05C0959C200D1124922ED6
:1020C000DFCF659C200D1124622E689475F8D8CF5F
:1020D0008E3251F476FECFCFD60116968D919C911B
:1020E0002F96EFE00C949E128C3619F4689477F8D2
:1020F000C7CF883609F4C4CF982F9F7D955493306D
:1021000008F094CF0C5F1F4F8FE38983882483945A
:10211000912CAE014F5F5F4F5A01E89477F873FC42
:1021200005C0862D90E08816990640F1811491042F
:1021300061F5662009F452CFB60180E290E00E947A
:10214000F1116A94F6CFD8018C9189830E5F1F4FED
:1021500088248394912CFE0131965F01DECFD80153
:10216000AD90BD908D01692D70E076FC02C06FEFDF
:102170007FEFC5010E94E6114C01CFCFB60180E28E
:1021800090E00E94F1116A94CCCFF50177FC859123
:1021900077FE81915F01B60190E00E94F11161101C
:1021A0006A94F1E08F1A9108C1CF843619F089360C
:1021B00009F081C0F80177FE77C06191719181913A
:1021C00091918F01272D2F76822E97FF09C0909530
:1021D0008095709561957F4F8F4F9F4F689487F8DA
:1021E0002AE030E0AE014F5F5F4F5A010E9421129A
:1021F0008A19A82EBA2C782C86FE0CC0E89470F8A8
:10220000A91440F484FE05C082FC03C0782D7E7EB4
:10221000772EB92C74FEA5C0FE01EA0DF11D808158
:10222000803309F097C0872D897E782E73FC0EC00D
:1022300070FEA6C09A2CB61418F4960C9B18B62CF7
:10224000862D8B196B1408F480E0B80EB61408F0D4
:1022500099C06B1874FE98C0B60180E390E00E94AC
:10226000F11172FE09C088E590E071FC02C088E7B8
:1022700090E0B6010E94F111A91408F492C0AA944A
:10228000B12C9FEFA91AB90ADE0111964D01AA0ED1
:10229000BB1EF50182915F01B60190E00E94F11131
:1022A0008A149B04B1F745CF61917191072E000C00
:1022B000880B990B86CF872CE89484F82AE030E0CD
:1022C000853769F0572D597F852E803771F118F5C4
:1022D000883571F18F3609F0FFCE28E030E0F80143
:1022E00087FE2EC081919191A191B1918C879D879C
:1022F000AE87BF878F01BE016F5F7F4F5B01AB0170
:102300006C857D858E859F850E9421128A19A82E55
:10231000E89487F86FCF883709F0DECE84FE02C0DC
:10232000689482F820E130E0DACF689484F8F6CF40
:1023300074FE03C0652F6660862E20E132E0CFCFA9
:1023400081919191AC0160E070E04C875D876E8770
:102350007F87D0CF72FC02C0B39468CFB394B3949C
:1023600065CF872D8678882309F460CFF5CFB60135
:1023700080E290E00E94F11183948614C0F360CF54
:102380008B2CFBCF612C66CF872D8678882309F4B0
:1023900073CF8BE271FE80E277FC8DE2B60190E0B4
:1023A00069CFB60180E390E00E94F1119A9464CF66
:1023B0008FEF9FEF95CEFC010590615070400110AA
:1023C000D8F7809590958E0F9F1F0895FC0161505E
:1023D000704001900110D8F7809590958E0F9F1F47
:1023E00008950F931F93CF93DF93182F092FEB01BD
:1023F0008B8181FD09C01FEF0FEF812F902FDF919F
:10240000CF911F910F91089582FF14C02E813F81BB
:102410008C819D81281739073CF4E881F981CF012F
:1024200001969983888310838E819F8101969F8373
:102430008E83E3CFE885F985812F0995892BA1F358
:10244000DACFFA01AA27283051F1203181F1E8943E
:102450006F936E7F6E5F7F4F8F4F9F4FAF4FB1E097
:102460003ED0B4E03CD0670F781F891F9A1FA11D92
:10247000680F791F8A1F911DA11D6A0F711D811D93
:10248000911DA11D20D009F468943F912AE0269F58
:1024900011243019305D3193DEF6CF010895462FB7
:1024A0004770405D4193B3E00FD0C9F7F6CF462F98
:1024B0004F70405D4A3318F0495D31FD4052419301
:1024C00002D0A9F7EACFB4E0A695979587957795BE
:1024D0006795BA95C9F700976105710508959B0145
:1024E000AC010A2E06945795479537952795BA95CE
:1024F000C9F7620F731F841F951FA01D08952F92A7
:102500003F924F925F926F927F928F929F92AF9283
:10251000BF92CF92DF92EF92FF920F931F93CF93D0
:10252000DF93CDB7DEB7CA1BDB0B0FB6F894DEBF67
:102530000FBECDBF09942A88398848885F846E848D
:102540007D848C849B84AA84B984C884DF80EE80D7
:10255000FD800C811B81AA81B981CE0FD11D0FB6E0
:10256000F894DEBF0FBECDBFED01089510E0C0E4CA
:10257000D0E004C0FE010E94A80F2196CC34D10700
:10258000C9F7F894FFCF6F0B6F0B670B670B6F0BDF
:102590006F0B670B670B6F0B6F0B670B670B670B93
:1025A000670B670B670B6F0B6F0B670B670B6F0B83
:1025B0006F0B670B670B6F0B6F0B670B670B670B73
:1025C000670B670B670B6F0B6F0B670B670B6F0B63
:1025D0006F0B670B670B6F0B6F0B670B670B670B53
:1025E000670B670B670B6F0B6F0B670B670B6F0B43
:1025F0006F0B670B670B6F0B6F0B670B670B670B33
:10260000670B670B670B6F0B6F0B670B670B6F0B22
:0A2610006F0B670B670B6F0B6F0B6E
:10261A0000000000B707BE07C507CC07D307DA07D3
:10262A00E107E40700000000A109BE07C507CD09BC
:10263A00E807DA070E08110820656E74726F7520B4
:10264A006E61206765742066696E676572206964C9
:10265A0020006465706F697320646120676574691E
:10266A006D61676500496D6167652074616B656EB0
:10267A00004E6F2066696E676572206465746563D3
:10268A0074656400436F6D6D756E69636174696F1B
:10269A006E206572726F7200496D6167696E67209C
:1026AA006572726F7200556E6B6E6F776E2065720F
:1026BA00726F7200496D61676520636F6E7665722D
:1026CA007465640061667465722066696E67657216
:1026DA0073656172636800496D61676520746F6F25
:1026EA00206D6573737900436F756C64206E6F7427
:1026FA002066696E642066696E6765727072696EBB
:10270A007420666561747572657300466F756E64D0
:10271A002061207072696E74206D61746368210093
:10272A00466F756E642049442023002077697468D7
:10273A0020636F6E666964656E6365206F6620004C
:10274A00446964206E6F742066696E642061206D2E
:10275A006174636800426F6F74656420555021008C
:10276A0068656C6C6F0052656164696E6720736599
:10277A006E736F7220706172616D65746572730039
:10278A0025303258005374617475733A20307800DA
:10279A005379732049443A20307800436170616369
:1027AA006974793A20005365637572697479206C8B
:1027BA006576656C3A2000446576696365206164D4
:1027CA0064726573733A20005061636B6574206CA0
:1027DA00656E3A20004261756420726174653A2020
:1027EA000053656E736F7220646F65736E27742071
:1027FA00636F6E7461696E20616E792066696E67B7
:10280A0065727072696E7420646174612E20506CF6
:10281A00656173652072756E207468652027656E20
:10282A00726F6C6C27206578616D706C652E00572D
:10283A00616974696E6720666F722076616C69647B
:10284A002066696E6765722E2E2E0053656E736F51
:10285A007220636F6E7461696E7320002074656DF7
:10286A00706C617465730074657374650071776563
:10287A0072747975696F7000796579206D616E205F
:02288A000A0042
:00000001FF
