:100000000C944C000C9448030C9491030C94DA0368
:100010000C9423040C946C040C9474000C942A0625
:100020000C944E060C9472060C94BA050C9472054E
:100030000C9496050C94DE050C94DD040C940105DB
:100040000C9425050C9474000C94310C0C94790CD0
:100050000C94550C0C94FF020C9474000C947400D6
:100060000C9467090C94740023036C03B503FE031E
:10007000470490044905020696068D099D0C030D60
:100080002A037303BC0305044E04970450050906B4
:100090009D069409A40C0A0D11241FBECFEFD8E0D1
:1000A000DEBFCDBF12E0A0E0B1E0ECEEFEE102C0A9
:1000B00005900D92A238B107D9F722E0A2E8B2E08C
:1000C00001C01D92AA3FB207E1F710E0C0E4D0E002
:1000D00004C02197FE010E94D10EC433D107C9F795
:1000E0000E94270E0C94170F0C940000A82FB92F14
:1000F000842F952FE22F732F21E03FEE11963C9332
:100100002E9316966C93169718969C938E9317972A
:100110004FEF12964C93129713964C931397149695
:100120004C93149715964C9315978034910538F499
:10013000AC016E2FCD0109960E940E0F08951996FD
:1001400080E4F72F01900D928A95E1F708950F93BF
:100150001F93E82FF92F178216821186108600E46C
:1001600010E013870287158614868FEF9FEFDC015E
:1001700086879787A08BB18B138B028B00E011EEE3
:10018000158B048B268B378B408F518F828F938FEB
:10019000A48FB58F62AB73AB64AB75AB1F910F913E
:1001A0000895AF92BF92CF92DF92EF92FF920F939A
:1001B0001F93CF93C82ED92E062F172FF8016181D8
:1001C00070E0F60184A995A90E94F30BF801608103
:1001D00071817727F60184A995A90E94F30BF80194
:1001E000628170E0F60184A995A90E94F30BF801E1
:1001F000638170E0F60184A995A90E94F30BF801D0
:10020000648170E0F60184A995A90E94F30BF801BE
:10021000658170E0F60184A995A90E94F30BF801AD
:10022000668170E0F60184A995A90E94F30BF8019C
:10023000A780B084F2E0AF0EB11CEB2CFF24B70115
:10024000F60184A995A90E94F30BBB24B501F60120
:1002500084A995A90E94F30BEA0CFB1CF801868186
:10026000E80EF11CC0E010C05801AC0EB11CF50145
:10027000618570E0F60184A995A90E94F30BF50150
:100280008185E80EF11CCF5F8C2F90E0F80127816B
:1002900030858217930740F36F2D70E0F60184A933
:1002A00095A90E94F30BB7017727F60184A995A9B8
:1002B0000E94F30BCF911F910F91FF90EF90DF9071
:1002C000CF90BF90AF900895CF92DF92EF92FF92C0
:1002D0000F931F93CF93DF930F92CDB7DEB7C82E46
:1002E000D92EE62EF72E80E091E00E947A0D00E0F4
:1002F00010E034C0C80131C00115110509F05AC021
:1003000089818F3EB9F7F701108281831FC00730C2
:10031000110509F44AC00830110509F04BC0F70176
:10032000878190852981822B908787830FC0F70171
:10033000808191812981822B9183808381309F4E9E
:1003400029F08EEF49C08981F7018683C8010196A3
:10035000065F1F4F00341105F0F58C01BE016F5F81
:100360007F4FF60184A995A90E94FF0B84E091E0DC
:100370000E947A0D89810E94110D87E091E00E9410
:100380007A0D06301105F9F210F60130110579F2F7
:1003900008F4B2CFC8010297049760F4F8013297CD
:1003A000EE0DFF1D89818283D1CF8981F7011782EC
:1003B0008087CCCFF8013997EE0DFF1D89818187A9
:1003C000F70127813085C80108978217930709F044
:1003D000BDCF80E001C08EEF0F90DF91CF911F91D4
:1003E0000F91FF90EF90DF90CF9008950F931F93A0
:1003F000CF93DF93CDB7DEB7CA54D1090FB6F894C7
:10040000DEBF0FBECDBF082F192F80E191E00E9403
:100410007A0D81E089839E012F5F3F4F41E050E0DC
:1004200061E0CE0102960E9476008AE091E00E948F
:100430007A0DBE016E5F7F4F802F912F0E94D100F9
:100440008CE091E00E947A0D48EE53E0BE016E5FB1
:100450007F4F802F912F0E94640181110DC081E098
:10046000C65BDF4F0FB6F894DEBF0FBECDBFDF9186
:10047000CF911F910F9108958EE091E00E947A0D27
:10048000EECF0F931F93CF93DF93CDB7DEB7CB544F
:10049000D1090FB6F894DEBF0FBECDBF082F192FBC
:1004A0001A82198282E089836A839E012F5F3F4FFF
:1004B00042E050E061E0CE0103960E9476008AE0BF
:1004C00091E00E947A0DBE016D5F7F4F802F912FCA
:1004D0000E94D1008CE091E00E947A0D48EE53E03A
:1004E000BE016D5F7F4F802F912F0E9464018111AB
:1004F0000DC081E0C55BDF4F0FB6F894DEBF0FBEC5
:10050000CDBFDF91CF911F910F9108958EE091E0C3
:100510000E947A0DEECF0F931F93CF93DF93CDB749
:10052000DEB7CF54D1090FB6F894DEBF0FBECDBFF2
:10053000082F192F9E012F5F3F4F86E0F90111927E
:100540008A95E9F784E089836A83F8018285938537
:100550009D838E8346E050E061E0CE0107960E94C5
:1005600076008AE091E00E947A0DBE01695F7F4FBC
:10057000C8010E94D1008CE091E00E947A0D48EE03
:1005800053E0BE01695F7F4FC8010E946401811181
:100590000DC081E0C15BDF4F0FB6F894DEBF0FBE28
:1005A000CDBFDF91CF911F910F9108958EE091E023
:1005B0000E947A0DEECFE82FF92F158280858E7F6D
:1005C000808780818E7F80838D7F80838B7F8083F7
:1005D0008FE090E0978386831382148212821182C7
:1005E0000895262F372F019709F008952F3F3F4F89
:1005F000E1F788E892E00E94DB02F7CF08951F92AE
:100600000F920FB60F9211242F933F934F935F9346
:100610006F937F938F939F93AF93BF93EF93FF93CA
:100620000E94FE02FF91EF91BF91AF919F918F9138
:100630007F916F915F914F913F912F910F900FBEDE
:100640000F901F9018956FEF7FEF81E090E00E9470
:10065000F10208956FEF7FEF80E090E00E94F102D9
:100660000895E82FF92F118280818E7F8083138275
:1006700012820895262F372F019709F008952F3FF2
:100680003F4FE1F781E992E00E943103F7CF0895EF
:100690001F920F920FB60F9211242F933F934F93F7
:1006A0005F936F937F938F939F93AF93BF93EF93DA
:1006B000FF930E944703FF91EF91BF91AF919F91EC
:1006C0008F917F916F915F914F913F912F910F90FB
:1006D0000FBE0F901F9018956FEF7FEF81E090E0B5
:1006E0000E943A0308956FEF7FEF80E090E00E9450
:1006F0003A030895E82FF92F118280818E7F80833D
:10070000138212820895262F372F019709F008953A
:100710002F3F3F4FE1F785E992E00E947A03F7CF40
:1007200008951F920F920FB60F9211242F933F93AB
:100730004F935F936F937F938F939F93AF93BF93E9
:10074000EF93FF930E949003FF91EF91BF91AF91C0
:100750009F918F917F916F915F914F913F912F91D9
:100760000F900FBE0F901F9018956FEF7FEF81E0F5
:1007700090E00E94830308956FEF7FEF80E090E0A8
:100780000E9483030895E82FF92F118280818E7FC4
:100790008083138212820895262F372F019709F044
:1007A00008952F3F3F4FE1F789E992E00E94C3038C
:1007B000F7CF08951F920F920FB60F9211242F9327
:1007C0003F934F935F936F937F938F939F93AF93D9
:1007D000BF93EF93FF930E94D903FF91EF91BF91D5
:1007E000AF919F918F917F916F915F914F913F91C9
:1007F0002F910F900FBE0F901F9018956FEF7FEF06
:1008000081E090E00E94CC0308956FEF7FEF80E0DD
:1008100090E00E94CC030895E82FF92F1182808187
:100820008E7F8083138212820895262F372F01979F
:1008300009F008952F3F3F4FE1F78DE992E00E94C4
:100840000C04F7CF08951F920F920FB60F92112448
:100850002F933F934F935F936F937F938F939F93C8
:10086000AF93BF93EF93FF930E942204FF91EF9108
:10087000BF91AF919F918F917F916F915F914F91B8
:100880003F912F910F900FBE0F901F9018956FEF13
:100890007FEF81E090E00E94150408956FEF7FEFF5
:1008A00080E090E00E9415040895E82FF92F11824E
:1008B00080818E7F8083138212820895262F372FA6
:1008C000019709F008952F3F3F4FE1F781EA92E049
:1008D0000E945504F7CF08951F920F920FB60F9202
:1008E00011242F933F934F935F936F937F938F9335
:1008F0009F93AF93BF93EF93FF930E946B04FF917D
:10090000EF91BF91AF919F918F917F916F915F9187
:100910004F913F912F910F900FBE0F901F90189500
:100920006FEF7FEF81E090E00E945E0408956FEF2B
:100930007FEF80E090E00E945E040895E82FF92F99
:100940001182128280818E7F8083148213820895A7
:10095000262F372F019709F008952F3F3F4FE1F7DA
:1009600085EA92E00E949E04F7CFE82FF92F84B524
:1009700035B58C7F377F262F2370282B862F8695C1
:10098000869590E0880F991F880F991F880F991FEF
:10099000832B24BD85BD62831482138281E0089578
:1009A000E82FF92F85B5887F862B85BD618314825A
:1009B000138281E00895089508951F920F920FB653
:1009C0000F9211242F933F934F935F936F937F93D5
:1009D0008F939F93AF93BF93EF93FF930E94940DD8
:1009E000FF91EF91BF91AF919F918F917F916F9107
:1009F0005F914F913F912F910F900FBE0F901F90DD
:100A000018951F920F920FB60F9211242F933F93B8
:100A10004F935F936F937F938F939F93AF93BF9306
:100A2000EF93FF930E94DB04FF91EF91BF91AF9191
:100A30009F918F917F916F915F914F913F912F91F6
:100A40000F900FBE0F901F9018951F920F920FB628
:100A50000F9211242F933F934F935F936F937F9344
:100A60008F939F93AF93BF93EF93FF930E94DC0408
:100A7000FF91EF91BF91AF919F918F917F916F9176
:100A80005F914F913F912F910F900FBE0F901F904C
:100A900018956FEF7FEF81E090E00E94A804089521
:100AA0006FEF7FEF80E090E00E94A8040895E82FA8
:100AB000F92F1182128280818E7F808314821382AB
:100AC0000895262F372F019709F008952F3F3F4FA4
:100AD000E1F78AEA92E00E945705F7CF089508955A
:100AE000089508951F920F920FB60F9211242F931D
:100AF0003F934F935F936F937F938F939F93AF93A6
:100B0000BF93EF93FF930E946E05FF91EF91BF910A
:100B1000AF919F918F917F916F915F914F913F9195
:100B20002F910F900FBE0F901F9018951F920F924C
:100B30000FB60F9211242F933F934F935F936F93B0
:100B40007F938F939F93AF93BF93EF93FF930E94F5
:100B50006F05FF91EF91BF91AF919F918F917F9121
:100B60006F915F914F913F912F910F900FBE0F901A
:100B70001F9018951F920F920FB60F9211242F936A
:100B80003F934F935F936F937F938F939F93AF9315
:100B9000BF93EF93FF930E947005FF91EF91BF9178
:100BA000AF919F918F917F916F915F914F913F9105
:100BB0002F910F900FBE0F901F9018951F920F92BC
:100BC0000FB60F9211242F933F934F935F936F9320
:100BD0007F938F939F93AF93BF93EF93FF930E9465
:100BE0007105FF91EF91BF91AF919F918F917F918F
:100BF0006F915F914F913F912F910F900FBE0F908A
:100C00001F9018956FEF7FEF81E090E00E946105E3
:100C100008956FEF7FEF80E090E00E9461050895F6
:100C2000E82FF92F1182128280818E7F80831482B7
:100C300013820895262F372F019709F008952F3F2B
:100C40003F4FE1F78FEA92E00E941006F7CF089538
:100C5000089508951F920F920FB60F9211242F93AB
:100C60003F934F935F936F937F938F939F93AF9334
:100C7000BF93EF93FF930E942706FF91EF91BF91DF
:100C8000AF919F918F917F916F915F914F913F9124
:100C90002F910F900FBE0F901F9018951F920F92DB
:100CA0000FB60F9211242F933F934F935F936F933F
:100CB0007F938F939F93AF93BF93EF93FF930E9484
:100CC0002806FF91EF91BF91AF919F918F917F91F6
:100CD0006F915F914F913F912F910F900FBE0F90A9
:100CE0001F9018951F920F920FB60F9211242F93F9
:100CF0003F934F935F936F937F938F939F93AF93A4
:100D0000BF93EF93FF930E942906FF91EF91BF914C
:100D1000AF919F918F917F916F915F914F913F9193
:100D20002F910F900FBE0F901F9018956FEF7FEFD0
:100D300081E090E00E941A0608956FEF7FEF80E057
:100D400090E00E941A06089527E030E0FC0133830A
:100D5000228380E0089527E030E0FC013383228382
:100D600080E0089527E030E0FC013383228380E0B7
:100D7000089527E030E0FC013383228380E008956A
:100D800027E030E0FC013383228380E0089527E0F0
:100D900030E0FC013383228380E0089580E090E01E
:100DA0000895FC01828193810895E82FF92F9B011A
:100DB0003370862F8295880F807E95859F71892B51
:100DC00085876695669566958685807E682B66879D
:100DD000832F83708295880F807E6F79862B86871C
:100DE000868140FB80F986838481816084831086BC
:100DF000178281E0089585E090E00895FC018781E5
:100E000090850895E82FF92F86E291E09183808301
:100E10008AE391E091838083128A118A83858078A6
:100E2000838713868485807C848714868585807E6D
:100E3000858784818D7F84838B7F848384E190E0A8
:100E4000908B87871086178208952AE331E0FC0192
:100E50003183208308950F931F93CF93DF93C82F7F
:100E6000D92F062F172FC130D10551F0CD2B19F4F2
:100E70000F3F1F4F69F0DF91CF911F910F910895A0
:100E80000F3F100799F785EB92E00E940207EECF23
:100E900085EB92E00E942507EECFCF92DF92EF9292
:100EA000FF92CF93DF9300D000D000D0CDB7DEB754
:100EB0008D839E83AD81BE811F968D919C91892BE0
:100EC000D9F4CC24CA94DC2C760184EE92E00E9402
:100ED000EA0C69837A838B839C83C616D706E8065F
:100EE000F906F8F08091BC0080FDEFCFED81FE8126
:100EF0001086178281E01EC084EE92E00E94EA0C08
:100F000069837A838B839C83ED81FE8187859089B9
:100F1000C980DA80EB80FC80C80ED91EE11CF11C70
:100F2000D4CF83E490E0AD81BE8118969C938E93DC
:100F3000179780E00F900F900F900F900F900F90E9
:100F4000DF91CF91FF90EF90DF90CF900895E82F41
:100F5000F92F84818B7F848388EF90E0928781874B
:100F600085EA8093BC001086178281E008950F9374
:100F70001F93CF93DF93C82FD92F062F172F8C8164
:100F800082FB882780F9882311F090E011C020E4CB
:100F900030E038872F8310C0E989FA89292F30E0A3
:100FA000D801A20FB31FE20FF31F21812C939F5F83
:100FB000941790F318861F82DF91CF911F910F91A4
:100FC0000895AF92BF92CF92DF92EF92FF920F936C
:100FD0001F93CF93DF93C82FD92FA62EF42EB22EB6
:100FE000C02ED12E1C81169511701123B9F0EE2060
:100FF00019F0C114D10411F1CE010E944D07182F30
:10100000882381F0F11046C0E989FA896A2D660FBC
:101010006083E989FA89B18290E025C084E090E09C
:1010200098878F83812FDF91CF911F910F91FF9030
:10103000EF90DF90CF90BF90AF90089581E190E066
:1010400098878F8310E0EECF292F30E0E989FA8965
:10105000A9014E5F5F4FE40FF51F2C0D3D1DD90117
:101060008C9180839F5F9E1578F392E09E0DE794AC
:10107000EE24E7948B858F77E82AEB8696959F730D
:101080008C85807C892B8C87CE010E94A7071886CF
:101090001F82C8CFE989FA898A2D880F8083E98960
:1010A000FA89B1828B858F778B878C85807C816074
:1010B0008C87CE010E94A707CE010E944D078111A7
:1010C00002C0182FAFCF6A2D70E0660F771FE98935
:1010D000FA896160608381E08E0D982F979599273A
:1010E00097952B852F77922B9B8786958F739C8561
:1010F000907C892B8C87CE010E94A707CE010E948D
:101100004D07811102C0182F8DCF4E2DB601CE0193
:101110000E94B7078111BBCF182F84CFEF920F9396
:101120001F93CF93DF93C82FD92F962F8C81817077
:1011300081110AC021E430E038872F83DF91CF91FD
:101140001F910F91EF9008958D85829586958770F8
:101150006E85660F660F660F682BE22E042F152F23
:10116000292F41E0CE010E94E107882339F3188638
:101170001F82E4CFEF920F931F93CF93DF93C82F7B
:10118000D92F962F8C81817081110AC021E430E023
:1011900038872F83DF91CF911F910F91EF900895A2
:1011A0008D858295869587706E85660F660F660FB2
:1011B000682BE22E042F152F292F40E0CE010E942C
:1011C000E107882339F318861F82E4CFE82FF92F2F
:1011D0008091B9008C7F883309F46EC0A8F0803507
:1011E00009F458C08835C9F5A189B2898091B40243
:1011F000A80FB11D8091BB008C938481846084838F
:1012000084E98093BC000895883121F0F8F0883299
:1012100009F056C09385991F9927991F84858F736C
:10122000880F892B9091B402981768F50188F2898C
:10123000E02D81E0890F8093B402E90FF11D8081D8
:101240008093BB0085E88093BC000895883011F03E
:101250008031B1F51092B402DDCF803489F5209150
:10126000B40230E09385991F9927991F84858F7365
:10127000880F892B8150990B28173907CCF485ECFE
:101280008093BC00089584818460848384E9809382
:10129000BC0008959091BB00A189B2898091B402ED
:1012A00021E0280F2093B402A80FB11D9C93D7CF43
:1012B00085E88093BC00089585EA8093BC0008957A
:1012C0008091B900858384E08093BC0008951F92CB
:1012D0000F920FB60F9211242F933F934F935F936A
:1012E0006F937F938F939F93AF93BF93EF93FF93EE
:1012F00085EB92E00E94E608FF91EF91BF91AF91DC
:101300009F918F917F916F915F914F913F912F911D
:101310000F900FBE0F901F9018956FEF7FEF81E039
:1013200090E00E942B0708956FEF7FEF80E090E040
:101330000E942B0708953F924F925F926F927F9287
:101340008F929F92AF92BF92CF92DF92EF92FF92D5
:101350000F931F93CF93DF93CDB7DEB72A970FB6C6
:10136000F894DEBF0FBECDBF89879A870091C00079
:101370001091C1008091C2002091C4003091C5003D
:10138000E985FA8593859923C1F09130C1F08F7C6E
:10139000E985FA8592859130A1F09230A1F01B7F0A
:1013A000897FE985FA859481933029F170F4913031
:1013B00089F0923081F484600EC0877FE8CF886026
:1013C000E6CF8063ECCF8062EACF973021F41460DF
:1013D000866001C08260017EF82FFE733F2EE98592
:1013E000FA85F580F7E0FF1540F0EF2DF0E0EC5DB9
:1013F000F04F0C94D10E8660EECFFF24F3942EC0F4
:1014000002606894FF24F3F829C0689436F826C077
:10141000832D8164382E6894FF24F1F81FC08C73EB
:10142000806C382E6894FF24F1F818C0932D926CCC
:10143000392E6894FF24F1F811C08C73816C382E1A
:101440006894FF24F1F80AC0E32DE36C3E2E689403
:10145000FF24F1F803C06894FF24F4F884EE92E0CE
:101460000E94D20C6D837E838F839887E985FA85ED
:101470002681378140855185AF2DB0E00E94E60E70
:1014800069837A838B839C836D817E818F8198852C
:1014900029813A814B815C810E94AF0E69017A01FA
:1014A000F1E0CF1AD108E108F108260137010093D5
:1014B000C0001093C1003092C2002C2D352D462D56
:1014C000572D60E070E080E090E008E00E94F30EAD
:1014D0002F702093C500C092C400E985FA8513825D
:1014E000128281E02A960FB6F894DEBF0FBECDBF00
:1014F000DF91CF911F910F91FF90EF90DF90CF90F0
:10150000BF90AF909F908F907F906F905F904F9023
:101510003F900895E82FF92F8081877F808368307E
:1015200030F086EB90E09383828380E008956583BA
:101530001382128281E00895E82FF92F8081877F3E
:101540008083643040F0673031F082EB90E0938329
:10155000828380E0089564831382128281E008957B
:10156000E82FF92F842F952FA62FB72F2081277FC3
:101570002083803820E79207A105B10519F108F012
:1015800041C0803C22E19207A105B105D9F010F5D8
:10159000883027E09207A105B105A1F038F0803628
:1015A00029E09207A105B10539F50CC0883522E084
:1015B0009207A105B10531F0803B24E09207A10517
:1015C000B105D1F486839783A087B18713821282F5
:1015D00081E00895803428E39207A105B10591F3D5
:1015E00081152BE49207A105B10561F3803825E24E
:1015F0009207A105B10531F380EB90E093838283DC
:1016000080E00895811522EC920721E0A207B10540
:10161000C9F2B0F0811524E8920723E0A207B105D2
:1016200089F2811528EE920723E0A207B10551F255
:10163000811524EF920721E0A207B105E9F6C2CF98
:10164000803C2AED9207A105B10509F4BBCF8115B5
:1016500021EE9207A105B10509F4B4CF811526E961
:101660009207A105B10541F6ADCFA82FB92F8C91F6
:10167000877F8C93EFEAE60FEA3428F4F0E0E45D2C
:10168000F04F0C94D10E83EB90E013969C938E93C5
:10169000129780E00895862F8370813051F0823058
:1016A000E9F08FEF9FEF13969C938E93129780E053
:1016B00008951B961C921B97862F8695869583709E
:1016C000813011F1823029F1882369F08FEF9FEF8B
:1016D00013969C938E93129780E0089581E01B9659
:1016E0008C931B97E9CF1A961C921A9762956F708C
:1016F000673031F198F0683041F1693059F587E091
:1017000014968C93149716C081E01A968C931A97AE
:10171000EDCF82E01A968C931A97E8CF653039F0B6
:101720006630C1F481E014968C93149703C014962C
:101730001C92149713961C921E92129781E00895A2
:1017400082E014968C931497F5CF83E014968C93D3
:101750001497F0CF8FEF9FEF13969C938E93129771
:1017600080E008950F931F93CF93DF93C82FD92F55
:10177000122FCE010E94B00A811105C0DF91CF91D6
:101780001F910F910895612FCE010E948A0A88232C
:10179000A9F3602FCE010E94350B882379F3E8EC82
:1017A000F2E084E29CE0918780871386128682E0D3
:1017B0008383158614861B821A82E0CF0F93262F0F
:1017C000372F019711F00F9108952F3F3F4FD9F711
:1017D00001E820E040E855E260E070E086ED92E04C
:1017E0000E94B20BF0CFE82FF92F8091C00085FF47
:1017F000FCCF6093C6001382128281E00895E82F27
:10180000F92FA62FB72F8091C0008823E4F790917D
:10181000C000808193FB80F9808394FB81F98083F1
:1018200092FB82F980831C928091C6008C93138274
:10183000128281E008958091C00085FFFCCF609303
:10184000C60080E090E00895462F572F682F8091C2
:10185000E2029091E3020E941B0C089508950895FE
:1018600008951F920F920FB60F9211242F933F935A
:101870004F935F936F937F938F939F93AF93BF9398
:10188000EF93FF930E942E0CFF91EF91BF91AF91C8
:101890009F918F917F916F915F914F913F912F9188
:1018A0000F900FBE0F901F9018951F920F920FB6BA
:1018B0000F9211242F933F934F935F936F937F93D6
:1018C0008F939F93AF93BF93EF93FF930E94300C3E
:1018D000FF91EF91BF91AF919F918F917F916F9108
:1018E0005F914F913F912F910F900FBE0F901F90DE
:1018F00018951F920F920FB60F9211242F933F93BA
:101900004F935F936F937F938F939F93AF93BF9307
:10191000EF93FF930E942F0CFF91EF91BF91AF9136
:101920009F918F917F916F915F914F913F912F91F7
:101930000F900FBE0F901F9018956FEF7FEF81E013
:1019400090E00E94DE0B08956FEF7FEF80E090E063
:101950000E94DE0B0895E82FF92F80E094E2A4EFB7
:10196000B0E086839783A087B18780839183A28329
:10197000B3831582148216861786108A118A82898B
:101980008E7F828B148A138A0895262F372F019712
:1019900009F008952F3F3F4FE1F784EE92E00E9457
:1019A000AB0CF7CFCF93DF9300D000D0CDB7DEB72D
:1019B000FC01268137814085518529833A834B83F9
:1019C0005C83CA01B9010F900F900F900F90DF91C7
:1019D000CF910895CF93DF9300D000D0CDB7DEB77D
:1019E000E82FF92F82859385A485B58589839A830D
:1019F000AB83BC83BC01CD010F900F900F900F9073
:101A0000DF91CF9108956FEF7FEF81E090E00E942A
:101A1000C50C08956FEF7FEF80E090E00E94C50C49
:101A2000089591E09093F90295B3926095BB16BC2E
:101A30009BB19B7F9BB9EEE6F0E090819260908332
:101A40009091F9029111FCCFEEE6F0E090819D7F3C
:101A5000908391E09093F90220E00EC000009091F5
:101A6000F9029111FBCFEEE6F0E090819D7F90832B
:101A700091E09093F9022F5F283050F5482F50E005
:101A8000022E02C0559547950A94E2F740FF09C01F
:101A90009BB194609BB9EEE6F0E0908192609083F8
:101AA000DECF9BB19B7F9BB9EEE6F0E09081926028
:101AB000908301C000009091F9029111FBCFEEE6F6
:101AC000F0E090819D7F908391E09093F902D3CFD5
:101AD0008BB184608BB9EEE6F0E080818260808318
:101AE0008091F9028111FCCFEEE6F0E080818D7FDC
:101AF000808308950F931F93CF93DF93082F192F9F
:101B0000C0E0D0E003C00E94110D2196F801EC0F57
:101B1000FD1F80818111F7CF8AE00E94110DDF91B6
:101B2000CF911F910F9108951092F90208950F938C
:101B30001F93CF93082F192F8AE491E00E947A0D0A
:101B4000C8010E94F601C82F84E691E00E947A0D38
:101B5000C23079F148F4CC2371F0C13099F586E9AF
:101B600091E00E947A0D29C0C33061F58AEA91E0C4
:101B70000E947A0D22C087E791E00E947A0D61E011
:101B8000C8010E944102C82F8630C9F148F0873051
:101B9000D9F18531F1F589EF91E00E947A0D0DC000
:101BA0008823A9F08130A9F586E991E00E947A0D99
:101BB00004C083E891E00E947A0D8C2FCF911F9191
:101BC0000F91089588EB91E00E947A0DF6CF86EC94
:101BD00091E00E947A0D61E0C8010E948B02C82F3B
:101BE00086ED91E00E947A0DCC23C1F0C13029F13D
:101BF000C93041F188EB91E00E947A0DDECF89EE89
:101C000091E00E947A0DD9CF89EF91E00E947A0D80
:101C1000D4CF88EB91E00E947A0DCFCF8DE192E096
:101C20000E947A0D82E392E00E947A0D8DE392E0A9
:101C30000E947A0DF801C081C0CF86E991E00E9430
:101C40007A0DBBCF82E592E00E947A0DB6CFCDB778
:101C5000DEB7CC59D1090FB6F894DEBF0FBECDBFA9
:101C600001E820E040E051EE60E070E0CE01019636
:101C70000E94B20B63E0CE0101960E949C0A20E014
:101C800030E0A901BE016F5F7F4FCE010D960E942B
:101C9000A700E2E8F2E088EC92E0958384839383E6
:101CA000828391838083E1ECF0E080818061808396
:101CB000808188608083CE0101960E949B098BE021
:101CC000EDE6F2E0DE01AD5BBF4F01900D928A952B
:101CD000E1F778948FEF8AB98BB184608BB9CE012C
:101CE000825B9F4F0E949E0462E0CE01825B9F4F09
:101CF0000E94B50462E0CE01825B9F4F0E94D00437
:101D000080ED87BD2FEF83ED90E321508040904020
:101D1000E1F700C000008AE0E8E7F2E0DE01AD5A3A
:101D2000BF4F01900D928A95E1F7FE01E35AFF4FF4
:101D300080E4DF011D928A95E9F787E692E00E9430
:101D40007A0DCE010D960E94970DBFEF23EC89E02E
:101D5000B15020408040E1F700C00000F2CFA1E286
:101D60001A2EAA1BBB1BFD010DC0AA1FBB1FEE1F15
:101D7000FF1FA217B307E407F50720F0A21BB30B60
:101D8000E40BF50B661F771F881F991F1A9469F7DC
:101D900060957095809590959B01AC01BD01CF0138
:101DA0000895EE0FFF1F0590F491E02D0994A29F76
:101DB000B001B39FC001A39F700D811D1124911D1F
:101DC000B29F700D811D1124911D08950E94D70EA0
:101DD000A59F900DB49F900DA49F800D911D11247F
:101DE000089597FD1094002E083098F00850232F86
:101DF000342F452F562F672F782F892F912DF4CF11
:101E00001594979587957795679557954795379545
:101E100027950A95AAF71124002D0895FB01DC01EE
:101E200002C001900D9241505040D8F7089510E043
:101E3000C0E4D0E004C0FE010E94D10E2196CC3453
:101E4000D107C9F7F894FFCF2B0A000A050A080A40
:101E50000F0A160A1D0A240A4B0B4B0B430B430BAC
:101E60004B0B4B0B430B430B4B0B4B0B430B430BE2
:101E7000430B430B430B430B4B0B4B0B430B430BE2
:101E80004B0B4B0B430B430B4B0B4B0B430B430BC2
:101E9000430B430B430B430B4B0B4B0B430B430BC2
:101EA0004B0B4B0B430B430B4B0B4B0B430B430BA2
:101EB000430B430B430B430B4B0B4B0B430B430BA2
:101EC0004B0B4B0B430B430B4B0B4B0B430B430B82
:101ED000430B430B430B430B4B0B4B0B430B430B82
:0C1EE0004B0B4B0B430B430B4B0B4B0B02
:101EEC003C2D20003078002C2000310032003300D3
:101EFC00656E746572656420676574696D6167658C
:101F0C00200000000000A406AB06B206B906C0060D
:101F1C00C706CE06D106000000008E08AB06B2063E
:101F2C00BA08D506C706FB06FE0620656E74726FEE
:101F3C0075206E61206765742066696E6765722016
:101F4C00696420006465706F697320646120676543
:101F5C0074696D61676500496D6167652074616BBB
:101F6C00656E004E6F2066696E67657220646574DD
:101F7C00656374656400436F6D6D756E6963617440
:101F8C00696F6E206572726F7200496D6167696E60
:101F9C0067206572726F7200556E6B6E6F776E2074
:101FAC006572726F7200496D61676520636F6E7642
:101FBC0065727465640061667465722066696E672B
:101FCC00657273656172636800496D616765207441
:101FDC006F6F206D6573737900436F756C64206E41
:101FEC006F742066696E642066696E6765727072C4
:101FFC00696E7420666561747572657300466F75E1
:10200C006E642061207072696E74206D61746368F7
:10201C002100466F756E64204944202300207769A7
:10202C00746820636F6E666964656E6365206F66A5
:10203C002000446964206E6F742066696E642061B0
:10204C00206D617463680068656C6C6F00717765F6
:10205C0072747975696F7000796579206D616E2085
:02206C000A0068
:00000001FF
