:100000000C944C000C940D010C9456010C949F011F
:100010000C94E8010C9431020C9474000C94EF03DE
:100020000C9413040C9437040C947F030C94370342
:100030000C945B030C94A3030C94A2020C94C602D0
:100040000C94EA020C9474000C94CE090C94160AD9
:100050000C94F2090C94C4000C9474000C94740079
:100060000C942C070C947400E80031017A01C30150
:100070000C0255020E03C7035B0452073A0AA00A9A
:10008000EF0038018101CA0113025C021503CE039F
:1000900062045907410AA70A11241FBECFEFD8E016
:1000A000DEBFCDBF11E0A0E0B1E0E0EEFEE102C0B6
:1000B00005900D92A436B107D9F721E0A4E6B1E08E
:1000C00001C01D92AC3DB207E1F710E0C0E4D0E002
:1000D00004C02197FE010E94E20BC433D107C9F787
:1000E0000E94330B0C94110F0C9400000F931F937C
:1000F000E82FF92F178216821186108600E410E08F
:1001000013870287158614868FEF9FEFDC018687A1
:100110009787A08BB18B138B028B00E011EE158BB0
:10012000048B268B378B408F518F828F938FA48FB8
:10013000B58F62AB73AB64AB75AB1F910F91089534
:10014000E82FF92F158280858E7F808780818E7FB2
:1001500080838D7F80838B7F80838FE090E0978387
:10016000868313821482128211820895262F372FDC
:10017000019709F008952F3F3F4FE1F78AE691E09C
:100180000E94A000F7CF08951F920F920FB60F9212
:1001900011242F933F934F935F936F937F938F938C
:1001A0009F93AF93BF93EF93FF930E94C300FF9180
:1001B000EF91BF91AF919F918F917F916F915F91DF
:1001C0004F913F912F910F900FBE0F901F90189558
:1001D0006FEF7FEF81E090E00E94B60008956FEF2F
:1001E0007FEF80E090E00E94B6000895E82FF92F9D
:1001F000118280818E7F8083138212820895262F40
:10020000372F019709F008952F3F3F4FE1F783E71C
:1002100091E00E94F600F7CF08951F920F920FB65B
:100220000F9211242F933F934F935F936F937F937C
:100230008F939F93AF93BF93EF93FF930E940C0113
:10024000FF91EF91BF91AF919F918F917F916F91AE
:100250005F914F913F912F910F900FBE0F901F9084
:1002600018956FEF7FEF81E090E00E94FF00089506
:100270006FEF7FEF80E090E00E94FF000895E82F8D
:10028000F92F118280818E7F8083138212820895DC
:10029000262F372F019709F008952F3F3F4FE1F7A1
:1002A00087E791E00E943F01F7CF08951F920F92D8
:1002B0000FB60F9211242F933F934F935F936F9339
:1002C0007F938F939F93AF93BF93EF93FF930E947E
:1002D0005501FF91EF91BF91AF919F918F917F91C8
:1002E0006F915F914F913F912F910F900FBE0F90A3
:1002F0001F9018956FEF7FEF81E090E00E9448011A
:1003000008956FEF7FEF80E090E00E94480108952C
:10031000E82FF92F118280818E7F808313821282D1
:100320000895262F372F019709F008952F3F3F4F4B
:10033000E1F78BE791E00E948801F7CF08951F92C3
:100340000F920FB60F9211242F933F934F935F9309
:100350006F937F938F939F93AF93BF93EF93FF938D
:100360000E949E01FF91EF91BF91AF919F918F915C
:100370007F916F915F914F913F912F910F900FBEA1
:100380000F901F9018956FEF7FEF81E090E00E9433
:10039000910108956FEF7FEF80E090E00E9491015E
:1003A0000895E82FF92F118280818E7F8083138238
:1003B00012820895262F372F019709F008952F3FB5
:1003C0003F4FE1F78FE791E00E94D101F7CF089509
:1003D0001F920F920FB60F9211242F933F934F93BA
:1003E0005F936F937F938F939F93AF93BF93EF939D
:1003F000FF930E94E701FF91EF91BF91AF919F9111
:100400008F917F916F915F914F913F912F910F90BD
:100410000FBE0F901F9018956FEF7FEF81E090E077
:100420000E94DA0108956FEF7FEF80E090E00E9474
:10043000DA010895E82FF92F118280818E7F808361
:10044000138212820895262F372F019709F00895FD
:100450002F3F3F4FE1F783E891E00E941A02F7CF68
:1004600008951F920F920FB60F9211242F933F936E
:100470004F935F936F937F938F939F93AF93BF93AC
:10048000EF93FF930E943002FF91EF91BF91AF91E4
:100490009F918F917F916F915F914F913F912F919C
:1004A0000F900FBE0F901F9018956FEF7FEF81E0B8
:1004B00090E00E94230208956FEF7FEF80E090E0CC
:1004C0000E9423020895E82FF92F11821282808161
:1004D0008E7F8083148213820895262F372F0197F1
:1004E00009F008952F3F3F4FE1F787E891E00E9420
:1004F0006302F7CFE82FF92F84B535B58C7F377FAE
:10050000262F2370282B862F8695869590E0880FBE
:10051000991F880F991F880F991F832B24BD85BDB4
:1005200062831482138281E00895E82FF92F85B544
:10053000887F862B85BD61831482138281E00895B4
:10054000089508951F920F920FB60F9211242F93C2
:100550003F934F935F936F937F938F939F93AF934B
:10056000BF93EF93FF930E94BD0BFF91EF91BF915B
:10057000AF919F918F917F916F915F914F913F913B
:100580002F910F900FBE0F901F9018951F920F92F2
:100590000FB60F9211242F933F934F935F936F9356
:1005A0007F938F939F93AF93BF93EF93FF930E949B
:1005B000A002FF91EF91BF91AF919F918F917F9199
:1005C0006F915F914F913F912F910F900FBE0F90C0
:1005D0001F9018951F920F920FB60F9211242F9310
:1005E0003F934F935F936F937F938F939F93AF93BB
:1005F000BF93EF93FF930E94A102FF91EF91BF91F0
:10060000AF919F918F917F916F915F914F913F91AA
:100610002F910F900FBE0F901F9018956FEF7FEFE7
:1006200081E090E00E946D0208956FEF7FEF80E01F
:1006300090E00E946D020895E82FF92F1182128236
:1006400080818E7F8083148213820895262F372F16
:10065000019709F008952F3F3F4FE1F78CE891E0B3
:100660000E941C03F7CF08950895089508951F92DE
:100670000F920FB60F9211242F933F934F935F93D6
:100680006F937F938F939F93AF93BF93EF93FF935A
:100690000E943303FF91EF91BF91AF919F918F9192
:1006A0007F916F915F914F913F912F910F900FBE6E
:1006B0000F901F9018951F920F920FB60F92112452
:1006C0002F933F934F935F936F937F938F939F935A
:1006D000AF93BF93EF93FF930E943403FF91EF9189
:1006E000BF91AF919F918F917F916F915F914F914A
:1006F0003F912F910F900FBE0F901F9018951F9252
:100700000F920FB60F9211242F933F934F935F9345
:100710006F937F938F939F93AF93BF93EF93FF93C9
:100720000E943503FF91EF91BF91AF919F918F91FF
:100730007F916F915F914F913F912F910F900FBEDD
:100740000F901F9018951F920F920FB60F921124C1
:100750002F933F934F935F936F937F938F939F93C9
:10076000AF93BF93EF93FF930E943603FF91EF91F6
:10077000BF91AF919F918F917F916F915F914F91B9
:100780003F912F910F900FBE0F901F9018956FEF14
:100790007FEF81E090E00E94260308956FEF7FEFE6
:1007A00080E090E00E9426030895E82FF92F11823F
:1007B000128280818E7F8083148213820895262F77
:1007C000372F019709F008952F3F3F4FE1F781E957
:1007D00091E00E94D503F7CF0895089508951F92E0
:1007E0000F920FB60F9211242F933F934F935F9365
:1007F0006F937F938F939F93AF93BF93EF93FF93E9
:100800000E94EC03FF91EF91BF91AF919F918F9167
:100810007F916F915F914F913F912F910F900FBEFC
:100820000F901F9018951F920F920FB60F921124E0
:100830002F933F934F935F936F937F938F939F93E8
:10084000AF93BF93EF93FF930E94ED03FF91EF915E
:10085000BF91AF919F918F917F916F915F914F91D8
:100860003F912F910F900FBE0F901F9018951F92E0
:100870000F920FB60F9211242F933F934F935F93D4
:100880006F937F938F939F93AF93BF93EF93FF9358
:100890000E94EE03FF91EF91BF91AF919F918F91D5
:1008A0007F916F915F914F913F912F910F900FBE6C
:1008B0000F901F9018956FEF7FEF81E090E00E94FE
:1008C000DF0308956FEF7FEF80E090E00E94DF0389
:1008D000089527E030E0FC013383228380E008950F
:1008E00027E030E0FC013383228380E0089527E095
:1008F00030E0FC013383228380E0089527E030E07C
:10090000FC013383228380E0089527E030E0FC017E
:100910003383228380E0089527E030E0FC013383B5
:10092000228380E0089580E090E00895FC018281B8
:1009300093810895E82FF92F9B013370862F8295BC
:10094000880F807E95859F71892B85876695669532
:1009500066958685807E682B6687832F8370829557
:10096000880F807E6F79862B8687868140FB80F991
:1009700086838481816084831086178281E0089554
:1009800085E090E00895FC01878190850895E82F27
:10099000F92F84E091E09183808388E191E0918355
:1009A0008083128A118A8385807883871386848561
:1009B000807C848714868585807E858784818D7F71
:1009C00084838B7F848384E190E0908B878710867B
:1009D0001782089528E131E0FC01318320830895D6
:1009E0000F931F93CF93DF93C82FD92F062F172F65
:1009F000C130D10551F0CD2B19F40F3F1F4F69F0D5
:100A0000DF91CF911F910F9108950F3F100799F734
:100A100087E991E00E94C704EECF87E991E00E9448
:100A2000EA04EECFCF92DF92EF92FF92CF93DF9363
:100A300000D000D000D0CDB7DEB78D839E83AD81CE
:100A4000BE811F968D919C91892BD9F4CC24CA9498
:100A5000DC2C760186EC91E00E94870A69837A8318
:100A60008B839C83C616D706E806F906F8F08091BA
:100A7000BC0080FDEFCFED81FE811086178281E002
:100A80001EC086EC91E00E94870A69837A838B837B
:100A90009C83ED81FE8187859089C980DA80EB8017
:100AA000FC80C80ED91EE11CF11CD4CF83E490E079
:100AB000AD81BE8118969C938E93179780E00F901E
:100AC0000F900F900F900F900F90DF91CF91FF90AC
:100AD000EF90DF90CF900895E82FF92F84818B7FDE
:100AE000848388EF90E09287818785EA8093BC00B9
:100AF0001086178281E008950F931F93CF93DF93A1
:100B0000C82FD92F062F172F8C8182FB882780F9B9
:100B1000882311F090E011C020E430E038872F8363
:100B200010C0E989FA89292F30E0D801A20FB31F3C
:100B3000E20FF31F21812C939F5F941790F3188687
:100B40001F82DF91CF911F910F910895AF92BF92B5
:100B5000CF92DF92EF92FF920F931F93CF93DF9389
:100B6000C82FD92FA62EF42EB22EC02ED12E1C8126
:100B7000169511701123B9F0EE2019F0C114D104AB
:100B800011F1CE010E941205182F882381F0F11077
:100B900046C0E989FA896A2D660F6083E989FA8976
:100BA000B18290E025C084E090E098878F83812F08
:100BB000DF91CF911F910F91FF90EF90DF90CF9039
:100BC000BF90AF90089581E190E098878F8310E007
:100BD000EECF292F30E0E989FA89A9014E5F5F4FF6
:100BE000E40FF51F2C0D3D1DD9018C9180839F5F73
:100BF0009E1578F392E09E0DE794EE24E7948B85A2
:100C00008F77E82AEB8696959F738C85807C892B5D
:100C10008C87CE010E946C0518861F82C8CFE98997
:100C2000FA898A2D880F8083E989FA89B1828B85B8
:100C30008F778B878C85807C81608C87CE010E942A
:100C40006C05CE010E941205811102C0182FAFCF92
:100C50006A2D70E0660F771FE989FA896160608309
:100C600081E08E0D982F9795992797952B852F7753
:100C7000922B9B8786958F739C85907C892B8C8784
:100C8000CE010E946C05CE010E941205811102C0A6
:100C9000182F8DCF4E2DB601CE010E947C058111FB
:100CA000BBCF182F84CFEF920F931F93CF93DF9377
:100CB000C82FD92F962F8C81817081110AC021E411
:100CC00030E038872F83DF91CF911F910F91EF9004
:100CD00008958D858295869587706E85660F660F5F
:100CE000660F682BE22E042F152F292F41E0CE012D
:100CF0000E94A605882339F318861F82E4CFEF925D
:100D00000F931F93CF93DF93C82FD92F962F8C81EA
:100D1000817081110AC021E430E038872F83DF9190
:100D2000CF911F910F91EF9008958D8582958695B3
:100D300087706E85660F660F660F682BE22E042F94
:100D4000152F292F40E0CE010E94A605882339F3F4
:100D500018861F82E4CFE82FF92F8091B9008C7F8D
:100D6000883309F46EC0A8F0803509F458C088357E
:100D7000C9F5A189B28980919601A80FB11D809112
:100D8000BB008C9384818460848384E98093BC005D
:100D90000895883121F0F8F0883209F056C0938523
:100DA000991F9927991F84858F73880F892B90919C
:100DB0009601981768F50188F289E02D81E0890F86
:100DC00080939601E90FF11D80818093BB0085E837
:100DD0008093BC000895883011F08031B1F51092F5
:100DE0009601DDCF803489F52091960130E093851E
:100DF000991F9927991F84858F73880F892B81509C
:100E0000990B28173907CCF485EC8093BC00089522
:100E100084818460848384E98093BC0008959091E8
:100E2000BB00A189B2898091960121E0280F20930F
:100E30009601A80FB11D9C93D7CF85E88093BC0085
:100E4000089585EA8093BC0008958091B900858358
:100E500084E08093BC0008951F920F920FB60F920A
:100E600011242F933F934F935F936F937F938F93AF
:100E70009F93AF93BF93EF93FF9387E991E00E9415
:100E8000AB06FF91EF91BF91AF919F918F917F91B1
:100E90006F915F914F913F912F910F900FBE0F90E7
:100EA0001F9018956FEF7FEF81E090E00E94F004B3
:100EB00008956FEF7FEF80E090E00E94F0040895C6
:100EC0003F924F925F926F927F928F929F92AF92DA
:100ED000BF92CF92DF92EF92FF920F931F93CF9327
:100EE000DF93CDB7DEB72A970FB6F894DEBF0FBEFB
:100EF000CDBF89879A870091C0001091C100809171
:100F0000C2002091C4003091C500E985FA8593851F
:100F10009923C1F09130C1F08F7CE985FA859285E3
:100F20009130A1F09230A1F01B7F897FE985FA858D
:100F30009481933029F170F4913089F0923081F4EA
:100F400084600EC0877FE8CF8860E6CF8063ECCFF7
:100F50008062EACF973021F41460866001C082601D
:100F6000017EF82FFE733F2EE985FA85F580F7E0C4
:100F7000FF1540F0EF2DF0E0E25EF04F0C94E20B35
:100F80008660EECFFF24F3942EC002606894FF24A5
:100F9000F3F829C0689436F826C0832D8164382E72
:100FA0006894FF24F1F81FC08C73806C382E68940D
:100FB000FF24F1F818C0932D926C392E6894FF2409
:100FC000F1F811C08C73816C382E6894FF24F1F80D
:100FD0000AC0E32DE36C3E2E6894FF24F1F803C0B1
:100FE0006894FF24F4F886EC91E00E946F0A6D8308
:100FF0007E838F839887E985FA85268137814085AE
:101000005185AF2DB0E00E94F70B69837A838B8303
:101010009C836D817E818F81988529813A814B8166
:101020005C810E94C00B69017A01F1E0CF1AD108FE
:10103000E108F108260137010093C0001093C100B8
:101040003092C2002C2D352D462D572D60E070E0DA
:1010500080E090E008E00E94040C2F702093C5000F
:10106000C092C400E985FA851382128281E02A9633
:101070000FB6F894DEBF0FBECDBFDF91CF911F91A9
:101080000F91FF90EF90DF90CF90BF90AF909F9027
:101090008F907F906F905F904F903F900895E82FD2
:1010A000F92F8081877F8083683030F086EB90E075
:1010B0009383828380E0089565831382128281E0A6
:1010C0000895E82FF92F8081877F8083643040F076
:1010D000673031F082EB90E09383828380E0089563
:1010E00064831382128281E00895E82FF92F842F00
:1010F000952FA62FB72F2081277F2083803820E7C8
:101100009207A105B10519F108F041C0803C22E128
:101110009207A105B105D9F010F5883027E09207B4
:10112000A105B105A1F038F0803629E09207A105AC
:10113000B10539F50CC0883522E09207A105B1054B
:1011400031F0803B24E09207A105B105D1F48683FC
:101150009783A087B1871382128281E0089580343B
:1011600028E39207A105B10591F381152BE49207BD
:10117000A105B10561F3803825E29207A105B1050B
:1011800031F380EB90E09383828380E008958115B2
:1011900022EC920721E0A207B105C9F2B0F0811557
:1011A00024E8920723E0A207B10589F2811528EE11
:1011B000920723E0A207B10551F2811524EF9207AF
:1011C00021E0A207B105E9F6C2CF803C2AED9207E3
:1011D000A105B10509F4BBCF811521EE9207A10548
:1011E000B10509F4B4CF811526E99207A105B1052F
:1011F00041F6ADCFA82FB92F8C91877F8C93EFEA62
:10120000E60FEA3428F4F0E0EA5DF04F0C94E20BCC
:1012100083EB90E013969C938E93129780E0089551
:10122000862F8370813051F08230E9F08FEF9FEF8D
:1012300013969C938E93129780E008951B961C92B0
:101240001B97862F869586958370813011F18230A9
:1012500029F1882369F08FEF9FEF13969C938E936B
:10126000129780E0089581E01B968C931B97E9CF3D
:101270001A961C921A9762956F70673031F198F048
:10128000683041F1693059F587E014968C931497D2
:1012900016C081E01A968C931A97EDCF82E01A96C9
:1012A0008C931A97E8CF653039F06630C1F481E04D
:1012B00014968C93149703C014961C92149713964B
:1012C0001C921E92129781E0089582E014968C93EE
:1012D0001497F5CF83E014968C931497F0CF8FEF8B
:1012E0009FEF13969C938E93129780E008950F932F
:1012F0001F93CF93DF93C82FD92F122FCE010E94B7
:101300007508811105C0DF91CF911F910F9108954C
:10131000612FCE010E944F088823A9F3602FCE01D0
:101320000E94FA08882379F3EAEAF1E081EC99E077
:10133000918780871386128682E0838315861486C0
:101340001B821A82E0CF0F93262F372F019711F0BF
:101350000F9108952F3F3F4FD9F701E820E040E873
:1013600055E260E070E088EB91E00E947709F0CFF1
:101370008091C00085FFFCCF6093C60080E090E0C4
:101380000895462F572F682F8091C4019091C50171
:101390000E94B80908950895089508951F920F9224
:1013A0000FB60F9211242F933F934F935F936F9338
:1013B0007F938F939F93AF93BF93EF93FF930E947D
:1013C000CB09FF91EF91BF91AF919F918F917F9149
:1013D0006F915F914F913F912F910F900FBE0F90A2
:1013E0001F9018951F920F920FB60F9211242F93F2
:1013F0003F934F935F936F937F938F939F93AF939D
:10140000BF93EF93FF930E94CD09FF91EF91BF919E
:10141000AF919F918F917F916F915F914F913F918C
:101420002F910F900FBE0F901F9018951F920F9243
:101430000FB60F9211242F933F934F935F936F93A7
:101440007F938F939F93AF93BF93EF93FF930E94EC
:10145000CC09FF91EF91BF91AF919F918F917F91B7
:101460006F915F914F913F912F910F900FBE0F9011
:101470001F9018956FEF7FEF81E090E00E94A30925
:1014800008956FEF7FEF80E090E00E94A309089538
:10149000E82FF92F80E094E2A4EFB0E086839783F1
:1014A000A087B18780839183A283B383158214823E
:1014B00016861786108A118A82898E7F828B148AFB
:1014C000138A0895262F372F019709F008952F3F8B
:1014D0003F4FE1F786EC91E00E94480AF7CFCF93A7
:1014E000DF9300D000D0CDB7DEB7FC012681378175
:1014F0004085518529833A834B835C83CA01B901B6
:101500000F900F900F900F90DF91CF910895CF9390
:10151000DF9300D000D0CDB7DEB7E82FF92F82855A
:101520009385A485B58589839A83AB83BC83BC01ED
:10153000CD010F900F900F900F90DF91CF910895F4
:101540006FEF7FEF81E090E00E94620A08956FEFF5
:101550007FEF80E090E00E94620A089591E090930E
:10156000DB0195B3926095BB16BC9BB19B7F9BB989
:10157000EEE6F0E09081926090839091DB01911112
:10158000FCCFEEE6F0E090819D7F908391E0909318
:10159000DB0120E00EC000009091DB019111FBCF38
:1015A000EEE6F0E090819D7F908391E09093DB01E7
:1015B0002F5F283050F5482F50E0022E02C055957D
:1015C00047950A94E2F740FF09C09BB194609BB92C
:1015D000EEE6F0E0908192609083DECF9BB19B7F3E
:1015E0009BB9EEE6F0E090819260908301C000002C
:1015F0009091DB019111FBCFEEE6F0E090819D7FB1
:10160000908391E09093DB01D3CF8BB184608BB951
:10161000EEE6F0E08081826080838091DB018111C1
:10162000FCCFEEE6F0E080818D7F80830895482F27
:10163000592F20E030E008C08091C00085FFFCCF2A
:101640009093C6002F5F3F4FFA01E20FF31F908186
:101650009111F2CF88E291E09F938F930E941F0C2B
:101660000F900F900895CDB7DEB7CA59D1090FB6C4
:10167000F894DEBF0FBECDBF01E820E040E051EEA0
:1016800060E070E0CE0101960E94770963E0CE0130
:1016900001960E94610820E030E0A901BE016F5F61
:1016A0007F4FCE010D960E947600E4E6F1E08AEAD3
:1016B00091E0958384839383828391838083E1EC9B
:1016C000F0E0808180618083808188608083CE01AA
:1016D00001960E9460078BE0E0E5F1E0DE01AD5B82
:1016E000BF4F01900D928A95E1F781E08093DB0175
:1016F00078948FEF8AB98BB184608BB9CE01825B0D
:101700009F4F0E94630262E0CE01825B9F4F0E9466
:101710007A0262E0CE01825B9F4F0E94950280EDCB
:1017200087BD2FEF83ED90E3215080409040E1F79B
:1017300000C0000088E0EBE5F1E0DE01AD5ABF4FEC
:1017400001900D928A95E1F78AE391E00E94170BD0
:10175000CE01855A9F4F0E94170B6C961FAE6C9757
:101760008AE00E94AE0A2FEF89E698E1215080407E
:101770009040E1F700C00000E7CF1092DB01089530
:10178000A1E21A2EAA1BBB1BFD010DC0AA1FBB1F85
:10179000EE1FFF1FA217B307E407F50720F0A21BF7
:1017A000B30BE40BF50B661F771F881F991F1A9464
:1017B00069F760957095809590959B01AC01BD018E
:1017C000CF010895EE0FFF1F0590F491E02D0994CD
:1017D000A29FB001B39FC001A39F700D811D112472
:1017E000911DB29F700D811D1124911D08950E94BD
:1017F000E80BA59F900DB49F900DA49F800D911DA7
:101800001124089597FD1094002E083098F0085088
:10181000232F342F452F562F672F782F892F912D67
:10182000F4CF159497958795779567955795479534
:10183000379527950A95AAF71124002D0895A0E061
:10184000B0E0E5E2FCE00C94EA0EAE014B5F5F4FC6
:10185000FA0161917191AF018091660190916701E8
:101860000E94350CE2E00C94060FAFE0B0E0EBE331
:10187000FCE00C94DD0E6C017B018A01DC01179603
:101880001C921E92169713968C9181FFECC12AE050
:10189000522EF6019381F70193FD859193FF81917B
:1018A0007F01882309F473C0853239F493FD859153
:1018B00093FF81917F01853229F4B60190E00E9467
:1018C0004C0EE7CF912C612C712CFFE1F71508F439
:1018D00046C08B32C9F1F8F48032C1F1833209F489
:1018E0003BC0833609F48AC0833709F493C083353B
:1018F00009F0B6C0F801A190B1908F01692D70E098
:1019000076FC02C06FEF7FEFC5010E94360E4C01DE
:10191000689477F85FC08D32E1F0803351F020EDAC
:10192000280F2A3048F18E3209F039C0689476F8D1
:1019300002C0689470F8F70193FD859193FF81913F
:101940007F018111C2CF33C0689471F8689472F836
:10195000F2CF689473F8EFCF689474F8ECCF77FC0B
:1019600026C020ED280F2A3070F476FE05C0959C25
:10197000200D1124922EDFCF659C200D1124622EA4
:10198000689475F8D8CF8E3251F476FECFCFD60159
:1019900016968D919C912F96EFE00C94F90E8C3653
:1019A00019F4689477F8C7CF883609F4C4CF982F14
:1019B0009F7D9554933008F094CF0C5F1F4F8FE3B9
:1019C000898388248394912CAE014F5F5F4F5A0125
:1019D000E89477F873FC05C0862D90E08816990688
:1019E00040F18114910461F5662009F452CFB601EB
:1019F00080E290E00E944C0E6A94F6CFD8018C9160
:101A000089830E5F1F4F88248394912CFE013196A9
:101A10005F01DECFD801AD90BD908D01692D70E0E2
:101A200076FC02C06FEF7FEFC5010E94410E4C01B2
:101A3000CFCFB60180E290E00E944C0E6A94CCCFEA
:101A4000F50177FC859177FE81915F01B60190E009
:101A50000E944C0E61106A94F1E08F1A9108C1CF78
:101A6000843619F0893609F081C0F80177FE77C015
:101A700061917191819191918F01272D2F76822E05
:101A800097FF09C090958095709561957F4F8F4F16
:101A90009F4F689487F82AE030E0AE014F5F5F4FB8
:101AA0005A010E947C0E8A19A82EBA2C782C86FE28
:101AB0000CC0E89470F8A91440F484FE05C082FCC0
:101AC00003C0782D7E7E772EB92C74FEA5C0FE0152
:101AD000EA0DF11D8081803309F097C0872D897E42
:101AE000782E73FC0EC070FEA6C09A2CB61418F4A3
:101AF000960C9B18B62C862D8B196B1408F480E07D
:101B0000B80EB61408F099C06B1874FE98C0B601F0
:101B100080E390E00E944C0E72FE09C088E590E0E0
:101B200071FC02C088E790E0B6010E944C0EA91437
:101B300008F492C0AA94B12C9FEFA91AB90ADE0149
:101B400011964D01AA0EBB1EF50182915F01B601EF
:101B500090E00E944C0E8A149B04B1F745CF61912E
:101B60007191072E000C880B990B86CF872CE89477
:101B700084F82AE030E0853769F0572D597F852EAB
:101B8000803771F118F5883571F18F3609F0FFCE85
:101B900028E030E0F80187FE2EC081919191A1915B
:101BA000B1918C879D87AE87BF878F01BE016F5F24
:101BB0007F4F5B01AB016C857D858E859F850E9483
:101BC0007C0E8A19A82EE89487F86FCF883709F021
:101BD000DECE84FE02C0689482F820E130E0DACFE5
:101BE000689484F8F6CF74FE03C0652F6660862E75
:101BF00020E132E0CFCF81919191AC0160E070E0C3
:101C00004C875D876E877F87D0CF72FC02C0B3940C
:101C100068CFB394B39465CF872D8678882309F471
:101C200060CFF5CFB60180E290E00E944C0E839425
:101C30008614C0F360CF8B2CFBCF612C66CF872D31
:101C40008678882309F473CF8BE271FE80E277FCFB
:101C50008DE2B60190E069CFB60180E390E00E948A
:101C60004C0E9A9464CF8FEF9FEF95CEFC010590B8
:101C7000615070400110D8F7809590958E0F9F1F8E
:101C80000895FC016150704001900110D8F78095D3
:101C900090958E0F9F1F08950F931F93CF93DF93FF
:101CA000182F092FEB018B8181FD09C01FEF0FEF6A
:101CB000812F902FDF91CF911F910F91089582FF77
:101CC00014C02E813F818C819D81281739073CF4F7
:101CD000E881F981CF0101969983888310838E81F1
:101CE0009F8101969F838E83E3CFE885F985812FBD
:101CF0000995892BA1F3DACFFA01AA27283051F1EF
:101D0000203181F1E8946F936E7F6E5F7F4F8F4F2C
:101D10009F4FAF4FB1E03ED0B4E03CD0670F781F8B
:101D2000891F9A1FA11D680F791F8A1F911DA11D70
:101D30006A0F711D811D911DA11D20D009F46894A9
:101D40003F912AE0269F11243019305D3193DEF651
:101D5000CF010895462F4770405D4193B3E00FD007
:101D6000C9F7F6CF462F4F70405D4A3318F0495DF2
:101D700031FD4052419302D0A9F7EACFB4E0A695D5
:101D80009795879577956795BA95C9F700976105F7
:101D9000710508959B01AC010A2E0694579547954D
:101DA00037952795BA95C9F7620F731F841F951F42
:101DB000A01D08952F923F924F925F926F927F9253
:101DC0008F929F92AF92BF92CF92DF92EF92FF924B
:101DD0000F931F93CF93DF93CDB7DEB7CA1BDB0BF7
:101DE0000FB6F894DEBF0FBECDBF09942A8839889C
:101DF00048885F846E847D848C849B84AA84B984A3
:101E0000C884DF80EE80FD800C811B81AA81B981AE
:101E1000CE0FD11D0FB6F894DEBF0FBECDBFED01C2
:101E2000089510E0C0E4D0E004C0FE010E94E20B7F
:101E30002196CC34D107C9F7F894FFCFF007C50736
:101E4000CA07CD07D407DB07E207E9071009100925
:101E500008090809100910090809080910091009DA
:101E600008090809080908090809080910091009DA
:101E700008090809100910090809080910091009BA
:101E800008090809080908090809080910091009BA
:101E9000080908091009100908090809100910099A
:101EA000080908090809080908090809100910099A
:101EB000080908091009100908090809100910097A
:101EC000080908090809080908090809100910097A
:101ED000080908091009100908090809100910095A
:101EE000000000006904700477047E0485048C04FB
:101EF00093049604000000005306700477047F06E4
:101F00009A048C04C004C30466696D20646520755E
:101F10007361727473656E6420004F6C612C206D68
:101F2000616E64616E646F20636F6973617320001A
:101F300071776572747975696F7000796579206D54
:041F4000616E0000CE
:00000001FF
