:100000000C944C000C9441030C948A030C94D3037D
:100010000C941C040C9465040C9474000C9423063A
:100020000C9447060C946B060C94B3050C946B056A
:100030000C948F050C94D7050C94D6040C94FA04F8
:100040000C941E050C9474000C944E0B0C94960B9F
:100050000C94720B0C94F8020C9474000C947400C1
:100060000C9460090C9474001C036503AE03F70341
:10007000400489044205FB058F068609BA0B080C6B
:1000800023036C03B503FE034704900449050206ED
:1000900096068D09C10B0F0C11241FBECFEFD8E0BF
:1000A000DEBFCDBF12E0A0E0B1E0EAE4F1E202C0C1
:1000B00005900D92A032B107D9F722E0A0E2B2E09C
:1000C00001C01D92A839B207E1F710E0C0E4D0E00A
:1000D00004C02197FE010E944D0DC433D107C9F71A
:1000E0000E94E70C0C944E100C940000A82FB92F1E
:1000F000842F952FE22F732F21E03FEE11963C9332
:100100002E9316966C93169718969C938E9317972A
:100110004FEF12964C93129713964C931397149695
:100120004C93149715964C9315978034910538F499
:10013000AC016E2FCD0109960E94530D08951996BA
:1001400080E4F72F01900D928A95E1F708950F93BF
:100150001F93E82FF92F178216821186108600E46C
:1001600010E013870287158614868FEF9FEFDC015E
:1001700086879787A08BB18B138B028B00E011EEE3
:10018000158B048B268B378B408F518F828F938FEB
:10019000A48FB58F62AB73AB64AB75AB1F910F913E
:1001A0000895AF92BF92CF92DF92EF92FF920F939A
:1001B0001F93CF93C82ED92E062F172FF8016181D8
:1001C00070E0F60184A995A90E94E90AF80160810E
:1001D00071817727F60184A995A90E94E90AF8019F
:1001E000628170E0F60184A995A90E94E90AF801EC
:1001F000638170E0F60184A995A90E94E90AF801DB
:10020000648170E0F60184A995A90E94E90AF801C9
:10021000658170E0F60184A995A90E94E90AF801B8
:10022000668170E0F60184A995A90E94E90AF801A7
:10023000A780B084F2E0AF0EB11CEB2CFF24B70115
:10024000F60184A995A90E94E90ABB24B501F6012B
:1002500084A995A90E94E90AEA0CFB1CF801868191
:10026000E80EF11CC0E010C05801AC0EB11CF50145
:10027000618570E0F60184A995A90E94E90AF5015B
:100280008185E80EF11CCF5F8C2F90E0F80127816B
:1002900030858217930740F36F2D70E0F60184A933
:1002A00095A90E94E90AB7017727F60184A995A9C3
:1002B0000E94E90ACF911F910F91FF90EF90DF907C
:1002C000CF90BF90AF900895CF92DF92EF92FF92C0
:1002D0000F931F93CF93DF930F92CDB7DEB7C82E46
:1002E000D92EE62EF72E00E010E034C0C80131C050
:1002F0000115110509F04FC089818F3EB9F7F7014B
:10030000108281831FC00730110509F43FC00830F7
:10031000110509F040C0F701878190852981822B62
:10032000908787830FC0F701808191812981822B7B
:100330009183808381309F4E29F08EEF3DC089816B
:10034000F7018683C8010196065F1F4F003411052F
:1003500090F58C01BE016F5F7F4FF60184A995A9CE
:100360000E94120B0630110551F368F60130110599
:10037000D1F208F4BDCFC8010297049760F4F801E8
:100380003297EE0DFF1D89818283DCCF8981F701D1
:1003900017828087D7CFF8013997EE0DFF1D89812D
:1003A0008187F70127813085C80108978217930755
:1003B00049F680E001C08EEF0F90DF91CF911F9141
:1003C0000F91FF90EF90DF90CF9008950F931F93C0
:1003D000CF93DF93CDB7DEB7CA54D1090FB6F894E7
:1003E000DEBF0FBECDBF082F192F81E089839E018C
:1003F0002F5F3F4F41E050E061E0CE0102960E9446
:100400007600BE016E5F7F4F802F912F0E94D1003A
:1004100048EE53E0BE016E5F7F4F802F912F0E9408
:100420006401811105C08885873079F48B8501C00E
:1004300081E0C65BDF4F0FB6F894DEBF0FBECDBFC5
:10044000DF91CF911F910F91089581E0F2CF0F932B
:100450001F93CF93DF93CDB7DEB7CB54D1090FB63F
:10046000F894DEBF0FBECDBF082F192F1A82198254
:1004700082E089836A839E012F5F3F4F42E050E014
:1004800061E0CE0103960E947600BE016D5F7F4F52
:10049000802F912F0E94D10048EE53E0BE016D5F86
:1004A0007F4F802F912F0E946401811105C08985A3
:1004B000873079F48C8501C081E0C55BDF4F0FB6D2
:1004C000F894DEBF0FBECDBFDF91CF911F910F918A
:1004D000089581E0F2CF0F931F93CF93DF93CDB7B1
:1004E000DEB7CF54D1090FB6F894DEBF0FBECDBF33
:1004F000082F192F9E012F5F3F4F86E0F9011192BF
:100500008A95E9F784E089836A83F8018285938577
:100510009D838E8346E050E061E0CE0107960E9405
:100520007600BE01695F7F4FC8010E94D10048EE8E
:1005300053E0BE01695F7F4FC8010E9464018111D1
:1005400024C08D85873071F58FEF9FEFF80191837F
:10055000808393838283898990E091838083982F1D
:100560008827918380832A89822B918380838B893A
:1005700090E093838283982F8827938382832C89AA
:10058000822B93838283888901C081E0C15BDF4F26
:100590000FB6F894DEBF0FBECDBFDF91CF911F9194
:1005A0000F91089581E0F2CFE82FF92F1582808511
:1005B0008E7F808780818E7F80838D7F80838B7FFD
:1005C00080838FE090E09783868313821482128267
:1005D00011820895262F372F019709F008952F3F94
:1005E0003F4FE1F786E292E00E94D402F7CF0895F0
:1005F0001F920F920FB60F9211242F933F934F9398
:100600005F936F937F938F939F93AF93BF93EF937A
:10061000FF930E94F702FF91EF91BF91AF919F91DD
:100620008F917F916F915F914F913F912F910F909B
:100630000FBE0F901F9018956FEF7FEF81E090E055
:100640000E94EA0208956FEF7FEF80E090E00E9441
:10065000EA020895E82FF92F118280818E7F80832E
:10066000138212820895262F372F019709F00895DB
:100670002F3F3F4FE1F78FE292E00E942A03F7CF2E
:1006800008951F920F920FB60F9211242F933F934C
:100690004F935F936F937F938F939F93AF93BF938A
:1006A000EF93FF930E944003FF91EF91BF91AF91B1
:1006B0009F918F917F916F915F914F913F912F917A
:1006C0000F900FBE0F901F9018956FEF7FEF81E096
:1006D00090E00E94330308956FEF7FEF80E090E099
:1006E0000E9433030895E82FF92F118280818E7FB5
:1006F0008083138212820895262F372F019709F0E5
:1007000008952F3F3F4FE1F783E392E00E94730388
:10071000F7CF08951F920F920FB60F9211242F93C7
:100720003F934F935F936F937F938F939F93AF9379
:10073000BF93EF93FF930E948903FF91EF91BF91C5
:10074000AF919F918F917F916F915F914F913F9169
:100750002F910F900FBE0F901F9018956FEF7FEFA6
:1007600081E090E00E947C0308956FEF7FEF80E0CE
:1007700090E00E947C030895E82FF92F1182808178
:100780008E7F8083138212820895262F372F019740
:1007900009F008952F3F3F4FE1F787E392E00E9471
:1007A000BC03F7CF08951F920F920FB60F9211243A
:1007B0002F933F934F935F936F937F938F939F9369
:1007C000AF93BF93EF93FF930E94D203FF91EF91FA
:1007D000BF91AF919F918F917F916F915F914F9159
:1007E0003F912F910F900FBE0F901F9018956FEFB4
:1007F0007FEF81E090E00E94C50308956FEF7FEFE7
:1008000080E090E00E94C5030895E82FF92F11823F
:1008100080818E7F8083138212820895262F372F46
:10082000019709F008952F3F3F4FE1F78BE392E0E6
:100830000E940504F7CF08951F920F920FB60F92F2
:1008400011242F933F934F935F936F937F938F93D5
:100850009F93AF93BF93EF93FF930E941B04FF916D
:10086000EF91BF91AF919F918F917F916F915F9128
:100870004F913F912F910F900FBE0F901F901895A1
:100880006FEF7FEF81E090E00E940E0408956FEF1C
:100890007FEF80E090E00E940E040895E82FF92F8A
:1008A000118280818E7F8083138212820895262F89
:1008B000372F019709F008952F3F3F4FE1F78FE35E
:1008C00092E00E944E04F7CF08951F920F920FB648
:1008D0000F9211242F933F934F935F936F937F93C6
:1008E0008F939F93AF93BF93EF93FF930E94640402
:1008F000FF91EF91BF91AF919F918F917F916F91F8
:100900005F914F913F912F910F900FBE0F901F90CD
:1009100018956FEF7FEF81E090E00E9457040895F3
:100920006FEF7FEF80E090E00E9457040895E82F7A
:10093000F92F1182128280818E7F8083148213822C
:100940000895262F372F019709F008952F3F3F4F25
:10095000E1F783E492E00E949704F7CFE82FF92FA4
:1009600084B535B58C7F377F262F2370282B862FB3
:100970008695869590E0880F991F880F991F880F9C
:10098000991F832B24BD85BD62831482138281E06D
:100990000895E82FF92F85B5887F862B85BD618363
:1009A0001482138281E00895089508951F920F9292
:1009B0000FB60F9211242F933F934F935F936F9332
:1009C0007F938F939F93AF93BF93EF93FF930E9477
:1009D0004A0DFF91EF91BF91AF919F918F917F91C0
:1009E0006F915F914F913F912F910F900FBE0F909C
:1009F0001F9018951F920F920FB60F9211242F93EC
:100A00003F934F935F936F937F938F939F93AF9396
:100A1000BF93EF93FF930E94D404FF91EF91BF9196
:100A2000AF919F918F917F916F915F914F913F9186
:100A30002F910F900FBE0F901F9018951F920F923D
:100A40000FB60F9211242F933F934F935F936F93A1
:100A50007F938F939F93AF93BF93EF93FF930E94E6
:100A6000D504FF91EF91BF91AF919F918F917F91AD
:100A70006F915F914F913F912F910F900FBE0F900B
:100A80001F9018956FEF7FEF81E090E00E94A10426
:100A900008956FEF7FEF80E090E00E94A104089539
:100AA000E82FF92F1182128280818E7F8083148239
:100AB00013820895262F372F019709F008952F3FAD
:100AC0003F4FE1F788E492E00E945005F7CF089588
:100AD0000895089508951F920F920FB60F92112452
:100AE0002F933F934F935F936F937F938F939F9336
:100AF000AF93BF93EF93FF930E946705FF91EF9130
:100B0000BF91AF919F918F917F916F915F914F9125
:100B10003F912F910F900FBE0F901F9018951F922D
:100B20000F920FB60F9211242F933F934F935F9321
:100B30006F937F938F939F93AF93BF93EF93FF93A5
:100B40000E946805FF91EF91BF91AF919F918F91A6
:100B50007F916F915F914F913F912F910F900FBEB9
:100B60000F901F9018951F920F920FB60F9211249D
:100B70002F933F934F935F936F937F938F939F93A5
:100B8000AF93BF93EF93FF930E946905FF91EF919D
:100B9000BF91AF919F918F917F916F915F914F9195
:100BA0003F912F910F900FBE0F901F9018951F929D
:100BB0000F920FB60F9211242F933F934F935F9391
:100BC0006F937F938F939F93AF93BF93EF93FF9315
:100BD0000E946A05FF91EF91BF91AF919F918F9114
:100BE0007F916F915F914F913F912F910F900FBE29
:100BF0000F901F9018956FEF7FEF81E090E00E94BB
:100C00005A0508956FEF7FEF80E090E00E945A054B
:100C10000895E82FF92F1182128280818E7F8083C0
:100C2000148213820895262F372F019709F0089513
:100C30002F3F3F4FE1F78DE492E00E940906F7CF86
:100C40000895089508951F920F920FB60F921124E0
:100C50002F933F934F935F936F937F938F939F93C4
:100C6000AF93BF93EF93FF930E942006FF91EF9104
:100C7000BF91AF919F918F917F916F915F914F91B4
:100C80003F912F910F900FBE0F901F9018951F92BC
:100C90000F920FB60F9211242F933F934F935F93B0
:100CA0006F937F938F939F93AF93BF93EF93FF9334
:100CB0000E942106FF91EF91BF91AF919F918F917B
:100CC0007F916F915F914F913F912F910F900FBE48
:100CD0000F901F9018951F920F920FB60F9211242C
:100CE0002F933F934F935F936F937F938F939F9334
:100CF000AF93BF93EF93FF930E942206FF91EF9172
:100D0000BF91AF919F918F917F916F915F914F9123
:100D10003F912F910F900FBE0F901F9018956FEF7E
:100D20007FEF81E090E00E94130608956FEF7FEF60
:100D300080E090E00E941306089527E030E0FC0177
:100D40003383228380E0089527E030E0FC01338381
:100D5000228380E0089527E030E0FC013383228382
:100D600080E0089527E030E0FC013383228380E0B7
:100D7000089527E030E0FC013383228380E008956A
:100D800027E030E0FC013383228380E0089580E097
:100D900090E00895FC01828193810895E82FF92F56
:100DA0009B013370862F8295880F807E95859F7179
:100DB000892B85876695669566958685807E682BE6
:100DC0006687832F83708295880F807E6F79862B4C
:100DD0008687868140FB80F9868384818160848355
:100DE0001086178281E0089585E090E00895FC0167
:100DF000878190850895E82FF92F84E091E0918311
:100E0000808388E191E091838083128A118A8385AF
:100E10008078838713868485807C84871486858583
:100E2000807E858784818D7F84838B7F848384E12A
:100E300090E0908B878710861782089528E131E033
:100E4000FC013183208308950F931F93CF93DF9389
:100E5000C82FD92F062F172FC130D10551F0CD2B18
:100E600019F40F3F1F4F69F0DF91CF911F910F9140
:100E700008950F3F100799F783E592E00E94FB0663
:100E8000EECF83E592E00E941E07EECFCF92DF9275
:100E9000EF92FF92CF93DF9300D000D000D0CDB778
:100EA000DEB78D839E83AD81BE811F968D919C910F
:100EB000892BD9F4CC24CA94DC2C760182E892E008
:100EC0000E94EF0B69837A838B839C83C616D706B7
:100ED000E806F906F8F08091BC0080FDEFCFED81C7
:100EE000FE811086178281E01EC082E892E00E9497
:100EF000EF0B69837A838B839C83ED81FE818785E9
:100F00009089C980DA80EB80FC80C80ED91EE11C74
:100F1000F11CD4CF83E490E0AD81BE8118969C9300
:100F20008E93179780E00F900F900F900F900F9077
:100F30000F90DF91CF91FF90EF90DF90CF900895C9
:100F4000E82FF92F84818B7F848388EF90E092874C
:100F5000818785EA8093BC001086178281E008951E
:100F60000F931F93CF93DF93C82FD92F062F172FDF
:100F70008C8182FB882780F9882311F090E011C0D2
:100F800020E430E038872F8310C0E989FA89292FBF
:100F900030E0D801A20FB31FE20FF31F21812C9381
:100FA0009F5F941790F318861F82DF91CF911F9156
:100FB0000F910895AF92BF92CF92DF92EF92FF927E
:100FC0000F931F93CF93DF93C82FD92FA62EF42E04
:100FD000B22EC02ED12E1C81169511701123B9F09E
:100FE000EE2019F0C114D10411F1CE010E94460780
:100FF000182F882381F0F11046C0E989FA896A2DFB
:10100000660F6083E989FA89B18290E025C084E0A7
:1010100090E098878F83812FDF91CF911F910F915F
:10102000FF90EF90DF90CF90BF90AF90089581E157
:1010300090E098878F8310E0EECF292F30E0E98988
:10104000FA89A9014E5F5F4FE40FF51F2C0D3D1D7E
:10105000D9018C9180839F5F9E1578F392E09E0D5D
:10106000E794EE24E7948B858F77E82AEB869695B4
:101070009F738C85807C892B8C87CE010E94A00772
:1010800018861F82C8CFE989FA898A2D880F808344
:10109000E989FA89B1828B858F778B878C85807CF3
:1010A00081608C87CE010E94A007CE010E94460776
:1010B000811102C0182FAFCF6A2D70E0660F771F25
:1010C000E989FA896160608381E08E0D982F979598
:1010D000992797952B852F77922B9B8786958F73D2
:1010E0009C85907C892B8C87CE010E94A007CE0125
:1010F0000E944607811102C0182F8DCF4E2DB601D8
:10110000CE010E94B0078111BBCF182F84CFEF9280
:101110000F931F93CF93DF93C82FD92F962F8C81D6
:10112000817081110AC021E430E038872F83DF917C
:10113000CF911F910F91EF9008958D85829586959F
:1011400087706E85660F660F660F682BE22E042F80
:10115000152F292F41E0CE010E94DA07882339F3A9
:1011600018861F82E4CFEF920F931F93CF93DF93E4
:10117000C82FD92F962F8C81817081110AC021E44C
:1011800030E038872F83DF91CF911F910F91EF903F
:1011900008958D858295869587706E85660F660F9A
:1011A000660F682BE22E042F152F292F40E0CE0169
:1011B0000E94DA07882339F318861F82E4CFE82FCC
:1011C000F92F8091B9008C7F883309F46EC0A8F0A4
:1011D000803509F458C08835C9F5A189B289809154
:1011E0005202A80FB11D8091BB008C938481846052
:1011F000848384E98093BC000895883121F0F8F05D
:10120000883209F056C09385991F9927991F8485C4
:101210008F73880F892B90915202981768F5018877
:10122000F289E02D81E0890F80935202E90FF11DD0
:1012300080818093BB0085E88093BC00089588304E
:1012400011F08031B1F510925202DDCF803489F572
:101250002091520230E09385991F9927991F848528
:101260008F73880F892B8150990B28173907CCF47D
:1012700085EC8093BC00089584818460848384E934
:101280008093BC0008959091BB00A189B2898091A0
:10129000520221E0280F20935202A80FB11D9C9307
:1012A000D7CF85E88093BC00089585EA8093BC0081
:1012B00008958091B900858384E08093BC000895EF
:1012C0001F920F920FB60F9211242F933F934F93BB
:1012D0005F936F937F938F939F93AF93BF93EF939E
:1012E000FF9383E592E00E94DF08FF91EF91BF91A9
:1012F000AF919F918F917F916F915F914F913F91AE
:101300002F910F900FBE0F901F9018956FEF7FEFEA
:1013100081E090E00E94240708956FEF7FEF80E066
:1013200090E00E9424070895E82FF92F8081877F9D
:101330008083683030F086EB90E09383828380E096
:10134000089565831382128281E00895E82FF92FB2
:10135000842F952FA62FB72F2081277F20838038B9
:1013600020E79207A105B10519F108F041C0803CC2
:1013700022E19207A105B105D9F010F5883027E0E8
:101380009207A105B105A1F038F0803629E0920757
:10139000A105B10539F50CC0883522E09207A105F9
:1013A000B10531F0803B24E09207A105B105D1F4ED
:1013B00086839783A087B1871382128281E0089584
:1013C000803428E39207A105B10591F381152BE440
:1013D0009207A105B10561F3803825E29207A105C6
:1013E000B10531F380EB90E09383828380E0089530
:1013F000811522EC920721E0A207B105C9F2B0F0F5
:10140000811524E8920723E0A207B10589F281152E
:1014100028EE920723E0A207B10551F2811524EFCF
:10142000920721E0A207B105E9F6C2CF803C2AED80
:101430009207A105B10509F4BBCF811521EE9207F2
:10144000A105B10509F4B4CF811526E99207A105DC
:10145000B10541F6ADCFA82FB92F8C91877F8C9322
:10146000EFEAE60FEA3428F4F0E0E55AFF4E0C9478
:101470004D0D83EB90E013969C938E93129780E032
:101480000895862F8370813051F08230E9F08FEF1C
:101490009FEF13969C938E93129780E008951B966E
:1014A0001C921B97862F869586958370813011F14B
:1014B000823029F1882369F08FEF9FEF13969C9378
:1014C0008E93129780E0089581E01B968C931B9772
:1014D000E9CF1A961C921A9762956F70673031F1B6
:1014E00098F0683041F1693059F587E014968C9393
:1014F000149716C081E01A968C931A97EDCF82E06C
:101500001A968C931A97E8CF653039F06630C1F49B
:1015100081E014968C93149703C014961C92149730
:1015200013961C921E92129781E0089582E0149601
:101530008C931497F5CF83E014968C931497F0CF87
:101540008FEF9FEF13969C938E93129780E00895F0
:101550000F931F93CF93DF93C82FD92F122FCE0154
:101560000E94A609811105C0DF91CF911F910F91B3
:101570000895612FCE010E9494098823A9F3602F5A
:10158000CE010E942B0A882379F3E6E6F2E081E49B
:101590009BE0918780871386128682E0838315867D
:1015A00014861B821A82E0CF0F93262F372F0197C4
:1015B00011F00F9108952F3F3F4FD9F701E820E038
:1015C00040E855E260E070E084E792E00E94A80AFB
:1015D000F0CFE82FF92F262F372F808183FB882724
:1015E00080F9882361F09091C00095FFFCCF948131
:1015F000973051F02093C60013821282089524E0A0
:1016000030E033832283089530FF06C0A1ECB0E0C0
:101610009C9191609C93EECFA1ECB0E09C919E7F59
:101620009C93E8CFE82FF92FA62FB72F808183FB5B
:10163000882780F98823B9F09091C0009923E4F7B6
:101640002091C000908123FB90F9908324FB91F9B5
:10165000908322FB92F990831C929091C6009C93F8
:1016600013821282089524E030E0338322830895A8
:101670008091C00085FFFCCF6093C60080E090E0C1
:101680000895462F572F682F8091800290918102F4
:101690000E94380B08950895089508951F920F929F
:1016A0000FB60F9211242F933F934F935F936F9335
:1016B0007F938F939F93AF93BF93EF93FF930E947A
:1016C0004B0BFF91EF91BF91AF919F918F917F91C4
:1016D0006F915F914F913F912F910F900FBE0F909F
:1016E0001F9018951F920F920FB60F9211242F93EF
:1016F0003F934F935F936F937F938F939F93AF939A
:10170000BF93EF93FF930E944D0BFF91EF91BF9119
:10171000AF919F918F917F916F915F914F913F9189
:101720002F910F900FBE0F901F9018951F920F9240
:101730000FB60F9211242F933F934F935F936F93A4
:101740007F938F939F93AF93BF93EF93FF930E94E9
:101750004C0BFF91EF91BF91AF919F918F917F9132
:101760006F915F914F913F912F910F900FBE0F900E
:101770001F9018956FEF7FEF81E090E00E94D40AF0
:1017800008956FEF7FEF80E090E00E94D40A089503
:10179000E82FF92F80E094E2A4EFB0E086839783EE
:1017A000A087B18780839183A283B383158214823B
:1017B00016861786108A118A82898E7F828B148AF8
:1017C000138A0895262F372F019709F008952F3F88
:1017D0003F4FE1F782E892E00E94C80BF7CFCF932A
:1017E000DF9300D000D0CDB7DEB7E82FF92F828588
:1017F0009385A485B58589839A83AB83BC83BC011B
:10180000CD010F900F900F900F90DF91CF91089521
:101810006FEF7FEF81E090E00E94E20B08956FEFA1
:101820007FEF80E090E00E94E20B08950F931F93FA
:10183000CF93082F192FC8010E94E601C82F8230CC
:1018400009F449C070F48823C1F0813009F050C018
:1018500087E491E09F938F930E945C0D0F900F900F
:1018600042C0833009F044C08BE591E09F938F9391
:101870000E945C0D0F900F9036C088E291E09F931C
:101880008F930E945C0D61E0C8010E942702C82F5F
:101890000F900F90863009F452C078F0873009F429
:1018A00057C0853109F05DC087E991E09F938F9320
:1018B0000E945C0D0F900F9016C0882311F18130AB
:1018C00009F04FC087E491E09F938F930E945C0DD5
:1018D0000F900F9008C084E391E09F938F930E9434
:1018E0005C0D0F900F908C2FCF911F910F91089549
:1018F00089E691E09F938F930E945C0D0F900F906B
:10190000F2CF87E791E09F938F930E945C0D61E097
:10191000C8010E946B02C82F0F900F90882351F1CD
:10192000813009F442C0893009F448C089E691E069
:101930009F938F930E945C0D0F900F90D4CF87E8F8
:1019400091E09F938F930E945C0D0F900F90CBCFEF
:1019500087E991E09F938F930E945C0D0F900F9009
:10196000C2CF89E691E09F938F930E945C0D0F9008
:101970000F90B9CF8BEB91E09F938F930E945C0DFA
:1019800080ED91E09F938F930E945C0D8BED91E031
:101990009F938F930E945C0DF801C0810F900F9070
:1019A0000F900F900F900F909ECF87E491E09F9340
:1019B0008F930E945C0D0F900F9095CF80EF91E078
:1019C0009F938F930E945C0D0F900F908CCFCDB79B
:1019D000DEB7C255D1090FB6F894DEBF0FBECDBF3A
:1019E00001E820E040E051EE60E070E0CE010196B9
:1019F0000E94A80A20E030E0A901BE016F5F7F4F7E
:101A0000CE010D960E94A700E0E2F2E086E692E0A9
:101A10009583848393838283918380838BE0E5E144
:101A2000F2E0DE01AD5BBF4F01900D928A95E1F7C8
:101A300081E08093970278948FEF8AB98BB18460AC
:101A40008BB9CE01825B9F4F0E94970462E0CE016A
:101A5000825B9F4F0E94AE0462E0CE01825B9F4F8B
:101A60000E94C90480ED87BD2FEF83ED90E32150E4
:101A700080409040E1F700C0000085E092E09F9335
:101A80008F930E945C0DCE010D960E94160C0F9054
:101A90000F90F3CF109297020895EE0FFF1F05905D
:101AA000F491E02D0994FB01DC0102C001900D923C
:101AB00041505040D8F70895A0E0B0E0E2E6FDE0E4
:101AC0000C942710AE014B5F5F4FFA016191719149
:101AD000AF0180912202909123020E94720DE2E0F8
:101AE0000C944310AFE0B0E0E8E7FDE00C941A106E
:101AF0006C017B018A01DC0117961C921E921697DD
:101B000013968C9181FFECC12AE0522EF60193814D
:101B1000F70193FD859193FF81917F01882309F45B
:101B200073C0853239F493FD859193FF81917F01D4
:101B3000853229F4B60190E00E94890FE7CF912CFD
:101B4000612C712CFFE1F71508F446C08B32C9F106
:101B5000F8F48032C1F1833209F43BC0833609F4D2
:101B60008AC0833709F493C0833509F0B6C0F80101
:101B7000A190B1908F01692D70E076FC02C06FEFEB
:101B80007FEFC5010E94730F4C01689477F85FC026
:101B90008D32E1F0803351F020ED280F2A3048F1EA
:101BA0008E3209F039C0689476F802C0689470F8F3
:101BB000F70193FD859193FF81917F018111C2CF40
:101BC00033C0689471F8689472F8F2CF689473F82F
:101BD000EFCF689474F8ECCF77FC26C020ED280F87
:101BE0002A3070F476FE05C0959C200D1124922EAB
:101BF000DFCF659C200D1124622E689475F8D8CF34
:101C00008E3251F476FECFCFD60116968D919C91EF
:101C10002F96EFE00C9436108C3619F4689477F810
:101C2000C7CF883609F4C4CF982F9F7D9554933041
:101C300008F094CF0C5F1F4F8FE38983882483942F
:101C4000912CAE014F5F5F4F5A01E89477F873FC17
:101C500005C0862D90E08816990640F18114910404
:101C600061F5662009F452CFB60180E290E00E944F
:101C7000890F6A94F6CFD8018C9189830E5F1F4F2C
:101C800088248394912CFE0131965F01DECFD80128
:101C9000AD90BD908D01692D70E076FC02C06FEFB4
:101CA0007FEFC5010E947E0F4C01CFCFB60180E2CD
:101CB00090E00E94890F6A94CCCFF50177FC859162
:101CC00077FE81915F01B60190E00E94890F61105B
:101CD0006A94F1E08F1A9108C1CF843619F08936E1
:101CE00009F081C0F80177FE77C06191719181910F
:101CF00091918F01272D2F76822E97FF09C0909505
:101D00008095709561957F4F8F4F9F4F689487F8AE
:101D10002AE030E0AE014F5F5F4F5A010E94B90FD9
:101D20008A19A82EBA2C782C86FE0CC0E89470F87C
:101D3000A91440F484FE05C082FC03C0782D7E7E89
:101D4000772EB92C74FEA5C0FE01EA0DF11D80812D
:101D5000803309F097C0872D897E782E73FC0EC0E2
:101D600070FEA6C09A2CB61418F4960C9B18B62CCC
:101D7000862D8B196B1408F480E0B80EB61408F0A9
:101D800099C06B1874FE98C0B60180E390E00E9481
:101D9000890F72FE09C088E590E071FC02C088E7F7
:101DA00090E0B6010E94890FA91408F492C0AA9489
:101DB000B12C9FEFA91AB90ADE0111964D01AA0EA6
:101DC000BB1EF50182915F01B60190E00E94890F70
:101DD0008A149B04B1F745CF61917191072E000CD5
:101DE000880B990B86CF872CE89484F82AE030E0A2
:101DF000853769F0572D597F852E803771F118F599
:101E0000883571F18F3609F0FFCE28E030E0F80117
:101E100087FE2EC081919191A191B1918C879D8770
:101E2000AE87BF878F01BE016F5F7F4F5B01AB0144
:101E30006C857D858E859F850E94B90F8A19A82E95
:101E4000E89487F86FCF883709F0DECE84FE02C0B1
:101E5000689482F820E130E0DACF689484F8F6CF15
:101E600074FE03C0652F6660862E20E132E0CFCF7E
:101E700081919191AC0160E070E04C875D876E8745
:101E80007F87D0CF72FC02C0B39468CFB394B39471
:101E900065CF872D8678882309F460CFF5CFB6010A
:101EA00080E290E00E94890F83948614C0F360CF93
:101EB0008B2CFBCF612C66CF872D8678882309F485
:101EC00073CF8BE271FE80E277FC8DE2B60190E089
:101ED00069CFB60180E390E00E94890F9A9464CFA5
:101EE0008FEF9FEF95CEFC0105906150704001107F
:101EF000D8F7809590958E0F9F1F0895FC01615033
:101F0000704001900110D8F7809590958E0F9F1F1B
:101F100008950F931F93CF93DF93182F092FEB0191
:101F20008B8181FD09C01FEF0FEF812F902FDF9173
:101F3000CF911F910F91089582FF14C02E813F8190
:101F40008C819D81281739073CF4E881F981CF0104
:101F500001969983888310838E819F8101969F8348
:101F60008E83E3CFE885F985812F0995892BA1F32D
:101F7000DACFFA01AA27283051F1203181F1E89413
:101F80006F936E7F6E5F7F4F8F4F9F4FAF4FB1E06C
:101F90003ED0B4E03CD0670F781F891F9A1FA11D67
:101FA000680F791F8A1F911DA11D6A0F711D811D68
:101FB000911DA11D20D009F468943F912AE0269F2D
:101FC00011243019305D3193DEF6CF010895462F8C
:101FD0004770405D4193B3E00FD0C9F7F6CF462F6D
:101FE0004F70405D4A3318F0495D31FD40524193D6
:101FF00002D0A9F7EACFB4E0A69597958795779593
:102000006795BA95C9F700976105710508959B0119
:10201000AC010A2E06945795479537952795BA95A2
:10202000C9F7620F731F841F951FA01D08952F927B
:102030003F924F925F926F927F928F929F92AF9258
:10204000BF92CF92DF92EF92FF920F931F93CF93A5
:10205000DF93CDB7DEB7CA1BDB0B0FB6F894DEBF3C
:102060000FBECDBF09942A88398848885F846E8462
:102070007D848C849B84AA84B984C884DF80EE80AC
:10208000FD800C811B81AA81B981CE0FD11D0FB6B5
:10209000F894DEBF0FBECDBFED01089510E0C0E49F
:1020A000D0E004C0FE010E944D0D2196CC34D10732
:1020B000C9F7F894FFCF410A410A390A390A410A9F
:1020C000410A390A390A410A410A390A390A390AE0
:1020D000390A390A390A410A410A390A390A410AD0
:1020E000410A390A390A410A410A390A390A390AC0
:1020F000390A390A390A410A410A390A390A410AB0
:10210000410A390A390A410A410A390A390A390A9F
:10211000390A390A390A410A410A390A390A410A8F
:10212000410A390A390A410A410A390A390A390A7F
:10213000390A390A390A410A410A390A390A410A6F
:0A214000410A390A390A410A410A2E
:10214A00000000009D06A406AB06B206B906C0064A
:10215A00C706CA06000000008708A406AB06B30833
:10216A00CE06C006F406F706496D616765207461FC
:10217A006B656E004E6F2066696E676572206465D6
:10218A0074656374656400436F6D6D756E69636130
:10219A0074696F6E206572726F7200496D6167694A
:1021AA006E67206572726F7200556E6B6E6F776E16
:1021BA00206572726F7200496D61676520636F6E88
:1021CA0076657274656400496D61676520746F6F26
:1021DA00206D6573737900436F756C64206E6F743C
:1021EA002066696E642066696E6765727072696ED0
:1021FA007420666561747572657300466F756E64E6
:10220A002061207072696E74206D617463682100A8
:10221A00466F756E642049442023002077697468EC
:10222A0020636F6E666964656E6365206F66200061
:10223A00446964206E6F742066696E642061206D43
:10224A00617463680064656E74726F20646F2077CE
:10225A0068696C650071776572747975696F700069
:00000001FF
