:100000000C943C000C9464000C9464000C94640008
:100010000C9464000C9464000C9464000C948C099F
:100020000C94B0090C94D4090C941C090C94D408B9
:100030000C94F8080C9440090C9417080C943B0895
:100040000C945F080C9464000C9464000C9464009D
:100050000C9464000C94CB070C9464000C94640022
:100060000C9464000C946400EF0783086409F80999
:10007000F6078A086B09FF0911241FBECFEFD8E0ED
:10008000DEBFCDBF11E0A0E0B1E0E6E9FBE102C0D8
:1000900005900D92A432B107D9F721E0A4E2B1E0B6
:1000A00001C01D92A335B207E1F710E0C8E3D0E02C
:1000B00004C02197FE010E94A30AC433D107C9F7E7
:1000C0000E94060A0C94BE0D0C940000E82FF92F34
:1000D000ACE2B1E084E797E019969C938E93189771
:1000E0001B961C921E921A9782E013968C9313977C
:1000F0001D961C921E921C971182108213821282EE
:100100008481982F987F9483807C84831482858156
:100110008E7F85831782168211861086138612863B
:100120008485887F8487877F84878F7E84878F718B
:1001300084878585982F987F9587807E85878F7D9A
:100140008587806485878F77858786858E7F86877C
:10015000982F917896878170868787858E7F87878D
:100160008D7F87878B7F8787877F87878F7E87872E
:100170008F7D87878F7B8787118A108A08950F93D9
:10018000E82FF92F862F972F522FBC016352710948
:100190006930710508F041C0483008F045C028308A
:1001A00008F048C0083008F04BC09C0120523109CB
:1001B000ABEABAEA0E94A90A9C01369527958E7F80
:1001C000820F931F9C012F5D3F4F318320838296C6
:1001D0009383828347708481887F842B84835770C4
:1001E000252F220F220F220F877C282B2483802F7C
:1001F0008295880F880F807C2F73822B848302FB6B
:10020000002700F985818E7F082B05838785806212
:100210008787118A108A81E005C083ED90E0918B79
:10022000808B80E00F91089587ED90E0918B808B1B
:1002300080E0F8CF87ED90E0918B808B80E0F2CF6B
:1002400087ED90E0918B808B80E0ECCFE82FF92F49
:10025000262F372FC9018397099718F5483038F5AD
:1002600020523109ABEABAEA0E94A90A9C013695EC
:1002700027958E7F820F931F9C012F5D3F4F378301
:1002800026832F5F3F4F3187208780969387828711
:1002900047708485887F842B8487118A108A81E047
:1002A000089583ED90E0918B808B80E0089587ED39
:1002B00090E0918B808B80E00895E82FF92FA4E2E5
:1002C000B1E08CE291E015969C938E93149713966F
:1002D0009C938E9312978D939C93F0932B01E093B4
:1002E0002A01118A108A81E00895CF93DF93E82FC5
:1002F000F92F848584FF17C0A281B3813C9184814A
:10030000829586958695837025812170220F220F14
:10031000282B81E090E002C0880F991F2A95E2F710
:10032000809583238C93A281B3814C91848186959F
:1003300086958695877021E030E0E90102C0CC0FF8
:10034000DD1F8A95E2F7CE01809584238C93A281EC
:10035000B3814C9184818770E90102C0CC0FDD1F0D
:100360008A95E2F7CE01809584238C93A085B18590
:100370005C91448547708FE090E002C0880F991F20
:100380004A95E2F7809585238C93A085B1858C9161
:1003900062956F7070E09485977002C0660F771F4A
:1003A0009A95E2F7862B8C93A281B3814C9184813C
:1003B0008770B90102C0660F771F8A95E2F7CB01FB
:1003C000842B8C9375E07A95F1F70000A281B381BC
:1003D0009C918481877002C0220F331F8A95E2F7B7
:1003E000209529232C9385E08A95F1F700008485D8
:1003F00084FF03C0878583FD04C0C5EDCA95F1F76E
:10040000000081E0DF91CF910895E82FF92F8485D6
:1004100083FF55C0A085B1854C9187702FE030E0F7
:10042000B90102C0660F771F8A95E2F7CB0180956C
:1004300084238C93A681B7819C918485877002C0A8
:10044000220F331F8A95E2F7209529232C93A2814E
:10045000B3814C918481869586958695877021E03D
:1004600030E0B90102C0660F771F8A95E2F7CB0131
:10047000809584238C93A281B3814C919481929531
:1004800096959695937085818170880F880F892B3A
:10049000B90102C0660F771F8A95E2F7CB01842B62
:1004A0008C93A281B3819C918481877002C0220FBA
:1004B000331F8A95E2F7209529232C932FC0A0851E
:1004C000B1851C92A681B7811C92C1CF207848C00B
:1004D000A281B3813C914481477081E090E0BC01EE
:1004E00002C0660F771F4A95E2F7362B3C9375E002
:1004F0007A95F1F70000A281B3814C913481377075
:1005000002C0880F991F3A95E2F7809584238C9357
:1005100085E08A95F1F700002223C9F1A281B38119
:100520008C919481977021E030E002C0220F331F3C
:100530009A95E2F7822B8C9375E07A95F1F700009B
:10054000A285B3852C91848583FFC0CF382F377067
:1005500088E090E002C0880F991F3A95E2F72823BF
:10056000A281B3814C913481377081E090E002C068
:10057000880F991F3A95E2F7809584238C9385E044
:100580008A95F1F70000848583FFC6CFA1CFA281B1
:10059000B3813C918481829586958695837025816F
:1005A0002170220F220F282B81E090E002C0880FDB
:1005B000991F2A95E2F7809583238C93848583FF86
:1005C0001EC0A085B1854C9187702FE030E0B90145
:1005D00002C0660F771F8A95E2F7CB0180958423CE
:1005E0008C93A681B7818C919485977002C0220F5D
:1005F000331F9A95E2F7822B8C9381E00895A085B2
:10060000B1851C920680F781E02D8FEF8083F5CFB6
:100610001F93CF93DF93C82FD92F162F8C8584FF7C
:100620001AC08F8583FDD0C0EA81FB8130818C8127
:1006300082958695869583702D812170220F220FD9
:10064000282B81E090E002C0880F991F2A95E2F7DD
:10065000809583238083EA81FB8140818C8186950C
:1006600086958695877021E030E0B90102C0660F5B
:10067000771F8A95E2F7CB01809584238083EA81F6
:10068000FB8190818C81877002C0220F331F8A9575
:10069000E2F72095292320838C8583FF99C0E88584
:1006A000F985408187702FE030E0D90102C0AA0FA0
:1006B000BB1F8A95E2F7CD01809584238083E8856E
:1006C000F9854081812F82958F7090E05C8557700D
:1006D00002C0880F991F5A95E2F7842B8083EA8124
:1006E000FB8160814C81477081E090E0DC0102C0B9
:1006F000AA0FBB1F4A95E2F7AD01462B4083B5E038
:10070000BA95F1F70000EA81FB8150814C81477076
:1007100002C0880F991F4A95E2F780958523808350
:1007200045E04A95F1F70000E885F98590818C85D0
:10073000877002C0220F331F8A95E2F72095292384
:100740002083E885F9852081812F8F7090E03C859A
:10075000377002C0880F991F3A95E2F7822B808389
:10076000EA81FB8140812C81277081E090E0BC010F
:1007700002C0660F771F2A95E2F79B01242B208386
:1007800075E07A95F1F70000EA81FB8130812C81D8
:10079000277002C0880F991F2A95E2F7809583235E
:1007A000808385E08A95F1F700008C8584FD07C081
:1007B0001150123088F0B5EDBA95F1F7000081E0E4
:1007C000DF91CF911F910895CE010E9405022CCF99
:1007D000E885F9851083C4CFAFE3BFE11197F1F746
:1007E00000C00000ECCFEF92FF920F931F93CF93C6
:1007F000DF93C82FD92F162FE42EF22E8C8500FB05
:1008000084F98C8720FB83F98C878F85877F8F877E
:100810008F7E8F878D8540FB85F98D87222309F494
:1008200024C1E885F98540818C8587702FE030E010
:10083000B90102C0660F771F8A95E2F7CB01809558
:1008400084238083EE81FF8180819C85977002C024
:10085000220F331F9A95E2F7822B8083EA81FB8176
:1008600040818C81877021E030E0B90102C0660FC1
:10087000771F8A95E2F7CB01809584238083E881F6
:10088000F98140818C818770B90102C0660F771FA2
:100890008A95E2F7CB01842B8083AA81BB818C915E
:1008A000EC81E695E695E695E770A90102C0440F54
:1008B000551FEA95E2F7FA01E095E823EC93E88109
:1008C000F98190818C81869586958695877002C086
:1008D000220F331F8A95E2F7892F822B8083002312
:1008E00071F1EA81FB8140819C8192959695969564
:1008F00093708D818170880F880F892B21E030E003
:10090000B90102C0660F771F8A95E2F7CB01809587
:1009100084238083E881F98190814C8142954695BA
:10092000469543708D818170880F880F842B02C09B
:10093000220F331F8A95E2F7892F822B80838FE560
:100940009AEE0197F1F700C00000FF2009F495C06E
:1009500060E3CE010E9475018FE19EE40197F1F7FB
:1009600000C0000060E3CE010E9475018FE891E0B5
:100970000197F1F700C0000060E3CE010E9475010D
:100980008FE891E00197F1F700C00000F1108EC0F0
:1009900060E16062EE2009F495C084E0682B8D85EB
:1009A000E0FA85F98D87143608F08EC080E0682B58
:1009B000CE010E9408038F8588608F8768E0CE0192
:1009C0000E94080361E0CE010E9408038D8586FF26
:1009D0007DC066E088230CF47BC0CE010E94080332
:1009E0006CE0CE010E9408038F8584608F878D7F25
:1009F0008F879E859E7F9E87292F2F772E878E7FBC
:100A00008F8791709E87E12FF0E0CF0162E370E065
:100A10000E948F0A2FEF260F2370220F220F220F22
:100A20008D85877E282B2D87CF01880F991F64E63F
:100A300070E00E948F0A8150982F9295990F907EB6
:100A40003C853F71932B9C8786958695869587700C
:100A5000287F282B2D87198A188A81E0DF91CF9172
:100A60001F910F91FF90EF900895E885F98510820E
:100A7000EE81FF818FEF8083F1CE60E3CE010E9493
:100A800008038FE19EE40197F1F700C0000060E3E6
:100A9000CE010E9408038FE891E00197F1F700C0B2
:100AA000000060E3CE010E9408036ACF60E2CE013D
:100AB0000E9475018FE891E00197F1F700C00000F6
:100AC00060E067CF80E06ACF88E071CF64E082CFDA
:100AD000616083CFCF93DF93C82FD92F623069F144
:100AE00070F4662309F480C0613009F080C08D8500
:100AF0008871882309F47BC090E4940F76C063303A
:100B000009F075C08D858871883109F44DC0883130
:100B100009F45AC0883109F06AC09C85929596956F
:100B200097708D858770880F880F880F892B833188
:100B300009F05DC094E5940F58C08D8588718831A7
:100B4000A9F0883111F1883109F051C09C85929546
:100B5000969597708D858770880F880F880F892BE1
:100B6000833109F044C094E1940F3FC02C85229555
:100B7000269527709D859770990F990F990F922B45
:100B80009B30F9F69CE0940F30C02C852295269579
:100B900027709D859770990F990F990F922B9F3011
:100BA00091F690E1940F21C02C852295269527700F
:100BB0009D859770990F990F990F922B9B3009F093
:100BC000A6CF9CE4940F11C02C8522952695277002
:100BD0009D859770990F990F990F922B9F3009F06F
:100BE00099CF90E5940F01C0942F9F3F31F4198A5B
:100BF000188A81E0DF91CF910895262F279522272B
:100C000027958E858F77282B2E8761FB882780F983
:100C10003F853E7F832B8F874F73440F2178422B74
:100C20004E87692F6068CE010E940803E0CFCF9302
:100C3000DF93C82FD92F9E85991F9927991F8F85DC
:100C40008170880F892B8F5F6D8566956695669597
:100C5000637070E06F5F7F4F90E00E948F0A40E00A
:100C6000682FCE010E946A05882311F0198A188A1C
:100C7000DF91CF910895FF920F931F93CF93DF934E
:100C8000C82FD92F862F972F8230910579F1833085
:100C9000910581F1019731F1F12C00E010E0112371
:100CA00071F164E06860002361F182E0682BFF204D
:100CB00051F181E0682BCE010E9408038E85F0FA85
:100CC00080F98E878F8500FB81F98F8710FB82F971
:100CD0008F87198A188A81E0DF91CF911F910F9138
:100CE000FF900895F12C00E011E0D9CFF12C01E044
:100CF00011E0D5CFFF24F39401E011E0D0CF60E004
:100D0000D1CF80E0D3CF80E0D5CF0F931F93CF9387
:100D1000DF93C82FD92F162F042F8E8586958F73BA
:100D2000883210F04111BBC08C8584FDBEC0EA81C1
:100D3000FB8140812C81269526952695277081E0A0
:100D400090E0BC0102C0660F771F2A95E2F79B0175
:100D5000242B2083EA81FB8130812C81277002C003
:100D6000880F991F2A95E2F78095832380838C85CD
:100D700083FFB6C0E885F985408187702FE030E0B9
:100D8000D90102C0AA0FBB1F8A95E2F7CD01809559
:100D900084238083E885F9854081812F82958F7037
:100DA00090E05C85577002C0880F991F5A95E2F752
:100DB000842B8083EA81FB8160814C81477081E0D4
:100DC00090E0DC0102C0AA0FBB1F4A95E2F7AD011B
:100DD000462B4083B5E0BA95F1F70000EA81FB812C
:100DE00050814C81477002C0880F991F4A95E2F7E5
:100DF00080958523808345E04A95F1F70000E885DA
:100E0000F98590818C85877002C0220F331F8A95E7
:100E1000E2F7209529232083E885F98520811F703A
:100E2000812F90E03C85377002C0880F991F3A955A
:100E3000E2F7822B8083EA81FB8140812C8127703D
:100E400081E090E0BC0102C0660F771F2A95E2F7AF
:100E50009B01242B208375E07A95F1F70000EA814D
:100E6000FB8130812C81277002C0880F991F2A9541
:100E7000E2F78095832380838C8584FD04C085ED13
:100E80008A95F1F70000002351F09E85892F869501
:100E90008F738F5F8F73880F9178892B8E8781E096
:100EA000DF91CF911F910F910895CE010E9405020D
:100EB000EA81FB8130818C8182958695869583704D
:100EC0002D812170220F220F282B81E090E002C09B
:100ED000880F991F2A95E2F780958323808327CF77
:100EE000E885F9851083A7CFCF93DF93682FE09132
:100EF0002A01F0912B018485829586958770D5858E
:100F0000D770DD0FDD0FDD0FD82BDF5F6A30D1F436
:100F1000C685C695CF7309C041E060E280912A0181
:100F200090912B010E948506CF5FCD17A8F3809189
:100F30002A0190912B010E94170680E090E0DF913A
:100F4000CF91089541E0CF010E948506F6CFE82FAA
:100F5000F92F158280858E7F808780818E7F8083A8
:100F60008D7F80838B7F80838FE090E09783868363
:100F700013821482128211820895262F372F01972F
:100F800009F008952F3F3F4FE1F78AE391E00E9477
:100F9000A707F7CF08951F920F920FB60F92112453
:100FA0002F933F934F935F936F937F938F939F9371
:100FB000AF93BF93EF93FF930E94CA07FF91EF9106
:100FC000BF91AF919F918F917F916F915F914F9161
:100FD0003F912F910F900FBE0F901F9018956FEFBC
:100FE0007FEF81E090E00E94BD0708956FEF7FEFF3
:100FF00080E090E00E94BD070895E82FF92F11824C
:10100000128280818E7F8083148213820895262F1E
:10101000372F019709F008952F3F3F4FE1F783E401
:1010200091E00E94FD07F7CF0895089508951F925B
:101030000F920FB60F9211242F933F934F935F930C
:101040006F937F938F939F93AF93BF93EF93FF9390
:101050000E941408FF91EF91BF91AF919F918F91E2
:101060007F916F915F914F913F912F910F900FBEA4
:101070000F901F9018951F920F920FB60F92112488
:101080002F933F934F935F936F937F938F939F9390
:10109000AF93BF93EF93FF930E941508FF91EF91D9
:1010A000BF91AF919F918F917F916F915F914F9180
:1010B0003F912F910F900FBE0F901F9018951F9288
:1010C0000F920FB60F9211242F933F934F935F937C
:1010D0006F937F938F939F93AF93BF93EF93FF9300
:1010E0000E941608FF91EF91BF91AF919F918F9150
:1010F0007F916F915F914F913F912F910F900FBE14
:101100000F901F9018956FEF7FEF81E090E00E94A5
:10111000070808956FEF7FEF80E090E00E940708D6
:101120000895E82FF92F1182128280818E7F8083AB
:10113000148213820895262F372F019709F00895FE
:101140002F3F3F4FE1F788E491E00E949108F7CFED
:10115000CF93DF93E82FF92FC0E8D0E08881A1E892
:10116000B0E03C918C7F377E262F2370282B862F72
:101170008695869590E0880F991F880F991F880F94
:10118000991F832B887F842B28838C9362834183D0
:101190008081816080831482138281E0DF91CF910E
:1011A00008950895089508951F920F920FB60F9213
:1011B00011242F933F934F935F936F937F938F935C
:1011C0009F93AF93BF93EF93FF930E948B0AFF917E
:1011D000EF91BF91AF919F918F917F916F915F91AF
:1011E0004F913F912F910F900FBE0F901F90189528
:1011F0001F920F920FB60F9211242F933F934F938C
:101200005F936F937F938F939F93AF93BF93EF936E
:10121000FF930E94D108FF91EF91BF91AF919F91F1
:101220008F917F916F915F914F913F912F910F908F
:101230000FBE0F901F9018951F920F920FB60F922E
:1012400011242F933F934F935F936F937F938F93CB
:101250009F93AF93BF93EF93FF930E94D208FF91A8
:10126000EF91BF91AF919F918F917F916F915F911E
:101270004F913F912F910F900FBE0F901F90189597
:101280001F920F920FB60F9211242F933F934F93FB
:101290005F936F937F938F939F93AF93BF93EF93DE
:1012A000FF930E94D308FF91EF91BF91AF919F915F
:1012B0008F917F916F915F914F913F912F910F90FF
:1012C0000FBE0F901F9018956FEF7FEF81E090E0B9
:1012D0000E949B0808956FEF7FEF80E090E00E94EE
:1012E0009B080895E82FF92F1182128280818E7F4A
:1012F0008083148213820895262F372F019709F0D7
:1013000008952F3F3F4FE1F78DE491E00E9472096D
:10131000F7CF0895089508951F920F920FB60F9278
:1013200011242F933F934F935F936F937F938F93EA
:101330009F93AF93BF93EF93FF930E948909FF910F
:10134000EF91BF91AF919F918F917F916F915F913D
:101350004F913F912F910F900FBE0F901F901895B6
:101360001F920F920FB60F9211242F933F934F931A
:101370005F936F937F938F939F93AF93BF93EF93FD
:10138000FF930E948A09FF91EF91BF91AF919F91C6
:101390008F917F916F915F914F913F912F910F901E
:1013A0000FBE0F901F9018951F920F920FB60F92BD
:1013B00011242F933F934F935F936F937F938F935A
:1013C0009F93AF93BF93EF93FF930E948B09FF917D
:1013D000EF91BF91AF919F918F917F916F915F91AD
:1013E0004F913F912F910F900FBE0F901F90189526
:1013F0006FEF7FEF81E090E00E947C0908956FEF2E
:101400007FEF80E090E00E947C090895CDB7DEB7C1
:1014100062970FB6F894DEBF0FBECDBFCE01019626
:101420000E9466001092520145E064E088E491E079
:101430000E94A8088FB7F89429E03DE33093890013
:10144000209388008FBFEFE6F0E080818260808388
:1014500000E024E044E064E270E0CE0101960E94E6
:10146000BF0040E064E270E0CE0101960E942601D8
:1014700021E040E06CE6CE0101960E94F30361E0BA
:1014800070E0CE0101960E943B06CE0101960E94BB
:101490005D01789418E302E20F2EFCE0FF2EF02DA0
:1014A00027C00B3369F10F5F10E087E08F9387EE61
:1014B0008F931F9284E08F931F9282E18F9380E03D
:1014C00091E09F938F930E94CC0A1F921F931F92CB
:1014D0000F931F92FF928BE091E09F938F930E9456
:1014E000CC0A109252010FB6F894DEBF0FBECDBFEA
:1014F000809152018823E1F31B3399F21F5FD5CF0E
:1015000087E1F81621F0F39410E000E0CECF10E070
:1015100000E0F12CCACF81E080935201089597FB3F
:10152000072E16F4009407D077FD09D00E94B80A60
:1015300007FC05D03EF4909581959F4F08957095D6
:1015400061957F4F0895EE0FFF1F0590F491E02DF8
:101550000994A29FB001B39FC001A39F700D811D8C
:101560001124911DB29F700D811D1124911D0895AC
:10157000AA1BBB1B51E107C0AA1FBB1FA617B707B9
:1015800010F0A61BB70B881F991F5A95A9F78095D5
:101590009095BC01CD010895A0E0B0E0E2EDFAE045
:1015A0000C94970DAE014B5F5F4FFA016191719101
:1015B000AF0180912601909127010E94E20AE2E0AA
:1015C0000C94B30DAFE0B0E0E8EEFAE00C948A0DB5
:1015D0006C017B018A01DC0117961C921E92169702
:1015E00013968C9181FFECC12AE0522EF601938173
:1015F000F70193FD859193FF81917F01882309F481
:1016000073C0853239F493FD859193FF81917F01F9
:10161000853229F4B60190E00E94F90CE7CF912CB5
:10162000612C712CFFE1F71508F446C08B32C9F12B
:10163000F8F48032C1F1833209F43BC0833609F4F7
:101640008AC0833709F493C0833509F0B6C0F80126
:10165000A190B1908F01692D70E076FC02C06FEF10
:101660007FEFC5010E94E30C4C01689477F85FC0DE
:101670008D32E1F0803351F020ED280F2A3048F10F
:101680008E3209F039C0689476F802C0689470F818
:10169000F70193FD859193FF81917F018111C2CF65
:1016A00033C0689471F8689472F8F2CF689473F854
:1016B000EFCF689474F8ECCF77FC26C020ED280FAC
:1016C0002A3070F476FE05C0959C200D1124922ED0
:1016D000DFCF659C200D1124622E689475F8D8CF59
:1016E0008E3251F476FECFCFD60116968D919C9115
:1016F0002F96EFE00C94A60D8C3619F4689477F8C9
:10170000C7CF883609F4C4CF982F9F7D9554933066
:1017100008F094CF0C5F1F4F8FE389838824839454
:10172000912CAE014F5F5F4F5A01E89477F873FC3C
:1017300005C0862D90E08816990640F18114910429
:1017400061F5662009F452CFB60180E290E00E9474
:10175000F90C6A94F6CFD8018C9189830E5F1F4FE4
:1017600088248394912CFE0131965F01DECFD8014D
:10177000AD90BD908D01692D70E076FC02C06FEFD9
:101780007FEFC5010E94EE0C4C01CFCFB60180E285
:1017900090E00E94F90C6A94CCCFF50177FC85911A
:1017A00077FE81915F01B60190E00E94F90C611013
:1017B0006A94F1E08F1A9108C1CF843619F0893606
:1017C00009F081C0F80177FE77C061917191819134
:1017D00091918F01272D2F76822E97FF09C090952A
:1017E0008095709561957F4F8F4F9F4F689487F8D4
:1017F0002AE030E0AE014F5F5F4F5A010E94290D91
:101800008A19A82EBA2C782C86FE0CC0E89470F8A1
:10181000A91440F484FE05C082FC03C0782D7E7EAE
:10182000772EB92C74FEA5C0FE01EA0DF11D808152
:10183000803309F097C0872D897E782E73FC0EC007
:1018400070FEA6C09A2CB61418F4960C9B18B62CF1
:10185000862D8B196B1408F480E0B80EB61408F0CE
:1018600099C06B1874FE98C0B60180E390E00E94A6
:10187000F90C72FE09C088E590E071FC02C088E7AF
:1018800090E0B6010E94F90CA91408F492C0AA9441
:10189000B12C9FEFA91AB90ADE0111964D01AA0ECB
:1018A000BB1EF50182915F01B60190E00E94F90C28
:1018B0008A149B04B1F745CF61917191072E000CFA
:1018C000880B990B86CF872CE89484F82AE030E0C7
:1018D000853769F0572D597F852E803771F118F5BE
:1018E000883571F18F3609F0FFCE28E030E0F8013D
:1018F00087FE2EC081919191A191B1918C879D8796
:10190000AE87BF878F01BE016F5F7F4F5B01AB0169
:101910006C857D858E859F850E94290D8A19A82E4C
:10192000E89487F86FCF883709F0DECE84FE02C0D6
:10193000689482F820E130E0DACF689484F8F6CF3A
:1019400074FE03C0652F6660862E20E132E0CFCFA3
:1019500081919191AC0160E070E04C875D876E876A
:101960007F87D0CF72FC02C0B39468CFB394B39496
:1019700065CF872D8678882309F460CFF5CFB6012F
:1019800080E290E00E94F90C83948614C0F360CF4B
:101990008B2CFBCF612C66CF872D8678882309F4AA
:1019A00073CF8BE271FE80E277FC8DE2B60190E0AE
:1019B00069CFB60180E390E00E94F90C9A9464CF5D
:1019C0008FEF9FEF95CEFC010590615070400110A4
:1019D000D8F7809590958E0F9F1F0895FC01615058
:1019E000704001900110D8F7809590958E0F9F1F41
:1019F00008950F931F93CF93DF93182F092FEB01B7
:101A00008B8181FD09C01FEF0FEF812F902FDF9198
:101A1000CF911F910F91089582FF14C02E813F81B5
:101A20008C819D81281739073CF4E881F981CF0129
:101A300001969983888310838E819F8101969F836D
:101A40008E83E3CFE885F985812F0995892BA1F352
:101A5000DACFFA01AA27283051F1203181F1E89438
:101A60006F936E7F6E5F7F4F8F4F9F4FAF4FB1E091
:101A70003ED0B4E03CD0670F781F891F9A1FA11D8C
:101A8000680F791F8A1F911DA11D6A0F711D811D8D
:101A9000911DA11D20D009F468943F912AE0269F52
:101AA00011243019305D3193DEF6CF010895462FB1
:101AB0004770405D4193B3E00FD0C9F7F6CF462F92
:101AC0004F70405D4A3318F0495D31FD40524193FB
:101AD00002D0A9F7EACFB4E0A695979587957795B8
:101AE0006795BA95C9F700976105710508959B013F
:101AF000AC010A2E06945795479537952795BA95C8
:101B0000C9F7620F731F841F951FA01D08952F92A0
:101B10003F924F925F926F927F928F929F92AF927D
:101B2000BF92CF92DF92EF92FF920F931F93CF93CA
:101B3000DF93CDB7DEB7CA1BDB0B0FB6F894DEBF61
:101B40000FBECDBF09942A88398848885F846E8487
:101B50007D848C849B84AA84B984C884DF80EE80D1
:101B6000FD800C811B81AA81B981CE0FD11D0FB6DA
:101B7000F894DEBF0FBECDBFED01089510E0C8E3BD
:101B8000D0E004C0FE010E94A30A2196CC33D10705
:061B9000C9F7F894FFCF35
:101B960025752F25752F2575200A00202020202544
:101BA6003032753A253032753A253032752020208C
:041BB600200A000001
:00000001FF
