:100000000C9434000C943E000C943E000C943E0082
:100010000C943E000C943E000C943E000C943E0068
:100020000C943E000C943E000C943E000C943E0058
:100030000C943E000C943E000C943E000C943E0048
:100040000C943E000C943E000C943E000C943E0038
:100050000C943E000C943E000C943E000C943E0028
:100060000C943E000C943E0011241FBECFEFD8E04C
:10007000DEBFCDBF0E9440000C94C9000C9400006C
:100080001092C1008FEF8AB91BB880E025C09BB1E8
:1000900091609BB99BB192609BB925E32A95F1F7DA
:1000A00000009BB19D7F9BB935E33A95F1F70000C5
:1000B0009BB194609BB995E39A95F1F700009BB1D1
:1000C0009B7F9BB92FEF34E39CE021503040904060
:1000D000E1F700C000008F5F803130F48823B9F26F
:1000E0009BB19E7F9BB9D6CF4EE02BC08BB1826077
:1000F0008BB985E38A95F1F700008BB18D7F8BB9C1
:1001000095E39A95F1F700002F5F3F4F842F90E021
:10011000281739075CF38BB184608BB925E32A95E6
:10012000F1F700008BB18B7F8BB93FEF84E39CE04C
:10013000315080409040E1F700C00000483030F17D
:100140004150442309F4A1CF8BB181608BB98BB1AD
:1001500082608BB925E32A95F1F700008BB18D7F82
:100160008BB98BB18E7F8BB920E030E0CFCF2BB134
:1001700022602BB925E32A95F1F700002BB12D7FE2
:100180002BB901968031910594F3DACF80E090E0AD
:06019000F9CFF894FFCF47
:00000001FF
