:100000000C9434000C943E000C943E000C943E0082
:100010000C943E000C943E000C943E000C943E0068
:100020000C943E000C943E000C943E000C943E0058
:100030000C943E000C943E000C943E000C943E0048
:100040000C943E000C943E000C943E000C943E0038
:100050000C943E000C943E000C943E000C943E0028
:100060000C943E000C943E0011241FBECFEFD8E04C
:10007000DEBFCDBF0E9440000C9466000C940000CF
:100080001092C1008FEF8AB91BB884B18B7F84B9FD
:1000900085B1846085B992E081E005C0903889F42B
:1000A00092E081E0880F282F292B2BB92FEF39E61A
:1000B00048E1215030404040E1F700C0000089177E
:1000C00069F38913EFCF990F81E0EDCFF894FFCF5B
:00000001FF
