:100000000C944A000C94500A0C94990A0C94E20A3D
:100010000C942B0B0C94740B0C9472000C944D0DDF
:100020000C94710D0C94950D0C94DD0C0C94950CA6
:100030000C94B90C0C94010D0C94C00B0C94E40BB3
:100040000C94080C0C9472000C9472000C947200C6
:100050000C9472000C94070A0C9472000C947200B9
:100060000C948A100C9472002B0A740ABD0A060BB9
:100070004F0B980B2C0C250DB90DB010FE10320A49
:100080007B0AC40A0D0B560B9F0B330C2C0DC00DB5
:10009000B710051111241FBECFEFD8E0DEBFCDBFD2
:1000A00011E0A0E0B1E0E6EEF8E202C005900D92AA
:1000B000A834B107D9F721E0A8E4B1E001C01D924E
:1000C000A73BB207E1F710E0CFE3D0E004C02197EF
:1000D000FE010E94E411C433D107C9F70E940C113C
:1000E0000C9466140C940000E82FF92FA4E5B1E0FD
:1000F00080E597E019969C938E9318971B961C9217
:100100001E921A9782E013968C9313971D961C9259
:100110001E921C9711821082138212828481982F62
:10012000987F9483807C8483148285818E7F8583ED
:100130001782168211861086138612868485887F20
:100140008487877F84878F7E84878F718487858566
:10015000982F987F9587807E85878F7D858780649F
:1001600085878F77858786858E7F8687982F91787C
:1001700096878170868787858E7F87878D7F878723
:100180008B7F8787877F87878F7E87878F7D87870E
:100190008F7B8787118A108A08950F93E82FF92F94
:1001A000862F972F522FBC01635271096930710558
:1001B00008F041C0483008F045C0283008F048C079
:1001C000083008F04BC09C0120523109ABEABAEA72
:1001D0000E94EA119C01369527958E7F820F931F0E
:1001E0009C012F5D3F4F31832083829693838283CE
:1001F00047708481887F842B84835770252F220F3A
:10020000220F220F877C282B2483802F8295880F32
:10021000880F807C2F73822B848302FB002700F9D8
:1002200085818E7F082B0583878580628787118A69
:10023000108A81E005C083ED90E0918B808B80E097
:100240000F91089587ED90E0918B808B80E0F8CF3F
:1002500087ED90E0918B808B80E0F2CF87ED90E08E
:10026000918B808B80E0ECCFE82FF92F262F372F52
:10027000C9018397099718F5483038F5205231099C
:10028000ABEABAEA0E94EA119C01369527958E7F67
:10029000820F931F9C012F5D3F4F378326832F5F73
:1002A0003F4F318720878096938782874770848568
:1002B000887F842B8487118A108A81E0089583EDDA
:1002C00090E0918B808B80E0089587ED90E0918B9A
:1002D000808B80E00895E82FF92FACE4B1E084E54D
:1002E00091E015969C938E93149713969C938E93FE
:1002F00012978D939C93F0935301E0935201118ACE
:10030000108A81E00895CF93DF93E82FF92F848539
:1003100084FF17C0A281B3813C9184818295869528
:100320008695837025812170220F220F282B81E072
:1003300090E002C0880F991F2A95E2F780958323E9
:100340008C93A281B3814C91848186958695869504
:10035000877021E030E0E90102C0CC0FDD1F8A95F3
:10036000E2F7CE01809584238C93A281B3814C91D6
:1003700084818770E90102C0CC0FDD1F8A95E2F706
:10038000CE01809584238C93A085B1855C914485B2
:1003900047708FE090E002C0880F991F4A95E2F7FE
:1003A000809585238C93A085B1858C9162956F7023
:1003B00070E09485977002C0660F771F9A95E2F7F8
:1003C000862B8C93A281B3814C9184818770B90173
:1003D00002C0660F771F8A95E2F7CB01842B8C93BE
:1003E00075E07A95F1F70000A281B3819C91848138
:1003F000877002C0220F331F8A95E2F720952923C8
:100400002C9385E08A95F1F70000848584FF03C072
:10041000878583FD04C0C5EDCA95F1F7000081E032
:10042000DF91CF910895E82FF92F848583FF55C080
:10043000A085B1854C9187702FE030E0B90102C0F2
:10044000660F771F8A95E2F7CB01809584238C9302
:10045000A681B7819C918485877002C0220F331FCB
:100460008A95E2F7209529232C93A281B3814C91A0
:100470008481869586958695877021E030E0B90164
:1004800002C0660F771F8A95E2F7CB01809584231F
:100490008C93A281B3814C91948192959695969577
:1004A000937085818170880F880F892BB90102C0F4
:1004B000660F771F8A95E2F7CB01842B8C93A2817C
:1004C000B3819C918481877002C0220F331F8A956B
:1004D000E2F7209529232C932FC0A085B1851C928B
:1004E000A681B7811C92C1CF207848C0A281B38178
:1004F0003C914481477081E090E0BC0102C0660FEE
:10050000771F4A95E2F7362B3C9375E07A95F1F721
:100510000000A281B3814C913481377002C0880FF2
:10052000991F3A95E2F7809584238C9385E08A950C
:10053000F1F700002223C9F1A281B3818C9194814B
:10054000977021E030E002C0220F331F9A95E2F746
:10055000822B8C9375E07A95F1F70000A285B38524
:100560002C91848583FFC0CF382F377088E090E0CE
:1005700002C0880F991F3A95E2F72823A281B38120
:100580004C913481377081E090E002C0880F991F50
:100590003A95E2F7809584238C9385E08A95F1F76C
:1005A0000000848583FFC6CFA1CFA281B3813C9197
:1005B0008481829586958695837025812170220F8E
:1005C000220F282B81E090E002C0880F991F2A9506
:1005D000E2F7809583238C93848583FF1EC0A085DA
:1005E000B1854C9187702FE030E0B90102C0660FF1
:1005F000771F8A95E2F7CB01809584238C93A6819F
:10060000B7818C919485977002C0220F331F9A9501
:10061000E2F7822B8C9381E00895A085B1851C922E
:100620000680F781E02D8FEF8083F5CF1F93CF9366
:10063000DF93C82FD92F162F8C8584FF1AC08F8582
:1006400083FDD0C0EA81FB8130818C8182958695C3
:10065000869583702D812170220F220F282B81E037
:1006600090E002C0880F991F2A95E2F780958323B6
:100670008083EA81FB8140818C8186958695869571
:10068000877021E030E0B90102C0660F771F8A95BC
:10069000E2F7CB01809584238083EA81FB819081FE
:1006A0008C81877002C0220F331F8A95E2F7209554
:1006B000292320838C8583FF99C0E885F9854081B3
:1006C00087702FE030E0D90102C0AA0FBB1F8A95C6
:1006D000E2F7CD01809584238083E885F985408108
:1006E000812F82958F7090E05C85577002C0880FD3
:1006F000991F5A95E2F7842B8083EA81FB81608100
:100700004C81477081E090E0DC0102C0AA0FBB1F62
:100710004A95E2F7AD01462B4083B5E0BA95F1F773
:100720000000EA81FB8150814C81477002C0880F34
:10073000991F4A95E2F780958523808345E04A9585
:10074000F1F70000E885F98590818C85877002C0FB
:10075000220F331F8A95E2F7209529232083E8850D
:10076000F9852081812F8F7090E03C85377002C021
:10077000880F991F3A95E2F7822B8083EA81FB81EB
:1007800040812C81277081E090E0BC0102C0660F9F
:10079000771F2A95E2F79B01242B208375E07A9539
:1007A000F1F70000EA81FB8130812C81277002C0C3
:1007B000880F991F2A95E2F780958323808385E02F
:1007C0008A95F1F700008C8584FD07C01150123026
:1007D00088F0B5EDBA95F1F7000081E0DF91CF9197
:1007E0001F910895CE010E9413022CCFE885F98550
:1007F0001083C4CFAFE3BFE11197F1F700C0000051
:10080000ECCFEF92FF920F931F93CF93DF93C82FFC
:10081000D92F162FE42EF22E8C8500FB84F98C87BD
:1008200020FB83F98C878F85877F8F878F7E8F87CB
:100830008D8540FB85F98D87222309F424C1E88545
:10084000F98540818C8587702FE030E0B90102C0C6
:10085000660F771F8A95E2F7CB018095842380830A
:10086000EE81FF8180819C85977002C0220F331F2B
:100870009A95E2F7822B8083EA81FB8140818C810B
:10088000877021E030E0B90102C0660F771F8A95BA
:10089000E2F7CB01809584238083E881F981408150
:1008A0008C818770B90102C0660F771F8A95E2F7C5
:1008B000CB01842B8083AA81BB818C91EC81E6954E
:1008C000E695E695E770A90102C0440F551FEA9529
:1008D000E2F7FA01E095E823EC93E881F981908151
:1008E0008C81869586958695877002C0220F331F6E
:1008F0008A95E2F7892F822B8083002371F1EA81A8
:10090000FB8140819C8192959695969593708D81FF
:100910008170880F880F892B21E030E0B90102C077
:10092000660F771F8A95E2F7CB0180958423808339
:10093000E881F98190814C814295469546954370B6
:100940008D818170880F880F842B02C0220F331F86
:100950008A95E2F7892F822B80838FE59AEE0197A3
:10096000F1F700C00000FF2009F495C060E3CE015C
:100970000E9483018FE19EE40197F1F700C000001F
:1009800060E3CE010E9483018FE891E00197F1F7C7
:1009900000C0000060E3CE010E9483018FE891E077
:1009A0000197F1F700C00000F1108EC060E16062B5
:1009B000EE2009F495C084E0682B8D85E0FA85F976
:1009C0008D87143608F08EC080E0682BCE010E941F
:1009D00016038F8588608F8768E0CE010E9416031A
:1009E00061E0CE010E9416038D8586FF7DC066E022
:1009F00088230CF47BC0CE010E9416036CE0CE016C
:100A00000E9416038F8584608F878D7F8F879E85D8
:100A10009E7F9E87292F2F772E878E7F8F879170BD
:100A20009E87E12FF0E0CF0162E370E00E94D011D9
:100A30002FEF260F2370220F220F220F8D85877E26
:100A4000282B2D87CF01880F991F64E670E00E9444
:100A5000D0118150982F9295990F907E3C853F71CF
:100A6000932B9C878695869586958770287F282B63
:100A70002D87198A188A81E0DF91CF911F910F91FC
:100A8000FF90EF900895E885F9851082EE81FF814F
:100A90008FEF8083F1CE60E3CE010E9416038FE1D9
:100AA0009EE40197F1F700C0000060E3CE010E94D0
:100AB00016038FE891E00197F1F700C0000060E3B2
:100AC000CE010E9416036ACF60E2CE010E9483012C
:100AD0008FE891E00197F1F700C0000060E067CF78
:100AE00080E06ACF88E071CF64E082CF616083CF1D
:100AF000CF93DF93C82FD92F61E0CE010E94160358
:100B0000882359F09E85292F2F772E872F852E7FBA
:100B10002F8791709E87198A188ADF91CF91089547
:100B2000CF93DF93C82FD92F623069F170F4662319
:100B300009F480C0613009F080C08D8588718823F8
:100B400009F47BC090E4940F76C0633009F075C05F
:100B50008D858871883109F44DC0883109F45AC0F7
:100B6000883109F06AC09C859295969597708D851D
:100B70008770880F880F880F892B833109F05DC03B
:100B800094E5940F58C08D8588718831A9F088311B
:100B900011F1883109F051C09C8592959695977016
:100BA0008D858770880F880F880F892B833109F016
:100BB00044C094E1940F3FC02C8522952695277060
:100BC0009D859770990F990F990F922B9B30F9F68D
:100BD0009CE0940F30C02C852295269527709D852A
:100BE0009770990F990F990F922B9F3091F690E182
:100BF000940F21C02C852295269527709D8597708E
:100C0000990F990F990F922B9B3009F0A6CF9CE476
:100C1000940F11C02C852295269527709D8597707D
:100C2000990F990F990F922B9F3009F099CF90E56A
:100C3000940F01C0942F9F3F31F4198A188A81E0E4
:100C4000DF91CF910895262F2795222727958E850E
:100C50008F77282B2E8761FB882780F93F853E7F81
:100C6000832B8F874F73440F2178422B4E87692F38
:100C70006068CE010E941603E0CFCF93DF93C82FA8
:100C8000D92F9E85991F9927991F8F858170880F6D
:100C9000892B8F5F6D85669566956695637070E0AC
:100CA0006F5F7F4F90E00E94D01140E0682FCE012F
:100CB0000E949005882311F0198A188ADF91CF913C
:100CC00008950F931F93CF93DF93C82FD92F162F1B
:100CD000042F8E8586958F73883210F04111BBC02A
:100CE0008C8584FDBEC0EA81FB8140812C812695E4
:100CF00026952695277081E090E0BC0102C0660F22
:100D0000771F2A95E2F79B01242B2083EA81FB8140
:100D100030812C81277002C0880F991F2A95E2F735
:100D20008095832380838C8583FFB6C0E885F98511
:100D3000408187702FE030E0D90102C0AA0FBB1FAD
:100D40008A95E2F7CD01809584238083E885F98533
:100D50004081812F82958F7090E05C85577002C032
:100D6000880F991F5A95E2F7842B8083EA81FB81D3
:100D700060814C81477081E090E0DC0102C0AA0FE5
:100D8000BB1F4A95E2F7AD01462B4083B5E0BA950B
:100D9000F1F70000EA81FB8150814C81477002C06D
:100DA000880F991F4A95E2F780958523808345E057
:100DB0004A95F1F70000E885F98590818C85877068
:100DC00002C0220F331F8A95E2F720952923208342
:100DD000E885F98520811F70812F90E03C85377070
:100DE00002C0880F991F3A95E2F7822B8083EA812F
:100DF000FB8140812C81277081E090E0BC0102C022
:100E0000660F771F2A95E2F79B01242B208375E05C
:100E10007A95F1F70000EA81FB8130812C812770FF
:100E200002C0880F991F2A95E2F78095832380835B
:100E30008C8584FD04C085ED8A95F1F700000023C0
:100E400051F09E85892F86958F738F5F8F73880FE2
:100E50009178892B8E8781E0DF91CF911F910F913F
:100E60000895CE010E941302EA81FB8130818C81BA
:100E700082958695869583702D812170220F220F91
:100E8000282B81E090E002C0880F991F2A95E2F795
:100E900080958323808327CFE885F9851083A7CFAA
:100EA000CF93DF93682FE0915201F0915301848535
:100EB000829586958770D585D770DD0FDD0FDD0FA4
:100EC000D82BDF5F6A30D1F4C685C695CF7309C0D1
:100ED00041E060E280915201909153010E946106CD
:100EE000CF5FCD17A8F380915201909153010E94DA
:100EF0003D0680E090E0DF91CF91089541E0CF0181
:100F00000E946106F6CFE82FF92F1182108213821A
:100F10001282158214828681887F868310861782CA
:100F2000128611868385887F838714868585982F0E
:100F3000987F9587807C85878F7B85878F7785874E
:100F400086858E7F8687817082608687108A178665
:100F5000128A118A0895CF93DF93E82FF92F8585A0
:100F600086FB882780F9882369F1958597FB882778
:100F700080F9992374F52385277095859770290F3B
:100F80003327331F283031054CF59681977025851E
:100F90002695269526952770492F420F5527551FD0
:100FA000483051050CF52485213009F465C0223004
:100FB00009F498C02223F1F08FEF9FEF928B818B81
:100FC00080E004C020ED30E0328B218BDF91CF91A7
:100FD00008952EEF3FEF328B218BF8CF8AEF9FEFF2
:100FE000928B818B80E0F2CF89EF9FEF928B818B88
:100FF00080E0ECCFA081B1817C914FE050E09A017C
:1010000002C0220F331F9A95E2F7209527232C93D5
:10101000A281B3819C9126812770EA0102C0CC0F86
:10102000DD1F2A95E2F79C2B9C93A781B0859C91AC
:1010300023852770EA0102C0CC0FDD1F2A95E2F755
:101040009C2B9C93A185B2859C912385277002C01F
:10105000440F551F2A95E2F7942B9C9391E0611160
:1010600001C090E0990F26852170922B96879160A0
:101070009687128A118AAACFA081B1817C914FE014
:1010800050E09A0102C0220F331F9A95E2F7209593
:1010900027232C93A281B3819C912681277002C0C3
:1010A000440F551F2A95E2F7942B9C93A781B08596
:1010B0009C912385277047E050E0EA0102C0CC0FE5
:1010C000DD1F2A95E2F79C2B9C93A185B2859C910C
:1010D0002385277002C0440F551F2A95E2F7942BF1
:1010E0009C93BCCFA081B1817C914FE150E09A01EB
:1010F00002C0220F331F9A95E2F7209527232C93E5
:10110000A281B3819C912681277002C0440F551F94
:101110002A95E2F7942B9C93A781B0859C91238517
:10112000277047E050E0EA0102C0CC0FDD1F2A958E
:10113000E2F79C2B9C93A185B2859C912385277017
:1011400002C0440F551F2A95E2F7942B9C9386CF3B
:101150000F93CF93DF93E82FF92F862F972FC22F6E
:10116000D32F11821082138212821582148226815B
:10117000287F268310861782128611862385287F72
:10118000238725852F7B25879C0123523109293010
:10119000310508F047C09E0123523109293031053D
:1011A00008F046C09C0120523109ABEABAEA0E941D
:1011B000EA119C01369527958E7F820F931F9C0123
:1011C0002F5D3F4F318320832F5F3F4F3383228337
:1011D00080969583848347708681887F482B4683D9
:1011E0009E01205231090E94EA119C0136952795F3
:1011F0008E7F820F931F9C012F5D3F4F3087278387
:1012000082969287818707708385887F082B038762
:10121000858580648587128A118A81E0DF91CF916C
:101220000F9108958BEF9FEF928B818B80E0F6CF2B
:101230008CEF9FEF928B818B80E0F0CFDF92EF926B
:10124000FF920F931F93CF93DF9300D0CDB7DEB7FC
:101250000C851D858E85D8011D969C911D979F77C5
:101260001D969C931D97813009F440C0823009F48B
:1012700046C0882339F08DEF9FEFF801928B818B68
:1012800080E097C0977C98611D969C931D97987FEE
:1012900093601D969C93D8011C968C931C971D9669
:1012A0008C911D97282F269526952695277030E03E
:1012B0002F5F3F4F877090E00196289FB001299FD4
:1012C000700D389F700D11241F968D919C910E9476
:1012D0004413282F392FF801308B2787232BE1F077
:1012E000CE010F969A838983D12C47C0F80195854A
:1012F000977C98619587987F92609587CCCF1D9653
:101300009C911D97977C90621D969C931D97987F4A
:1013100092601D969C93BFCF8BE090E0928B818B67
:1013200080E047C0E981FA81CF0102969A838983E0
:10133000F080D8011F96ED91FC9150971D968C91ED
:10134000869586958695877090E00196829FB0017C
:10135000839F700D929F700D1124460F571FE40F4D
:10136000F51FF082E394F8018585877090E04E2D9B
:1013700050E084179507B4F6D394D8011D968C914C
:101380001D97869586958695877090E02D2D30E087
:101390008217930714F0E12CE6CF1D968C911D97D0
:1013A00080681D968C931D9752961C921E925197A1
:1013B00081E00F900F90DF91CF911F910F91FF90DF
:1013C000EF90DF900895E82FF92F158280858E7FAA
:1013D000808780818E7F80838D7F80838B7F8083D9
:1013E0008FE090E0978386831382148212821182A9
:1013F0000895262F372F019709F008952F3F3F4F6B
:10140000E1F782E691E00E94E309F7CF08951F9289
:101410000F920FB60F9211242F933F934F935F9328
:101420006F937F938F939F93AF93BF93EF93FF93AC
:101430000E94060AFF91EF91BF91AF919F918F910A
:101440007F916F915F914F913F912F910F900FBEC0
:101450000F901F9018956FEF7FEF81E090E00E9452
:10146000F90908956FEF7FEF80E090E00E94F9099D
:101470000895E82FF92F118280818E7F8083138257
:1014800012820895262F372F019709F008952F3FD4
:101490003F4FE1F78BE691E00E94390AF7CF0895BC
:1014A0001F920F920FB60F9211242F933F934F93D9
:1014B0005F936F937F938F939F93AF93BF93EF93BC
:1014C000FF930E944F0AFF91EF91BF91AF919F91BF
:1014D0008F917F916F915F914F913F912F910F90DD
:1014E0000FBE0F901F9018956FEF7FEF81E090E097
:1014F0000E94420A08956FEF7FEF80E090E00E9423
:10150000420A0895E82FF92F118280818E7F80830F
:10151000138212820895262F372F019709F008951C
:101520002F3F3F4FE1F78FE691E00E94820AF7CF0D
:1015300008951F920F920FB60F9211242F933F938D
:101540004F935F936F937F938F939F93AF93BF93CB
:10155000EF93FF930E94980AFF91EF91BF91AF9193
:101560009F918F917F916F915F914F913F912F91BB
:101570000F900FBE0F901F9018956FEF7FEF81E0D7
:1015800090E00E948B0A08956FEF7FEF80E090E07B
:101590000E948B0A0895E82FF92F118280818E7F97
:1015A0008083138212820895262F372F019709F026
:1015B00008952F3F3F4FE1F783E791E00E94CB0A68
:1015C000F7CF08951F920F920FB60F9211242F9309
:1015D0003F934F935F936F937F938F939F93AF93BB
:1015E000BF93EF93FF930E94E10AFF91EF91BF91A8
:1015F000AF919F918F917F916F915F914F913F91AB
:101600002F910F900FBE0F901F9018956FEF7FEFE7
:1016100081E090E00E94D40A08956FEF7FEF80E0B0
:1016200090E00E94D40A0895E82FF92F118280815A
:101630008E7F8083138212820895262F372F019781
:1016400009F008952F3F3F4FE1F787E791E00E94AF
:10165000140BF7CF08951F920F920FB60F9211241B
:101660002F933F934F935F936F937F938F939F93AA
:10167000AF93BF93EF93FF930E942A0BFF91EF91DB
:10168000BF91AF919F918F917F916F915F914F919A
:101690003F912F910F900FBE0F901F9018956FEFF5
:1016A0007FEF81E090E00E941D0B08956FEF7FEFC8
:1016B00080E090E00E941D0B0895E82FF92F118221
:1016C00080818E7F8083138212820895262F372F88
:1016D000019709F008952F3F3F4FE1F78BE791E025
:1016E0000E945D0BF7CF08951F920F920FB60F92D5
:1016F00011242F933F934F935F936F937F938F9317
:101700009F93AF93BF93EF93FF930E94730BFF914F
:10171000EF91BF91AF919F918F917F916F915F9169
:101720004F913F912F910F900FBE0F901F901895E2
:101730006FEF7FEF81E090E00E94660B08956FEFFE
:101740007FEF80E090E00E94660B0895E82FF92F6C
:101750001182128280818E7F808314821382089589
:10176000262F372F019709F008952F3F3F4FE1F7BC
:101770008FE791E00E94A60BF7CF08950895089592
:101780001F920F920FB60F9211242F933F934F93F6
:101790005F936F937F938F939F93AF93BF93EF93D9
:1017A000FF930E94BD0BFF91EF91BF91AF919F916D
:1017B0008F917F916F915F914F913F912F910F90FA
:1017C0000FBE0F901F9018951F920F920FB60F9299
:1017D00011242F933F934F935F936F937F938F9336
:1017E0009F93AF93BF93EF93FF930E94BE0BFF9124
:1017F000EF91BF91AF919F918F917F916F915F9189
:101800004F913F912F910F900FBE0F901F90189501
:101810001F920F920FB60F9211242F933F934F9365
:101820005F936F937F938F939F93AF93BF93EF9348
:10183000FF930E94BF0BFF91EF91BF91AF919F91DA
:101840008F917F916F915F914F913F912F910F9069
:101850000FBE0F901F9018956FEF7FEF81E090E023
:101860000E94B00B08956FEF7FEF80E090E00E9440
:10187000B00B0895E82FF92F1182128280818E7F9C
:101880008083148213820895262F372F019709F041
:1018900008952F3F3F4FE1F784E891E00E943A0C12
:1018A000F7CFCF93DF93E82FF92FC0E8D0E08881FE
:1018B000A1E8B0E03C918C7F377E262F2370282B47
:1018C000862F8695869590E0880F991F880F991F1F
:1018D000880F991F832B887F842B28838C936283A6
:1018E00041838081816080831482138281E0DF9153
:1018F000CF910895DC01E0E8F0E090819F7362955C
:10190000660F660F607C692B6F7C80E1489FA001A9
:101910001124462B408314961C921E92139781E04B
:10192000089508950895089508951F920F920FB68F
:101930000F9211242F933F934F935F936F937F9355
:101940008F939F93AF93BF93EF93FF930E94910C5C
:10195000FF91EF91BF91AF919F918F917F916F9187
:101960005F914F913F912F910F900FBE0F901F905D
:1019700018951F920F920FB60F9211242F933F9339
:101980004F935F936F937F938F939F93AF93BF9387
:10199000EF93FF930E94920CFF91EF91BF91AF9153
:1019A0009F918F917F916F915F914F913F912F9177
:1019B0000F900FBE0F901F9018951F920F920FB6A9
:1019C0000F9211242F933F934F935F936F937F93C5
:1019D0008F939F93AF93BF93EF93FF930E94930CCA
:1019E000FF91EF91BF91AF919F918F917F916F91F7
:1019F0005F914F913F912F910F900FBE0F901F90CD
:101A000018951F920F920FB60F9211242F933F93A8
:101A10004F935F936F937F938F939F93AF93BF93F6
:101A2000EF93FF930E94940CFF91EF91BF91AF91C0
:101A30009F918F917F916F915F914F913F912F91E6
:101A40000F900FBE0F901F9018956FEF7FEF81E002
:101A500090E00E94440C08956FEF7FEF80E090E0EB
:101A60000E94440C0895E82FF92F11821282808180
:101A70008E7F8083148213820895262F372F01973B
:101A800009F008952F3F3F4FE1F789E891E00E9468
:101A9000330DF7CF0895089508951F920F920FB652
:101AA0000F9211242F933F934F935F936F937F93E4
:101AB0008F939F93AF93BF93EF93FF930E944A0D31
:101AC000FF91EF91BF91AF919F918F917F916F9116
:101AD0005F914F913F912F910F900FBE0F901F90EC
:101AE00018951F920F920FB60F9211242F933F93C8
:101AF0004F935F936F937F938F939F93AF93BF9316
:101B0000EF93FF930E944B0DFF91EF91BF91AF9127
:101B10009F918F917F916F915F914F913F912F9105
:101B20000F900FBE0F901F9018951F920F920FB637
:101B30000F9211242F933F934F935F936F937F9353
:101B40008F939F93AF93BF93EF93FF930E944C0D9E
:101B5000FF91EF91BF91AF919F918F917F916F9185
:101B60005F914F913F912F910F900FBE0F901F905B
:101B700018956FEF7FEF81E090E00E943D0D089592
:101B80006FEF7FEF80E090E00E943D0D089527E029
:101B900030E0FC013383228380E0089527E030E0C9
:101BA000FC013383228380E0089527E030E0FC01CC
:101BB0003383228380E0089527E030E0FC01338303
:101BC000228380E0089527E030E0FC013383228304
:101BD00080E0089527E030E0FC013383228380E039
:101BE000089580E090E00895FC018281938108953A
:101BF000E82FF92F9B013370862F8295880F807E06
:101C000095859F71892B85876695669566958685EE
:101C1000807E682B6687832F83708295880F807EF5
:101C20006F79862B8687868140FB80F98683848145
:101C3000816084831086178281E0089585E090E0BA
:101C40000895FC01878190850895E82FF92F8AE097
:101C500091E0918380838EE191E091838083128A69
:101C6000118A83858078838713868485807C848726
:101C700014868585807E858784818D7F84838B7F94
:101C8000848384E190E0908B878710861782089583
:101C90002EE131E0FC013183208308950F931F93DF
:101CA000CF93DF93C82FD92F062F172FC130D1051F
:101CB00051F0CD2B19F40F3F1F4F69F0DF91CF91F9
:101CC0001F910F9108950F3F100799F78FE891E04A
:101CD0000E94250EEECF8FE891E00E94480EEECFD5
:101CE000CF92DF92EF92FF92CF93DF9300D000D09C
:101CF00000D0CDB7DEB78D839E83AD81BE811F96A8
:101D00008D919C91892BD9F4CC24CA94DC2C76013A
:101D100082EA91E00E94E51069837A838B839C8339
:101D2000C616D706E806F906F8F08091BC0080FDDB
:101D3000EFCFED81FE811086178281E01EC082EA1E
:101D400091E00E94E51069837A838B839C83ED8107
:101D5000FE8187859089C980DA80EB80FC80C80E7F
:101D6000D91EE11CF11CD4CF83E490E0AD81BE818B
:101D700018969C938E93179780E00F900F900F907A
:101D80000F900F900F90DF91CF91FF90EF90DF9029
:101D9000CF900895E82FF92F84818B7F848388EF7B
:101DA00090E09287818785EA8093BC001086178235
:101DB00081E008950F931F93CF93DF93C82FD92FFE
:101DC000062F172F8C8182FB882780F9882311F03A
:101DD00090E011C020E430E038872F8310C0E989FB
:101DE000FA89292F30E0D801A20FB31FE20FF31FA9
:101DF00021812C939F5F941790F318861F82DF91A7
:101E0000CF911F910F910895AF92BF92CF92DF9221
:101E1000EF92FF920F931F93CF93DF93C82FD92F89
:101E2000A62EF42EB22EC02ED12E1C811695117026
:101E30001123B9F0EE2019F0C114D10411F1CE0133
:101E40000E94700E182F882381F0F11046C0E98996
:101E5000FA896A2D660F6083E989FA89B18290E078
:101E600025C084E090E098878F83812FDF91CF9108
:101E70001F910F91FF90EF90DF90CF90BF90AF90A8
:101E8000089581E190E098878F8310E0EECF292FAD
:101E900030E0E989FA89A9014E5F5F4FE40FF51F31
:101EA0002C0D3D1DD9018C9180839F5F9E1578F389
:101EB00092E09E0DE794EE24E7948B858F77E82AD5
:101EC000EB8696959F738C85807C892B8C87CE01C1
:101ED0000E94CA0E18861F82C8CFE989FA898A2D06
:101EE000880F8083E989FA89B1828B858F778B8708
:101EF0008C85807C81608C87CE010E94CA0ECE01C9
:101F00000E94700E811102C0182FAFCF6A2D70E0B1
:101F1000660F771FE989FA896160608381E08E0D21
:101F2000982F9795992797952B852F77922B9B879D
:101F300086958F739C85907C892B8C87CE010E941F
:101F4000CA0ECE010E94700E811102C0182F8DCFD3
:101F50004E2DB601CE010E94DA0E8111BBCF182F93
:101F600084CFEF920F931F93CF93DF93C82FD92F76
:101F7000962F8C81817081110AC021E430E038876E
:101F80002F83DF91CF911F910F91EF9008958D8551
:101F90008295869587706E85660F660F660F682B33
:101FA000E22E042F152F292F41E0CE010E94040FAD
:101FB000882339F318861F82E4CFEF920F931F9383
:101FC000CF93DF93C82FD92F962F8C8181708111E9
:101FD0000AC021E430E038872F83DF91CF911F9131
:101FE0000F91EF9008958D858295869587706E8507
:101FF000660F660F660F682BE22E042F152F292F10
:1020000040E0CE010E94040F882339F318861F8216
:10201000E4CFE82FF92F8091B9008C7F883309F441
:102020006EC0A8F0803509F458C08835C9F5A1897B
:10203000B28980918E01A80FB11D8091BB008C9355
:1020400084818460848384E98093BC00089588310E
:1020500021F0F8F0883209F056C09385991F99272E
:10206000991F84858F73880F892B90918E01981703
:1020700068F50188F289E02D81E0890F80938E0157
:10208000E90FF11D80818093BB0085E88093BC003F
:102090000895883011F08031B1F510928E01DDCFB6
:1020A000803489F520918E0130E09385991F99271E
:1020B000991F84858F73880F892B8150990B28175E
:1020C0003907CCF485EC8093BC000895848184604A
:1020D000848384E98093BC0008959091BB00A1891A
:1020E000B28980918E0121E0280F20938E01A80FE4
:1020F000B11D9C93D7CF85E88093BC00089585EAF5
:102100008093BC0008958091B900858384E080931A
:10211000BC0008951F920F920FB60F9211242F93B7
:102120003F934F935F936F937F938F939F93AF935F
:10213000BF93EF93FF938FE891E00E940910FF9106
:10214000EF91BF91AF919F918F917F916F915F912F
:102150004F913F912F910F900FBE0F901F901895A8
:102160006FEF7FEF81E090E00E944E0E08956FEFD9
:102170007FEF80E090E00E944E0E0895E82FF92F47
:1021800080E094E2A4EFB0E086839783A087B187D4
:1021900080839183A283B383158214821686178667
:1021A000108A118A82898E7F828B148A138A0895FD
:1021B000262F372F019709F008952F3F3F4FE1F762
:1021C00082EA91E00E94BE10F7CFCF93DF9300D058
:1021D00000D0CDB7DEB7E82FF92F82859385A4858F
:1021E000B58589839A83AB83BC83BC01CD010F90F5
:1021F0000F900F900F90DF91CF9108956FEF7FEFC9
:1022000081E090E00E94D81008956FEF7FEF80E0AA
:1022100090E00E94D8100895CDB7DEB7AA970FB608
:10222000F894DEBF0FBECDBFCE0101960E947400B0
:102230007E0123E1E20EF11CC7010E94830704E046
:102240002AE230E040E06AE270E0C7010E94A8089C
:102250001F9284E48F931F9286E48F931F9280E3F2
:102260008F931F9285E48F931F9283E48F931F9225
:1022700083E38F931F9282E38F931F9281E38F9367
:102280001F9282E48F931F9286E38F931F9285E3C0
:102290008F931F9284E38F931F9281E48F931F92F9
:1022A00089E38F931F9288E38F931F9287E38F9325
:1022B0001F92FF92EF920E941E090FB6F894DEBFA4
:1022C0000FBECDBF6AE0C7010E94AB0703E022E06A
:1022D00041E067E270E0CE0101960E94CD0042E04D
:1022E00064E270E0CE0101960E94340101E021E039
:1022F00040E06CE6CE0101960E940104CE010196F9
:102300000E946B018EE291E00E9403149FEF29E688
:1023100088E1915020408040E1F700C00000CE01EC
:1023200001960E94780584B1826084B984B184608A
:1023300084B9CE0186960E943A0C40E062E0CE015C
:1023400086960E947A0C42E06EE0CE0186960E944C
:10235000510C8FB7F8942FEF3FEF30938700209305
:1023600086008FBF8FB7F894E8E8F0E020E134EA08
:10237000318320838FBF8FB7F89420E23EE431830E
:1023800020838FBF8FB7F8942FEC37E03183208301
:102390008FBF85E09AE89093890080938800F9CFF9
:1023A00097FB072E16F4009407D077FD09D00E9402
:1023B000F91107FC05D03EF4909581959F4F089543
:1023C000709561957F4F0895EE0FFF1F0590F49172
:1023D000E02D0994A29FB001B39FC001A39F700D8F
:1023E000811D1124911DB29F700D811D1124911D1D
:1023F0000895AA1BBB1B51E107C0AA1FBB1FA6174C
:10240000B70710F0A61BB70B881F991F5A95A9F79D
:1024100080959095BC01CD0108950F931F93CF93A4
:10242000DF939C01029710F422E030E0E091480134
:10243000F091490180E090E0A0E0B0E0309791F4A5
:10244000009709F445C0821B930B84309105B8F5C1
:102450008A819B816115710569F1FB0193838283F8
:10246000FE0111C04081518102811381421753073F
:10247000F0F04217530799F4109761F012960C93FD
:10248000129713961C933296CF01DF91CF911F9133
:102490000F9108950093480110934901F4CF0097DC
:1024A00019F04817590718F4CA01BD01EF01DF01FF
:1024B000F801C4CF9093490180934801D1CFFE0128
:1024C000E80FF91F21933193029799838883DCCF1A
:1024D00080914A0190914B01892B41F48091020136
:1024E0009091030190934B0180934A0180910001E8
:1024F00090910101009741F48DB79EB7409104017E
:1025000050910501841B950B40914A0150914B015C
:102510004817590708F0B8CF841B950B821793070B
:1025200008F4B2CFB9016E5F7F4F8617970708F4A2
:10253000ABCF640F751F70934B0160934A01FA0192
:1025400021933193A1CFCF93DF939C010097D9F0D2
:10255000FC01329713821282A0914801B091490187
:10256000109709F086C080819181280F391F8091D2
:102570004A0190914B018217930709F05FC0F093D5
:102580004B01E0934A01DF91CF910895CE17DF0709
:1025900008F059C0AE010A80DB81C02D2097B1F749
:1025A000EA01FB83EA8329913991CE01820F931FBF
:1025B000E817F90761F4808191810296820F931FD9
:1025C000EA0199838883828193819B838A83E0E0F7
:1025D000F0E012968D919C911397009709F04EC0F0
:1025E000ED01899199918C0F9D1F20914A013091A5
:1025F0004B012817390739F6309709F042C010927D
:10260000490110924801B0934B01A0934A01BBCFFE
:10261000B383A28380819181280F391FA217B3074A
:1026200069F402962D913C911197820F931F91832B
:10263000808312968D919C9193838283F0934901BC
:10264000E0934801A0CFD383C28380819181280F7A
:10265000391FC217D30709F0A3CF02962881398109
:10266000820F931F918380838A819B8193838283CE
:1026700097CFAE17BF0760F6ED018CCFFD01DC01EF
:10268000A8CF13821282BFCFA0E0B0E0EAE4F3E16A
:102690000C9431147C01CB01E114F10449F40E9443
:1026A0000D12EC01CE01CDB7DEB7E0E10C944D1474
:1026B000F701E60FF71FD7011297C0E0D0E0EA1745
:1026C000FB0780F30D911C91119706171707B0F0C7
:1026D0000530110588F09801245031092617370775
:1026E00058F0061B170B02501109019311936D93BB
:1026F0007C93CF010E94A312E701D4CF4B01801A33
:10270000910A5701A00EB11EC0914801D091490114
:10271000412C512C60E070E0209731F520914A0166
:1027200030914B012A153B0509F056C04816590651
:1027300008F052C0209100013091010121153105AE
:1027400041F42DB73EB74091040150910501241B7F
:10275000350BE217F30708F0A5CFF0934B01E09398
:102760004A018D939C93C8CF288139816A807B80F0
:10277000CA15DB0551F5690142E0C40ED11CC8142D
:10278000D90418F1A801481B590B420F531FEA0145
:102790002296259778F062827382518340838D93CD
:1027A0009C936115710561F0DB011396FC93EE9328
:1027B0001297A2CFC8010296820F931FF301EFCFA9
:1027C000F0934901E093480197CF4216530608F46D
:1027D0002901BE01E301A0CF0E940D12EC01009778
:1027E00009F460CFA801B7010E94FA13C7010E9443
:1027F000A31258CFFB01DC0102C001900D924150A1
:102800005040D8F708950F931F93CF93DF93E09133
:102810004E01F0914F01238100E010E021FD0EC038
:102820000FEF1FEFC801DF91CF911F910F91089516
:102830000995892B11F00FEF1FEFCE01EC01899163
:1028400060914E0170914F01DB011896ED91FC9162
:102850008111EECF8AE00995892B21F3E1CF2F92E8
:102860003F924F925F926F927F928F929F92AF9220
:10287000BF92CF92DF92EF92FF920F931F93CF936D
:10288000DF93CDB7DEB7CA1BDB0B0FB6F894DEBF04
:102890000FBECDBF09942A88398848885F846E842A
:1028A0007D848C849B84AA84B984C884DF80EE8074
:1028B000FD800C811B81AA81B981CE0FD11D0FB67D
:1028C000F894DEBF0FBECDBFED01089510E0CFE359
:1028D000D0E004C0FE010E94E4112196CA34D10761
:0628E000C9F7F894FFCFD8
:1028E6000000B701200000000000C70DCE0DD50D79
:1028F600DC0DE30DEA0DF10DF40D00000000B10F43
:10290600CE0DD50DDD0FF80DEA0D1E0E210E202081
:1029160020476F6F64204D6F726E696E6721203A93
:082926002D292020200A0000E9
:00000001FF
