:100000000C944A000C944C0B0C94950B0C94DE0B46
:100010000C94270C0C94700C0C9472000C94490EE8
:100020000C946D0E0C94910E0C94D90D0C94910DB2
:100030000C94B50D0C94FD0D0C94BC0C0C94E00CC0
:100040000C94040D0C9472000C9472000C947200C9
:100050000C9472000C94030B0C9472000C947200BC
:100060000C9486110C947200270B700BB90B020CC8
:100070004B0C940C280D210EB50EAC11FA112E0B61
:10008000770BC00B090C520C9B0C2F0D280EBC0ECD
:10009000B311011211241FBECFEFD8E0DEBFCDBFD8
:1000A00011E0A0E0B1E0E4EFF6E302C005900D92AC
:1000B000AE39B107D9F722E0AEE9B1E001C01D9237
:1000C000AF30B207E1F710E0CFE3D0E004C02197F2
:1000D000FE010E943016C433D107C9F70E94E21214
:1000E0000C946D1B0C940000E82FF92FAAEAB1E0E4
:1000F0008AE997E019969C938E9318971B961C9209
:100100001E921A9782E013968C9313971D961C9259
:100110001E921C9711821082138212828481982F62
:10012000987F9483807C8483148285818E7F8583ED
:100130001782168211861086138612868485887F20
:100140008487877F84878F7E84878F718487858566
:10015000982F987F9587807E85878F7D858780649F
:1001600085878F77858786858E7F8687982F91787C
:1001700096878170868787858E7F87878D7F878723
:100180008B7F8787877F87878F7E87878F7D87870E
:100190008F7B8787118A108A08950F93E82FF92F94
:1001A000862F972F522FBC01635271096930710558
:1001B00008F041C0483008F045C0283008F048C079
:1001C000083008F04BC09C0120523109ABEABAEA72
:1001D0000E9436169C01369527958E7F820F931FBD
:1001E0009C012F5D3F4F31832083829693838283CE
:1001F00047708481887F842B84835770252F220F3A
:10020000220F220F877C282B2483802F8295880F32
:10021000880F807C2F73822B848302FB002700F9D8
:1002200085818E7F082B0583878580628787118A69
:10023000108A81E005C083ED90E0918B808B80E097
:100240000F91089587ED90E0918B808B80E0F8CF3F
:1002500087ED90E0918B808B80E0F2CF87ED90E08E
:10026000918B808B80E0ECCFE82FF92F262F372F52
:10027000C9018397099718F5483038F5205231099C
:10028000ABEABAEA0E9436169C01369527958E7F16
:10029000820F931F9C012F5D3F4F378326832F5F73
:1002A0003F4F318720878096938782874770848568
:1002B000887F842B8487118A108A81E0089583EDDA
:1002C00090E0918B808B80E0089587ED90E0918B9A
:1002D000808B80E00895E82FF92FA2EAB1E08AEA46
:1002E00091E015969C938E93149713969C938E93FE
:1002F00012978D939C93F093A901E093A801118A22
:10030000108A81E00895CF93DF93E82FF92F848539
:1003100084FF17C0A281B3813C9184818295869528
:100320008695837025812170220F220F282B81E072
:1003300090E002C0880F991F2A95E2F780958323E9
:100340008C93A281B3814C91848186958695869504
:10035000877021E030E0E90102C0CC0FDD1F8A95F3
:10036000E2F7CE01809584238C93A281B3814C91D6
:1003700084818770E90102C0CC0FDD1F8A95E2F706
:10038000CE01809584238C93A085B1855C914485B2
:1003900047708FE090E002C0880F991F4A95E2F7FE
:1003A000809585238C93A085B1858C9162956F7023
:1003B00070E09485977002C0660F771F9A95E2F7F8
:1003C000862B8C93A281B3814C9184818770B90173
:1003D00002C0660F771F8A95E2F7CB01842B8C93BE
:1003E00075E07A95F1F70000A281B3819C91848138
:1003F000877002C0220F331F8A95E2F720952923C8
:100400002C9385E08A95F1F70000848584FF03C072
:10041000878583FD04C0C5EDCA95F1F7000081E032
:10042000DF91CF910895E82FF92F848583FF55C080
:10043000A085B1854C9187702FE030E0B90102C0F2
:10044000660F771F8A95E2F7CB01809584238C9302
:10045000A681B7819C918485877002C0220F331FCB
:100460008A95E2F7209529232C93A281B3814C91A0
:100470008481869586958695877021E030E0B90164
:1004800002C0660F771F8A95E2F7CB01809584231F
:100490008C93A281B3814C91948192959695969577
:1004A000937085818170880F880F892BB90102C0F4
:1004B000660F771F8A95E2F7CB01842B8C93A2817C
:1004C000B3819C918481877002C0220F331F8A956B
:1004D000E2F7209529232C932FC0A085B1851C928B
:1004E000A681B7811C92C1CF207848C0A281B38178
:1004F0003C914481477081E090E0BC0102C0660FEE
:10050000771F4A95E2F7362B3C9375E07A95F1F721
:100510000000A281B3814C913481377002C0880FF2
:10052000991F3A95E2F7809584238C9385E08A950C
:10053000F1F700002223C9F1A281B3818C9194814B
:10054000977021E030E002C0220F331F9A95E2F746
:10055000822B8C9375E07A95F1F70000A285B38524
:100560002C91848583FFC0CF382F377088E090E0CE
:1005700002C0880F991F3A95E2F72823A281B38120
:100580004C913481377081E090E002C0880F991F50
:100590003A95E2F7809584238C9385E08A95F1F76C
:1005A0000000848583FFC6CFA1CFA281B3813C9197
:1005B0008481829586958695837025812170220F8E
:1005C000220F282B81E090E002C0880F991F2A9506
:1005D000E2F7809583238C93848583FF1EC0A085DA
:1005E000B1854C9187702FE030E0B90102C0660FF1
:1005F000771F8A95E2F7CB01809584238C93A6819F
:10060000B7818C919485977002C0220F331F9A9501
:10061000E2F7822B8C9381E00895A085B1851C922E
:100620000680F781E02D8FEF8083F5CF1F93CF9366
:10063000DF93C82FD92F162F8C8584FF1AC08F8582
:1006400083FDD0C0EA81FB8130818C8182958695C3
:10065000869583702D812170220F220F282B81E037
:1006600090E002C0880F991F2A95E2F780958323B6
:100670008083EA81FB8140818C8186958695869571
:10068000877021E030E0B90102C0660F771F8A95BC
:10069000E2F7CB01809584238083EA81FB819081FE
:1006A0008C81877002C0220F331F8A95E2F7209554
:1006B000292320838C8583FF99C0E885F9854081B3
:1006C00087702FE030E0D90102C0AA0FBB1F8A95C6
:1006D000E2F7CD01809584238083E885F985408108
:1006E000812F82958F7090E05C85577002C0880FD3
:1006F000991F5A95E2F7842B8083EA81FB81608100
:100700004C81477081E090E0DC0102C0AA0FBB1F62
:100710004A95E2F7AD01462B4083B5E0BA95F1F773
:100720000000EA81FB8150814C81477002C0880F34
:10073000991F4A95E2F780958523808345E04A9585
:10074000F1F70000E885F98590818C85877002C0FB
:10075000220F331F8A95E2F7209529232083E8850D
:10076000F9852081812F8F7090E03C85377002C021
:10077000880F991F3A95E2F7822B8083EA81FB81EB
:1007800040812C81277081E090E0BC0102C0660F9F
:10079000771F2A95E2F79B01242B208375E07A9539
:1007A000F1F70000EA81FB8130812C81277002C0C3
:1007B000880F991F2A95E2F780958323808385E02F
:1007C0008A95F1F700008C8584FD07C01150123026
:1007D00088F0B5EDBA95F1F7000081E0DF91CF9197
:1007E0001F910895CE010E9413022CCFE885F98550
:1007F0001083C4CFAFE3BFE11197F1F700C0000051
:10080000ECCFEF92FF920F931F93CF93DF93C82FFC
:10081000D92F162FE42EF22E8C8500FB84F98C87BD
:1008200020FB83F98C878F85877F8F878F7E8F87CB
:100830008D8540FB85F98D87222309F424C1E88545
:10084000F98540818C8587702FE030E0B90102C0C6
:10085000660F771F8A95E2F7CB018095842380830A
:10086000EE81FF8180819C85977002C0220F331F2B
:100870009A95E2F7822B8083EA81FB8140818C810B
:10088000877021E030E0B90102C0660F771F8A95BA
:10089000E2F7CB01809584238083E881F981408150
:1008A0008C818770B90102C0660F771F8A95E2F7C5
:1008B000CB01842B8083AA81BB818C91EC81E6954E
:1008C000E695E695E770A90102C0440F551FEA9529
:1008D000E2F7FA01E095E823EC93E881F981908151
:1008E0008C81869586958695877002C0220F331F6E
:1008F0008A95E2F7892F822B8083002371F1EA81A8
:10090000FB8140819C8192959695969593708D81FF
:100910008170880F880F892B21E030E0B90102C077
:10092000660F771F8A95E2F7CB0180958423808339
:10093000E881F98190814C814295469546954370B6
:100940008D818170880F880F842B02C0220F331F86
:100950008A95E2F7892F822B80838FE59AEE0197A3
:10096000F1F700C00000FF2009F495C060E3CE015C
:100970000E9483018FE19EE40197F1F700C000001F
:1009800060E3CE010E9483018FE891E00197F1F7C7
:1009900000C0000060E3CE010E9483018FE891E077
:1009A0000197F1F700C00000F1108EC060E16062B5
:1009B000EE2009F495C084E0682B8D85E0FA85F976
:1009C0008D87143608F08EC080E0682BCE010E941F
:1009D00016038F8588608F8768E0CE010E9416031A
:1009E00061E0CE010E9416038D8586FF7DC066E022
:1009F00088230CF47BC0CE010E9416036CE0CE016C
:100A00000E9416038F8584608F878D7F8F879E85D8
:100A10009E7F9E87292F2F772E878E7F8F879170BD
:100A20009E87E12FF0E0CF0162E370E00E94DB15CA
:100A30002FEF260F2370220F220F220F8D85877E26
:100A4000282B2D87CF01880F991F64E670E00E9444
:100A5000DB158150982F9295990F907E3C853F71C0
:100A6000932B9C878695869586958770287F282B63
:100A70002D87198A188A81E0DF91CF911F910F91FC
:100A8000FF90EF900895E885F9851082EE81FF814F
:100A90008FEF8083F1CE60E3CE010E9416038FE1D9
:100AA0009EE40197F1F700C0000060E3CE010E94D0
:100AB00016038FE891E00197F1F700C0000060E3B2
:100AC000CE010E9416036ACF60E2CE010E9483012C
:100AD0008FE891E00197F1F700C0000060E067CF78
:100AE00080E06ACF88E071CF64E082CF616083CF1D
:100AF000CF93DF93C82FD92F61E0CE010E94160358
:100B0000882359F09E85292F2F772E872F852E7FBA
:100B10002F8791709E87198A188ADF91CF91089547
:100B2000CF93DF93C82FD92F623069F170F4662319
:100B300009F480C0613009F080C08D8588718823F8
:100B400009F47BC090E4940F76C0633009F075C05F
:100B50008D858871883109F44DC0883109F45AC0F7
:100B6000883109F06AC09C859295969597708D851D
:100B70008770880F880F880F892B833109F05DC03B
:100B800094E5940F58C08D8588718831A9F088311B
:100B900011F1883109F051C09C8592959695977016
:100BA0008D858770880F880F880F892B833109F016
:100BB00044C094E1940F3FC02C8522952695277060
:100BC0009D859770990F990F990F922B9B30F9F68D
:100BD0009CE0940F30C02C852295269527709D852A
:100BE0009770990F990F990F922B9F3091F690E182
:100BF000940F21C02C852295269527709D8597708E
:100C0000990F990F990F922B9B3009F0A6CF9CE476
:100C1000940F11C02C852295269527709D8597707D
:100C2000990F990F990F922B9F3009F099CF90E56A
:100C3000940F01C0942F9F3F31F4198A188A81E0E4
:100C4000DF91CF910895262F2795222727958E850E
:100C50008F77282B2E8761FB882780F93F853E7F81
:100C6000832B8F874F73440F2178422B4E87692F38
:100C70006068CE010E941603E0CFCF93DF93C82FA8
:100C8000D92F9E85991F9927991F8F858170880F6D
:100C9000892B8F5F6D85669566956695637070E0AC
:100CA0006F5F7F4F90E00E94DB1540E0682FCE0120
:100CB0000E949005882311F0198A188ADF91CF913C
:100CC0000895FF920F931F93CF93DF93C82FD92FCF
:100CD000862F972F8230910579F18330910581F12C
:100CE000019731F1F12C00E010E0112371F164E083
:100CF0006860002361F182E0682BFF2051F181E000
:100D0000682BCE010E9416038E85F0FA80F98E873B
:100D10008F8500FB81F98F8710FB82F98F87198AF5
:100D2000188A81E0DF91CF911F910F91FF90089574
:100D3000F12C00E011E0D9CFF12C01E011E0D5CF8A
:100D4000FF24F39401E011E0D0CF60E0D1CF80E048
:100D5000D3CF80E0D5CF0F931F93CF93DF93C82FCE
:100D6000D92F162F042F8E8586958F73883210F019
:100D70004111BBC08C8584FDBEC0EA81FB814081EE
:100D80002C81269526952695277081E090E0BC0160
:100D900002C0660F771F2A95E2F79B01242B208360
:100DA000EA81FB8130812C81277002C0880F991F56
:100DB0002A95E2F78095832380838C8583FFB6C0D4
:100DC000E885F985408187702FE030E0D90102C0C5
:100DD000AA0FBB1F8A95E2F7CD01809584238083FB
:100DE000E885F9854081812F82958F7090E05C8540
:100DF000577002C0880F991F5A95E2F7842B8083A1
:100E0000EA81FB8160814C81477081E090E0DC01E8
:100E100002C0AA0FBB1F4A95E2F7AD01462B4083E3
:100E2000B5E0BA95F1F70000EA81FB8150814C8171
:100E3000477002C0880F991F4A95E2F78095852375
:100E4000808345E04A95F1F70000E885F9859081B7
:100E50008C85877002C0220F331F8A95E2F7209598
:100E600029232083E885F98520811F70812F90E058
:100E70003C85377002C0880F991F3A95E2F7822BA4
:100E80008083EA81FB8140812C81277081E090E0A2
:100E9000BC0102C0660F771F2A95E2F79B01242B45
:100EA000208375E07A95F1F70000EA81FB813081BB
:100EB0002C81277002C0880F991F2A95E2F7809530
:100EC000832380838C8584FD04C085ED8A95F1F7AA
:100ED0000000002351F09E85892F86958F738F5FC8
:100EE0008F73880F9178892B8E8781E0DF91CF9166
:100EF0001F910F910895CE010E941302EA81FB8198
:100F000030818C8182958695869583702D812170A4
:100F1000220F220F282B81E090E002C0880F991F3A
:100F20002A95E2F780958323808327CFE885F9858A
:100F30001083A7CFCF93DF93682FE091A801F091A2
:100F4000A9018485829586958770D585D770DD0F38
:100F5000DD0FDD0FD82BDF5F6A30D1F4C685C69573
:100F6000CF7309C041E060E28091A8019091A9018E
:100F70000E94AB06CF5FCD17A8F38091A801909196
:100F8000A9010E943D0680E090E0DF91CF91089595
:100F900041E0CF010E94AB06F6CFE82FF92F118276
:100FA000108213821282158214828681887F868342
:100FB00010861782128611868385887F8387148620
:100FC0008585982F987F9587807C85878F7B8587FF
:100FD0008F77858786858E7F8687817082608687FA
:100FE000108A1786128A118A0895CF93DF93E82F0B
:100FF000F92F858586FB882780F9882369F19585F7
:1010000097FB882780F9992374F5238527709585A8
:101010009770290F3327331F283031054CF59681FF
:10102000977025852695269526952770492F420F7E
:101030005527551F483051050CF52485213009F4FA
:1010400065C0223009F498C02223F1F08FEF9FEFA2
:10105000928B818B80E004C020ED30E0328B218BBD
:10106000DF91CF9108952EEF3FEF328B218BF8CF98
:101070008AEF9FEF928B818B80E0F2CF89EF9FEF19
:10108000928B818B80E0ECCFA081B1817C914FE08D
:1010900050E09A0102C0220F331F9A95E2F7209583
:1010A00027232C93A281B3819C9126812770EA018A
:1010B00002C0CC0FDD1F2A95E2F79C2B9C93A781E1
:1010C000B0859C9123852770EA0102C0CC0FDD1FFB
:1010D0002A95E2F79C2B9C93A185B2859C91238550
:1010E000277002C0440F551F2A95E2F7942B9C935A
:1010F00091E0611101C090E0990F26852170922B3B
:10110000968791609687128A118AAACFA081B181B1
:101110007C914FE050E09A0102C0220F331F9A9554
:10112000E2F7209527232C93A281B3819C912681FD
:10113000277002C0440F551F2A95E2F7942B9C9309
:10114000A781B0859C912385277047E050E0EA0194
:1011500002C0CC0FDD1F2A95E2F79C2B9C93A18542
:10116000B2859C912385277002C0440F551F2A9594
:10117000E2F7942B9C93BCCFA081B1817C914FE18D
:1011800050E09A0102C0220F331F9A95E2F7209592
:1011900027232C93A281B3819C912681277002C0C2
:1011A000440F551F2A95E2F7942B9C93A781B08595
:1011B0009C912385277047E050E0EA0102C0CC0FE4
:1011C000DD1F2A95E2F79C2B9C93A185B2859C910B
:1011D0002385277002C0440F551F2A95E2F7942BF0
:1011E0009C9386CF0F93CF93DF93E82FF92F862F11
:1011F000972FC22FD32F1182108213821282158251
:1012000014822681287F26831086178212861186F3
:101210002385287F238725852F7B25879C012352C3
:1012200031092930310508F047C09E0123523109A8
:101230002930310508F046C09C0120523109ABEA43
:10124000BAEA0E9436169C01369527958E7F820F4A
:10125000931F9C012F5D3F4F318320832F5F3F4FB2
:101260003383228380969583848347708681887F29
:10127000482B46839E01205231090E9436169C015C
:10128000369527958E7F820F931F9C012F5D3F4FD0
:101290003087278382969287818707708385887F2E
:1012A000082B0387858580648587128A118A81E0EF
:1012B000DF91CF910F9108958BEF9FEF928B818BF0
:1012C00080E0F6CF8CEF9FEF928B818B80E0F0CFA8
:1012D000DF92EF92FF920F931F93CF93DF9300D093
:1012E000CDB7DEB70C851D858E85D8011D969C91E6
:1012F0001D979F771D969C931D97813009F440C0E0
:10130000823009F446C0882339F08DEF9FEFF80151
:10131000928B818B80E097C0977C98611D969C93FF
:101320001D97987F93601D969C93D8011C968C9373
:101330001C971D968C911D97282F269526952695EE
:10134000277030E02F5F3F4F877090E00196289F15
:10135000B001299F700D389F700D11241F968D913B
:101360009C910E949017282F392FF801308B2787E6
:10137000232BE1F0CE010F969A838983D12C47C0AD
:10138000F8019585977C98619587987F92609587FD
:10139000CCCF1D969C911D97977C90621D969C9337
:1013A0001D97987F92601D969C93BFCF8BE090E035
:1013B000928B818B80E047C0E981FA81CF01029650
:1013C0009A838983F080D8011F96ED91FC91509704
:1013D0001D968C91869586958695877090E00196EE
:1013E000829FB001839F700D929F700D1124460F54
:1013F000571FE40FF51FF082E394F801858587708D
:1014000090E04E2D50E084179507B4F6D394D801A0
:101410001D968C911D97869586958695877090E090
:101420002D2D30E08217930714F0E12CE6CF1D96A6
:101430008C911D9780681D968C931D9752961C92D7
:101440001E92519781E00F900F90DF91CF911F91E5
:101450000F91FF90EF90DF900895AF92BF92CF92DF
:10146000DF92EF92FF920F931F93CF93DF93E82FBA
:10147000F92FA62EB72E86858170882339F0A11406
:10148000B10449F000E0FF24FA9462C024E030E0A7
:10149000328B218B89C081E190E0928B818B80E03F
:1014A00083C0C481D581288130E09681977002C0C5
:1014B000359527959A95E2F7042E02C03595279524
:1014C0000A94E2F720FFEDCF1F5F2585269526952C
:1014D00026952770211758F1412F50E06B01DD242C
:1014E000012E02C0D594C7940A94E2F7C0FCD9CF6C
:1014F000E784F08830E02F5F3F4F429F6001439FB9
:10150000D00C529FD00C1124CA0EDB1EEC0CFD1C1B
:10151000E701F88020E096859695291710F6CFE927
:10152000DFE02197F1F700C000002F5FF4CFC18505
:10153000D285988123852770A20FB11D21E030E06C
:1015400002C0220F331FAA95E2F7922B98830F5FF8
:1015500095859770901720F1C185D2856881A02F5D
:10156000B0E0938597706D01C90ED11C21E030E089
:1015700002C0220F331FCA94E2F720952623288346
:1015800000C000C00000C481D581688170E09681F0
:10159000977002C0759567959A95E2F710E095CF20
:1015A000D501FC92128A118ADF91CF911F910F9180
:1015B000FF90EF90DF90CF90BF90AF900895E82F0D
:1015C000F92F158280858E7F808780818E7F808332
:1015D0008D7F80838B7F80838FE090E097838683ED
:1015E00013821482128211820895262F372F0197B9
:1015F00009F008952F3F3F4FE1F788EB91E00E94FB
:10160000DF0AF7CF08951F920F920FB60F921124A1
:101610002F933F934F935F936F937F938F939F93FA
:10162000AF93BF93EF93FF930E94020BFF91EF9153
:10163000BF91AF919F918F917F916F915F914F91EA
:101640003F912F910F900FBE0F901F9018956FEF45
:101650007FEF81E090E00E94F50A08956FEF7FEF41
:1016600080E090E00E94F50A0895E82FF92F11829A
:1016700080818E7F8083138212820895262F372FD8
:10168000019709F008952F3F3F4FE1F781EC91E07A
:101690000E94350BF7CF08951F920F920FB60F924D
:1016A00011242F933F934F935F936F937F938F9367
:1016B0009F93AF93BF93EF93FF930E944B0BFF91C8
:1016C000EF91BF91AF919F918F917F916F915F91BA
:1016D0004F913F912F910F900FBE0F901F90189533
:1016E0006FEF7FEF81E090E00E943E0B08956FEF77
:1016F0007FEF80E090E00E943E0B0895E82FF92FE5
:10170000118280818E7F8083138212820895262F1A
:10171000372F019709F008952F3F3F4FE1F785ECF0
:1017200091E00E947E0BF7CF08951F920F920FB6A3
:101730000F9211242F933F934F935F936F937F9357
:101740008F939F93AF93BF93EF93FF930E94940B5C
:10175000FF91EF91BF91AF919F918F917F916F9189
:101760005F914F913F912F910F900FBE0F901F905F
:1017700018956FEF7FEF81E090E00E94870B08954E
:101780006FEF7FEF80E090E00E94870B0895E82FD5
:10179000F92F118280818E7F8083138212820895B7
:1017A000262F372F019709F008952F3F3F4FE1F77C
:1017B00089EC91E00E94C70BF7CF08951F920F921A
:1017C0000FB60F9211242F933F934F935F936F9314
:1017D0007F938F939F93AF93BF93EF93FF930E9459
:1017E000DD0BFF91EF91BF91AF919F918F917F9111
:1017F0006F915F914F913F912F910F900FBE0F907E
:101800001F9018956FEF7FEF81E090E00E94D00B62
:1018100008956FEF7FEF80E090E00E94D00B089575
:10182000E82FF92F118280818E7F808313821282AC
:101830000895262F372F019709F008952F3F3F4F26
:10184000E1F78DEC91E00E94100CF7CF08951F9204
:101850000F920FB60F9211242F933F934F935F93E4
:101860006F937F938F939F93AF93BF93EF93FF9368
:101870000E94260CFF91EF91BF91AF919F918F91A4
:101880007F916F915F914F913F912F910F900FBE7C
:101890000F901F9018956FEF7FEF81E090E00E940E
:1018A000190C08956FEF7FEF80E090E00E94190C13
:1018B0000895E82FF92F118280818E7F8083138213
:1018C00012820895262F372F019709F008952F3F90
:1018D0003F4FE1F781ED91E00E94590CF7CF089559
:1018E0001F920F920FB60F9211242F933F934F9395
:1018F0005F936F937F938F939F93AF93BF93EF9378
:10190000FF930E946F0CFF91EF91BF91AF919F9158
:101910008F917F916F915F914F913F912F910F9098
:101920000FBE0F901F9018956FEF7FEF81E090E052
:101930000E94620C08956FEF7FEF80E090E00E94BC
:10194000620C0895E82FF92F1182128280818E7F18
:101950008083148213820895262F372F019709F070
:1019600008952F3F3F4FE1F785ED91E00E94A20CD3
:10197000F7CF0895089508951F920F920FB60F9212
:1019800011242F933F934F935F936F937F938F9384
:101990009F93AF93BF93EF93FF930E94B90CFF9176
:1019A000EF91BF91AF919F918F917F916F915F91D7
:1019B0004F913F912F910F900FBE0F901F90189550
:1019C0001F920F920FB60F9211242F933F934F93B4
:1019D0005F936F937F938F939F93AF93BF93EF9397
:1019E000FF930E94BA0CFF91EF91BF91AF919F912D
:1019F0008F917F916F915F914F913F912F910F90B8
:101A00000FBE0F901F9018951F920F920FB60F9256
:101A100011242F933F934F935F936F937F938F93F3
:101A20009F93AF93BF93EF93FF930E94BB0CFF91E3
:101A3000EF91BF91AF919F918F917F916F915F9146
:101A40004F913F912F910F900FBE0F901F901895BF
:101A50006FEF7FEF81E090E00E94AC0C08956FEF94
:101A60007FEF80E090E00E94AC0C0895E82FF92F02
:101A70001182128280818E7F808314821382089566
:101A8000262F372F019709F008952F3F3F4FE1F799
:101A90008AED91E00E94360DF7CFCF93DF93E82FC8
:101AA000F92FC0E8D0E08881A1E8B0E03C918C7FBC
:101AB000377E262F2370282B862F8695869590E0DB
:101AC000880F991F880F991F880F991F832B887F74
:101AD000842B28838C9362834183808181608083FF
:101AE0001482138281E0DF91CF910895DC01E0E858
:101AF000F0E090819F736295660F660F607C692BA2
:101B00006F7C80E1489FA0011124462B40831496EE
:101B10001C921E92139781E00895089508950895E8
:101B200008951F920F920FB60F9211242F933F9397
:101B30004F935F936F937F938F939F93AF93BF93D5
:101B4000EF93FF930E948D0DFF91EF91BF91AF91A5
:101B50009F918F917F916F915F914F913F912F91C5
:101B60000F900FBE0F901F9018951F920F920FB6F7
:101B70000F9211242F933F934F935F936F937F9313
:101B80008F939F93AF93BF93EF93FF930E948E0D1C
:101B9000FF91EF91BF91AF919F918F917F916F9145
:101BA0005F914F913F912F910F900FBE0F901F901B
:101BB00018951F920F920FB60F9211242F933F93F7
:101BC0004F935F936F937F938F939F93AF93BF9345
:101BD000EF93FF930E948F0DFF91EF91BF91AF9113
:101BE0009F918F917F916F915F914F913F912F9135
:101BF0000F900FBE0F901F9018951F920F920FB667
:101C00000F9211242F933F934F935F936F937F9382
:101C10008F939F93AF93BF93EF93FF930E94900D89
:101C2000FF91EF91BF91AF919F918F917F916F91B4
:101C30005F914F913F912F910F900FBE0F901F908A
:101C400018956FEF7FEF81E090E00E94400D0895BE
:101C50006FEF7FEF80E090E00E94400D0895E82F45
:101C6000F92F1182128280818E7F808314821382E9
:101C70000895262F372F019709F008952F3F3F4FE2
:101C8000E1F78FED91E00E942F0EF7CF08950895B0
:101C900008951F920F920FB60F9211242F933F9326
:101CA0004F935F936F937F938F939F93AF93BF9364
:101CB000EF93FF930E94460EFF91EF91BF91AF917A
:101CC0009F918F917F916F915F914F913F912F9154
:101CD0000F900FBE0F901F9018951F920F920FB686
:101CE0000F9211242F933F934F935F936F937F93A2
:101CF0008F939F93AF93BF93EF93FF930E94470EF1
:101D0000FF91EF91BF91AF919F918F917F916F91D3
:101D10005F914F913F912F910F900FBE0F901F90A9
:101D200018951F920F920FB60F9211242F933F9385
:101D30004F935F936F937F938F939F93AF93BF93D3
:101D4000EF93FF930E94480EFF91EF91BF91AF91E7
:101D50009F918F917F916F915F914F913F912F91C3
:101D60000F900FBE0F901F9018956FEF7FEF81E0DF
:101D700090E00E94390E08956FEF7FEF80E090E0D1
:101D80000E94390E089527E030E0FC01338322835E
:101D900080E0089527E030E0FC013383228380E077
:101DA000089527E030E0FC013383228380E008952A
:101DB00027E030E0FC013383228380E0089527E0B0
:101DC00030E0FC013383228380E0089527E030E097
:101DD000FC013383228380E0089580E090E0089541
:101DE000FC01828193810895E82FF92F9B013370C4
:101DF000862F8295880F807E95859F71892B858798
:101E00006695669566958685807E682B6687832FA6
:101E100083708295880F807E6F79862B8687868176
:101E200040FB80F9868384818160848310861782D9
:101E300081E0089585E090E00895FC018781908518
:101E40000895E82FF92F8EE091E09183808382E25C
:101E500091E091838083128A118A838580788387B9
:101E600013868485807C848714868585807E85871B
:101E700084818D7F84838B7F848384E190E0908B49
:101E8000878710861782089522E231E0FC013183B2
:101E9000208308950F931F93CF93DF93C82FD92FDB
:101EA000062F172FC130D10551F0CD2B19F40F3F5C
:101EB0001F4F69F0DF91CF911F910F9108950F3F50
:101EC000100799F785EE91E00E94210FEECF85EE85
:101ED00091E00E94440FEECFCF92DF92EF92FF92FB
:101EE000CF93DF9300D000D000D0CDB7DEB78D8385
:101EF0009E83AD81BE811F968D919C91892BD9F4D3
:101F0000CC24CA94DC2C760188EF91E00E94E11188
:101F100069837A838B839C83C616D706E806F90605
:101F2000F8F08091BC0080FDEFCFED81FE8110863E
:101F3000178281E01EC088EF91E00E94E111698361
:101F40007A838B839C83ED81FE8187859089C9800C
:101F5000DA80EB80FC80C80ED91EE11CF11CD4CFC6
:101F600083E490E0AD81BE8118969C938E93179781
:101F700080E00F900F900F900F900F900F90DF91D7
:101F8000CF91FF90EF90DF90CF900895E82FF92F39
:101F900084818B7F848388EF90E09287818785EAB4
:101FA0008093BC001086178281E008950F931F93E1
:101FB000CF93DF93C82FD92F062F172F8C8182FB49
:101FC000882780F9882311F090E011C020E430E0E8
:101FD00038872F8310C0E989FA89292F30E0D8018A
:101FE000A20FB31FE20FF31F21812C939F5F941761
:101FF00090F318861F82DF91CF911F910F91089562
:10200000AF92BF92CF92DF92EF92FF920F931F9306
:10201000CF93DF93C82FD92FA62EF42EB22EC02E29
:10202000D12E1C81169511701123B9F0EE2019F0F4
:10203000C114D10411F1CE010E946C0F182F882316
:1020400081F0F11046C0E989FA896A2D660F608334
:10205000E989FA89B18290E025C084E090E0988710
:102060008F83812FDF91CF911F910F91FF90EF9080
:10207000DF90CF90BF90AF90089581E190E0988776
:102080008F8310E0EECF292F30E0E989FA89A9018A
:102090004E5F5F4FE40FF51F2C0D3D1DD9018C9154
:1020A00080839F5F9E1578F392E09E0DE794EE2467
:1020B000E7948B858F77E82AEB8696959F738C85BE
:1020C000807C892B8C87CE010E94C60F18861F82C8
:1020D000C8CFE989FA898A2D880F8083E989FA892E
:1020E000B1828B858F778B878C85807C81608C8794
:1020F000CE010E94C60FCE010E946C0F811102C05A
:10210000182FAFCF6A2D70E0660F771FE989FA8923
:102110006160608381E08E0D982F97959927979540
:102120002B852F77922B9B8786958F739C85907C30
:10213000892B8C87CE010E94C60FCE010E946C0FA6
:10214000811102C0182F8DCF4E2DB601CE010E94F5
:10215000D60F8111BBCF182F84CFEF920F931F930F
:10216000CF93DF93C82FD92F962F8C818170811147
:102170000AC021E430E038872F83DF91CF911F918F
:102180000F91EF9008958D858295869587706E8565
:10219000660F660F660F682BE22E042F152F292F6E
:1021A00041E0CE010E940010882339F318861F8277
:1021B000E4CFEF920F931F93CF93DF93C82FD92FC4
:1021C000962F8C81817081110AC021E430E038871C
:1021D0002F83DF91CF911F910F91EF9008958D85FF
:1021E0008295869587706E85660F660F660F682BE1
:1021F000E22E042F152F292F40E0CE010E9400105F
:10220000882339F318861F82E4CFE82FF92F8091B5
:10221000B9008C7F883309F46EC0A8F0803509F4CA
:1022200058C08835C9F5A189B2898091E401A80F09
:10223000B11D8091BB008C9384818460848384E988
:102240008093BC000895883121F0F8F0883209F0BD
:1022500056C09385991F9927991F84858F73880F7E
:10226000892B9091E401981768F50188F289E02D97
:1022700081E0890F8093E401E90FF11D8081809353
:10228000BB0085E88093BC000895883011F0803150
:10229000B1F51092E401DDCF803489F52091E4019D
:1022A00030E09385991F9927991F84858F73880F34
:1022B000892B8150990B28173907CCF485EC809332
:1022C000BC00089584818460848384E98093BC0089
:1022D00008959091BB00A189B2898091E40121E029
:1022E000280F2093E401A80FB11D9C93D7CF85E858
:1022F0008093BC00089585EA8093BC000895809186
:10230000B900858384E08093BC0008951F920F92EA
:102310000FB60F9211242F933F934F935F936F93B8
:102320007F938F939F93AF93BF93EF93FF9385EE2C
:1023300091E00E940511FF91EF91BF91AF919F91A4
:102340008F917F916F915F914F913F912F910F905E
:102350000FBE0F901F9018956FEF7FEF81E090E018
:102360000E944A0F08956FEF7FEF80E090E00E9497
:102370004A0F0895E82FF92F80E094E2A4EFB0E02F
:1023800086839783A087B18780839183A283B38359
:102390001582148216861786108A118A82898E7F8A
:1023A000828B148A138A0895262F372F019709F0FC
:1023B00008952F3F3F4FE1F788EF91E00E94BA1157
:1023C000F7CFCF93DF9300D000D0CDB7DEB7E82FA3
:1023D000F92F82859385A485B58589839A83AB83FC
:1023E000BC83BC01CD010F900F900F900F90DF9137
:1023F000CF9108956FEF7FEF81E090E00E94D411BC
:1024000008956FEF7FEF80E090E00E94D41108956F
:10241000282F392F4230B1F0433071F1413079F03B
:1024200033230CF443C0C901880F991F880F991FEB
:10243000820F931F880F991F860F911D0895862F75
:1024400090E00895332364F0C901880F991F880F25
:10245000991F820F931F880F991F860F911D089552
:10246000C901880F991F880F991F820F931F880F2A
:10247000991F861B91090895332364F0C901880FC1
:10248000991F880F991F820F931F880F991F860F1E
:10249000911D0895C901880F991F880F991F820FF8
:1024A000931F880F991F861B91090895C901880FF2
:1024B000991F880F991F820F931F880F991F861BE2
:1024C0009109089544E6489F9001499F300D1124D9
:1024D00024543B4CADE5B9E70E9436169C0100241C
:1024E000220F331F001C220F331F001C232F302DFF
:1024F000C901880F991F880F991F820F931F880F9A
:10250000991F8153984FAC0160E070E04093060141
:102510005093070160930801709309012FB7F89455
:1025200090938900809388002FBF0895CF93DF9305
:1025300000D000D0CDB7DEB7462F572F682F792FA8
:10254000DB01CA01880F991FAA1FBB1F880F991FA3
:10255000AA1FBB1F840F951FA61FB71F880F991FA7
:10256000AA1FBB1F8F529547A109B109AC01BD013C
:10257000440F551F661F771F440F551F661F771F97
:10258000840F951FA61FB71F9C01AD01220F331F9B
:10259000441F551F29833A834B835C83CA01B901C9
:1025A00025EE32E040E050E00E941116C9011816F5
:1025B00019060CF401960F900F900F900F90DF9179
:1025C000CF910895CDB7DEB7AF970FB6F894DEBFC1
:1025D0000FBECDBFCE0101960E9474007E0123E1A3
:1025E000E20EF11CC7010E94CD0700E02AE230E0B4
:1025F00044E06AE270E0C7010E94F2081F9284E49E
:102600008F931F9286E48F931F9280E38F931F9284
:1026100085E48F931F9283E48F931F9283E38F93BC
:102620001F9282E38F931F9281E38F931F9282E424
:102630008F931F9286E38F931F9285E38F931F9250
:1026400084E38F931F9281E48F931F9289E38F938A
:102650001F9288E38F931F9287E38F931F92FF92BD
:10266000EF920E9468090FB6F894DEBF0FBECDBF8F
:102670006AE0C7010E94F50703E022E041E067E25B
:1026800070E0CE0101960E94CD0042E064E270E06D
:10269000CE0101960E94340101E021E040E06CE6A9
:1026A000CE0101960E940104CE0101960E946B01A9
:1026B00082E391E00E9465189FEFA9E6B8E191508E
:1026C000A040B040E1F700C00000CE0101960E949A
:1026D000780584B1826084B984B1846084B9CE0104
:1026E00086960E94360D40E062E0CE0186960E94FA
:1026F000760D42E06EE0CE0186960E944D0D8FB7BA
:10270000F8942FEF3FEF30938700209386008FBF20
:102710008FB7F894E8E8F0E020E134EA31832083D1
:102720008FBF8FB7F89420E23EE4318320838FBFC0
:1027300020910601309107018FB7F89431832083EF
:102740008FBFE12CF12C10E00AC1803381F183347A
:1027500009F06FC08091060190910701A0910801D6
:10276000B09109018597A109B10980930601909361
:102770000701A0930801B09309018F3C9740A10580
:10278000B10560F48FEC97E0A0E0B0E08093060123
:1027900090930701A0930801B0930901809106016D
:1027A00090910701909389008093880042C087EB45
:1027B0009BE0A0E0B0E08093060190930701A09316
:1027C0000801B0930901909389008093880031C07B
:1027D0008091060190910701A0910801B091090133
:1027E0008596A11DB11D8093060190930701A093CA
:1027F0000801B0930901803A9F40A105B10560F03E
:102800008FE99FE0A0E0B0E080930601909307017C
:10281000A0930801B09309018091060190910701EE
:10282000909389008093880004C0E12CF12C01E092
:1028300011E0111156C08091060190910701A091FD
:102840000801B09109018CA79DA7AEA7BFA7BC0145
:10285000CD010E94961290930E0280930D02CE013C
:1028600001960E947805809109018F93809108015B
:102870008F93809107018F93809106018F938091B0
:102880000E028F9380910D028F938BE491E09F93C2
:102890008F930E944F189FEFA0E7B2E09150A040A5
:1028A000B040E1F700C00000BE01655D7F4FCE0182
:1028B00043960E942D0A8BA50FB6F894DEBF0FBE7B
:1028C000CDBF843409F484CF08F43FCF863409F4B3
:1028D000ACCF8F3F09F0ADCFCE0101960E947805B5
:1028E000A8CF8091060190910701A0910801B091B5
:1028F00009018CA79DA7AEA7BFA7BC01CD010E946F
:10290000961290930E0280930D02CE0101960E94C2
:10291000780580910E028F9380910D028F938BE545
:1029200091E09F938F930E944F1889E691E09F93C7
:102930008F930E944F1863E070E0CE0101960E94D1
:10294000610645E062E0CE0101960E9490050F907D
:102950000F900F900F900F900F90113039F01123BE
:1029600009F467CF113009F4BCCFF9CFBE01655D22
:102970007F4FCE0143960E942D0A8BA5863409F421
:1029800086C038F4833409F450C0853421F410E053
:10299000E4CF8F3F11F3CE0101960E9478058BA5FD
:1029A0001F928F938FE691E09F938F930E944F1811
:1029B000BFEF25EA3EE0B15020403040E1F700C0D3
:1029C00000000F900F900F900F90023009F4A5C0F7
:1029D000033009F4C9C0013009F477C06BA5605316
:1029E000402FC7010E940812E82EF92ECE01019651
:1029F0000E94780580910E028F9380910D028F9333
:102A00008BE591E09F938F930E944F18FF92EF9276
:102A100084E891E09F938F930E944F180F5F0FB649
:102A2000F894DEBF0FBECDBF98CF1F928F938FE675
:102A300091E09F938F930E944F189FEFA5EABEE00D
:102A40009150A040B040E1F700C00000CE010196D7
:102A50000E947805F194E194F10880910E028F9321
:102A600080910D028F938BE591E09F938F930E944D
:102A70004F18FF92EF9284E891E09F938F930E940A
:102A80004F180FB6F894DEBF0FBECDBF66CFC7019B
:102A900089579F4F8F30914028F4C7010E946212DE
:102AA00010E05BCF8DE891E09F938F930E944F18C9
:102AB0008FEF9DE3A9E481509040A040E1F700C072
:102AC00000000F900F9010E048CF6BA56053402F8F
:102AD00080E090E00E940812E82EF92ECE010196C7
:102AE0000E94780580910E028F9380910D028F9342
:102AF0008BE591E09F938F930E944F18FF92EF9286
:102B000084E891E09F938F930E944F180F5F0FB658
:102B1000F894DEBF0FBECDBF20CF6BA56053402F12
:102B2000C7010E940812E82EF92ECE0101960E94DC
:102B3000780580910E028F9380910D028F938BE523
:102B400091E09F938F930E944F18FF92EF9284E839
:102B500091E09F938F930E944F180F5F0FB6F894E8
:102B6000DEBF0FBECDBFF9CE6BA56053402FC701AE
:102B70000E940812E82EF92ECE0101960E947805D7
:102B800080910E028F9380910D028F938BE591E0DF
:102B90009F938F930E944F18FF92EF9284E891E0E9
:102BA0009F938F930E944F180F5F0FB6F894DEBF6C
:102BB0000FBECDBFD2CE97FB072E16F4009407D0E0
:102BC00077FD09D00E94451607FC05D03EF490958C
:102BD00081959F4F0895709561957F4F0895A1E26B
:102BE0001A2EAA1BBB1BFD010DC0AA1FBB1FEE1F87
:102BF000FF1FA217B307E407F50720F0A21BB30BD2
:102C0000E40BF50B661F771F881F991F1A9469F74D
:102C100060957095809590959B01AC01BD01CF01A9
:102C20000895052E97FB1EF400940E94281657FD68
:102C300007D00E94EF1507FC03D04EF40C94281621
:102C400050954095309521953F4F4F4F5F4F0895D8
:102C500090958095709561957F4F8F4F9F4F089508
:102C6000EE0FFF1F0590F491E02D0994A29FB00193
:102C7000B39FC001A39F700D811D1124911DB29FB0
:102C8000700D811D1124911D0895AA1BBB1B51E1DC
:102C900007C0AA1FBB1FA617B70710F0A61BB70BCC
:102CA000881F991F5A95A9F780959095BC01CD0171
:102CB00008950F931F93CF93DF939C01029710F415
:102CC00022E030E0E0919E01F0919F0180E090E0F1
:102CD000A0E0B0E0309791F4009709F445C0821B62
:102CE000930B84309105B8F58A819B81611571053C
:102CF00069F1FB0193838283FE0111C04081518100
:102D00000281138142175307F0F04217530799F4D9
:102D1000109761F012960C93129713961C933296AB
:102D2000CF01DF91CF911F910F91089500939E01E4
:102D300010939F01F4CF009719F04817590718F422
:102D4000CA01BD01EF01DF01F801C4CF90939F01DB
:102D500080939E01D1CFFE01E80FF91F219331939B
:102D6000029799838883DCCF8091A0019091A10183
:102D7000892B41F480910201909103019093A1016C
:102D80008093A0018091000190910101009741F48E
:102D90008DB79EB74091040150910501841B950B9E
:102DA0004091A0015091A1014817590708F0B8CFF0
:102DB000841B950B8217930708F4B2CFB9016E5F9D
:102DC0007F4F8617970708F4ABCF640F751F70937A
:102DD000A1016093A001FA0121933193A1CFCF9378
:102DE000DF939C010097D9F0FC0132971382128285
:102DF000A0919E01B0919F01109709F086C080813B
:102E00009181280F391F8091A0019091A101821713
:102E1000930709F05FC0F093A101E093A001DF9157
:102E2000CF910895CE17DF0708F059C0AE010A8090
:102E3000DB81C02D2097B1F7EA01FB83EA8329915A
:102E40003991CE01820F931FE817F90761F4808151
:102E500091810296820F931FEA0199838883828170
:102E600093819B838A83E0E0F0E012968D919C91A0
:102E70001397009709F04EC0ED01899199918C0F3D
:102E80009D1F2091A0013091A1012817390739F623
:102E9000309709F042C010929F0110929E01B093AA
:102EA000A101A093A001BBCFB383A28380819181B4
:102EB000280F391FA217B30769F402962D913C9190
:102EC0001197820F931F9183808312968D919C910D
:102ED00093838283F0939F01E0939E01A0CFD383DD
:102EE000C28380819181280F391FC217D30709F04F
:102EF000A3CF029628813981820F931F918380830B
:102F00008A819B819383828397CFAE17BF0760F638
:102F1000ED018CCFFD01DC01A8CF13821282BFCF5F
:102F2000A0E0B0E0E6E9F7E10C94381B7C01CB01AE
:102F3000E114F10449F40E945916EC01CE01CDB719
:102F4000DEB7E0E10C94541BF701E60FF71FD70141
:102F50001297C0E0D0E0EA17FB0780F30D911C91B7
:102F6000119706171707B0F00530110588F0980182
:102F7000245031092617370758F0061B170B02504B
:102F80001109019311936D937C93CF010E94EF1669
:102F9000E701D4CF4B01801A910A5701A00EB11E50
:102FA000C0919E01D0919F01412C512C60E070E0B6
:102FB000209731F52091A0013091A1012A153B0500
:102FC00009F056C04816590608F052C02091000179
:102FD000309101012115310541F42DB73EB74091E3
:102FE000040150910501241B350BE217F30708F08B
:102FF000A5CFF093A101E093A0018D939C93C8CF3E
:10300000288139816A807B80CA15DB0551F5690109
:1030100042E0C40ED11CC814D90418F1A801481B01
:10302000590B420F531FEA012296259778F06282CE
:103030007382518340838D939C936115710561F078
:10304000DB011396FC93EE931297A2CFC801029670
:10305000820F931FF301EFCFF0939F01E0939E0146
:1030600097CF4216530608F42901BE01E301A0CF11
:103070000E945916EC01009709F460CFA801B7012E
:103080000E944618C7010E94EF1658CFFB01DC01D1
:1030900002C001900D9241505040D8F70895A0E031
:1030A000B0E0E5E5F8E10C94461BAE014B5F5F4FE5
:1030B000FA0161917191AF018091A4019091A501F4
:1030C0000E949118E2E00C94621B0F931F93CF9320
:1030D000DF93E091A401F091A501238100E010E0CD
:1030E00021FD0EC00FEF1FEFC801DF91CF911F919F
:1030F0000F9108950995892B11F00FEF1FEFCE0165
:10310000EC0189916091A4017091A501DB011896F1
:10311000ED91FC918111EECF8AE00995892B21F385
:10312000E1CFAFE0B0E0E7E9F8E10C94391B6C01C6
:103130007B018A01DC0117961C921E92169713964A
:103140008C9181FFECC12AE0522EF6019381F701A8
:1031500093FD859193FF81917F01882309F473C0CA
:10316000853239F493FD859193FF81917F018532FA
:1031700029F4B60190E00E94A81AE7CF912C612CA7
:10318000712CFFE1F71508F446C08B32C9F1F8F451
:103190008032C1F1833209F43BC0833609F48AC01E
:1031A000833709F493C0833509F0B6C0F801A190C4
:1031B000B1908F01692D70E076FC02C06FEF7FEF58
:1031C000C5010E94921A4C01689477F85FC08D3255
:1031D000E1F0803351F020ED280F2A3048F18E3293
:1031E00009F039C0689476F802C0689470F8F70165
:1031F00093FD859193FF81917F018111C2CF33C0EF
:10320000689471F8689472F8F2CF689473F8EFCF0D
:10321000689474F8ECCF77FC26C020ED280F2A3094
:1032200070F476FE05C0959C200D1124922EDFCF00
:10323000659C200D1124622E689475F8D8CF8E32CB
:1032400051F476FECFCFD60116968D919C912F9694
:10325000EFE00C94551B8C3619F4689477F8C7CFBF
:10326000883609F4C4CF982F9F7D9554933008F089
:1032700094CF0C5F1F4F8FE3898388248394912C14
:10328000AE014F5F5F4F5A01E89477F873FC05C0B9
:10329000862D90E08816990640F18114910461F51D
:1032A000662009F452CFB60180E290E00E94A81A8D
:1032B0006A94F6CFD8018C9189830E5F1F4F8824C2
:1032C0008394912CFE0131965F01DECFD801AD9041
:1032D000BD908D01692D70E076FC02C06FEF7FEF2D
:1032E000C5010E949D1A4C01CFCFB60180E290E04B
:1032F0000E94A81A6A94CCCFF50177FC859177FEDD
:1033000081915F01B60190E00E94A81A61106A9451
:10331000F1E08F1A9108C1CF843619F0893609F08F
:1033200081C0F80177FE77C061917191819191918F
:103330008F01272D2F76822E97FF09C090958095BB
:10334000709561957F4F8F4F9F4F689487F82AE063
:1033500030E0AE014F5F5F4F5A010E94D81A8A19C0
:10336000A82EBA2C782C86FE0CC0E89470F8A9140C
:1033700040F484FE05C082FC03C0782D7E7E772E4B
:10338000B92C74FEA5C0FE01EA0DF11D80818033C9
:1033900009F097C0872D897E782E73FC0EC070FED1
:1033A000A6C09A2CB61418F4960C9B18B62C862D31
:1033B0008B196B1408F480E0B80EB61408F099C0AD
:1033C0006B1874FE98C0B60180E390E00E94A81AC2
:1033D00072FE09C088E590E071FC02C088E790E0C9
:1033E000B6010E94A81AA91408F492C0AA94B12C9C
:1033F0009FEFA91AB90ADE0111964D01AA0EBB1E54
:10340000F50182915F01B60190E00E94A81A8A142A
:103410009B04B1F745CF61917191072E000C880B89
:10342000990B86CF872CE89484F82AE030E0853722
:1034300069F0572D597F852E803771F118F5883541
:1034400071F18F3609F0FFCE28E030E0F80187FEF9
:103450002EC081919191A191B1918C879D87AE876A
:10346000BF878F01BE016F5F7F4F5B01AB016C8532
:103470007D858E859F850E94D81A8A19A82EE8948A
:1034800087F86FCF883709F0DECE84FE02C06894DB
:1034900082F820E130E0DACF689484F8F6CF74FE49
:1034A00003C0652F6660862E20E132E0CFCF819188
:1034B0009191AC0160E070E04C875D876E877F87FB
:1034C000D0CF72FC02C0B39468CFB394B39465CFED
:1034D000872D8678882309F460CFF5CFB60180E286
:1034E00090E00E94A81A83948614C0F360CF8B2CBE
:1034F000FBCF612C66CF872D8678882309F473CFA4
:103500008BE271FE80E277FC8DE2B60190E069CF3C
:10351000B60180E390E00E94A81A9A9464CF8FEFDE
:103520009FEF95CEFC010590615070400110D8F7D7
:10353000809590958E0F9F1F0895FC0161507040FB
:1035400001900110D8F7809590958E0F9F1F0895D8
:103550000F931F93CF93DF93182F092FEB018B81CC
:1035600081FD09C01FEF0FEF812F902FDF91CF91C9
:103570001F910F91089582FF14C02E813F818C818D
:103580009D81281739073CF4E881F981CF01019624
:103590009983888310838E819F8101969F838E8378
:1035A000E3CFE885F985812F0995892BA1F3DACF3F
:1035B000FA01AA27283051F1203181F1E8946F9364
:1035C0006E7F6E5F7F4F8F4F9F4FAF4FB1E03ED00A
:1035D000B4E03CD0670F781F891F9A1FA11D680FA8
:1035E000791F8A1F911DA11D6A0F711D811D911DDB
:1035F000A11D20D009F468943F912AE0269F112450
:103600003019305D3193DEF6CF010895462F4770B3
:10361000405D4193B3E00FD0C9F7F6CF462F4F700E
:10362000405D4A3318F0495D31FD4052419302D06C
:10363000A9F7EACFB4E0A695979587957795679512
:10364000BA95C9F700976105710508959B01AC0112
:103650000A2E06945795479537952795BA95C9F739
:10366000620F731F841F951FA01D08952F923F9214
:103670004F925F926F927F928F929F92AF92BF9282
:10368000CF92DF92EF92FF920F931F93CF93DF932E
:10369000CDB7DEB7CA1BDB0B0FB6F894DEBF0FBE8B
:1036A000CDBF09942A88398848885F846E847D84D8
:1036B0008C849B84AA84B984C884DF80EE80FD80DA
:1036C0000C811B81AA81B981CE0FD11D0FB6F89450
:1036D000DEBF0FBECDBFED01089510E0CFE3D0E017
:1036E00004C0FE010E9430162196CA34D107C9F7E2
:0436F000F894FFCF7C
:1036F40000000F022000B70B000000000000C30E02
:10370400CA0ED10ED80EDF0EE60EED0EF00E00003E
:103714000000AD10CA0ED10ED910F40EE60E1A0F29
:103724001D0F202020476F6F64204D6F726E696EED
:103734006721203A2D292020200A00416E67756CEC
:103744006F203D2025640A20256400416E67756C56
:103754006F203D202564200A004E6F766F3D007473
:1037640065636C61202563207072657373696F6E85
:10377400616461004E6F766F3D2025640056616C74
:0E3784006F7220696E76616C69646F210000BF
:00000001FF
