:100000000C943E000C94000A0C9466000C9466005C
:100010000C9466000C9466000C9466000C946409C1
:100020000C9488090C94AC090C94F4080C94AC085A
:100030000C94D0080C9418090C94E8070C940C0844
:100040000C9430080C9466000C9466000C946600C6
:100050000C9466000C949C070C9466000C9466004B
:100060000C9466000C946600C00754083C09D00943
:10007000430BC7075B084309D7094A0B11241FBE6E
:10008000CFEFD8E0DEBFCDBF11E0A0E0B1E0E2E706
:10009000FDE102C005900D92AE35B107D9F721E020
:1000A000AEE5B1E001C01D92A03AB207E1F710E061
:1000B000C9E3D0E004C02197FE010E94650BC43360
:1000C000D107C9F70E948A0A0C94AC0E0C94000068
:1000D000E82FF92FA6E6B1E085E497E019969C9306
:1000E0008E9318971B961C921E921A9782E0139675
:1000F0008C9313971D961C921E921C97118210824E
:10010000138212828481982F987F9483807C8483C9
:10011000148285818E7F85831782168211861086D0
:10012000138612868485887F8487877F84878F7E65
:1001300084878F7184878585982F987F9587807EA7
:1001400085878F7D8587806485878F77858786857E
:100150008E7F8687982F917896878170868787858E
:100160008E7F87878D7F87878B7F8787877F87872E
:100170008F7E87878F7D87878F7B8787118A108AFD
:10018000089508950F93E82FF92F862F972F522F58
:10019000BC01635271096930710508F041C04830F3
:1001A00008F045C0283008F048C0083008F04BC0BF
:1001B0009C0120523109ABEABAEA0E946B0B9C0108
:1001C000369527958E7F820F931F9C012F5D3F4FA1
:1001D0003183208382969383828347708481887FD2
:1001E000842B84835770252F220F220F220F877CA8
:1001F000282B2483802F8295880F880F807C2F7373
:10020000822B848302FB002700F985818E7F082BD7
:100210000583878580628787118A108A81E005C0FF
:1002200083ED90E0918B808B80E00F91089587EDB6
:1002300090E0918B808B80E0F8CF87ED90E0918B00
:10024000808B80E0F2CF87ED90E0918B808B80E017
:10025000ECCFE82FF92F262F372FC9018397099765
:1002600018F5483038F520523109ABEABAEA0E9455
:100270006B0B9C01369527958E7F820F931F9C01F7
:100280002F5D3F4F378326832F5F3F4F3187208776
:1002900080969387828747708485887F842B8487A4
:1002A000118A108A81E0089583ED90E0918B808B14
:1002B00080E0089587ED90E0918B808B80E0089539
:1002C000E82FF92FAEE5B1E086E691E015969C9314
:1002D0008E93149713969C938E9312978D939C9361
:1002E000F0936501E0936401118A108A81E008951A
:1002F000CF93DF93E82FF92F848584FF17C0A28165
:10030000B3813C9184818295869586958370258101
:100310002170220F220F282B81E090E002C0880F6D
:10032000991F2A95E2F7809583238C93A281B3814C
:100330004C918481869586958695877021E030E082
:10034000E90102C0CC0FDD1F8A95E2F7CE0180954E
:1003500084238C93A281B3814C9184818770E901BD
:1003600002C0CC0FDD1F8A95E2F7CE018095842371
:100370008C93A085B1855C91448547708FE090E0B7
:1003800002C0880F991F4A95E2F7809585238C93C8
:10039000A085B1858C9162956F7070E0948597709F
:1003A00002C0660F771F9A95E2F7862B8C93A28185
:1003B000B3814C9184818770B90102C0660F771FA9
:1003C0008A95E2F7CB01842B8C9375E07A95F1F74F
:1003D0000000A281B3819C918481877002C0220FAA
:1003E000331F8A95E2F7209529232C9385E08A957F
:1003F000F1F70000848584FF03C0878583FD04C076
:10040000C5EDCA95F1F7000081E0DF91CF91089525
:10041000E82FF92F848583FF55C0A085B1854C91C5
:1004200087702FE030E0B90102C0660F771F8A9510
:10043000E2F7CB01809584238C93A681B7819C91B0
:100440008485877002C0220F331F8A95E2F72095BA
:1004500029232C93A281B3814C9184818695869522
:100460008695877021E030E0B90102C0660F771FE2
:100470008A95E2F7CB01809584238C93A281B38186
:100480004C91948192959695969593708581817003
:10049000880F880F892BB90102C0660F771F8A95D4
:1004A000E2F7CB01842B8C93A281B3819C91848150
:1004B000877002C0220F331F8A95E2F72095292307
:1004C0002C932FC0A085B1851C92A681B7811C9268
:1004D000C1CF207848C0A281B3813C91448147704C
:1004E00081E090E0BC0102C0660F771F4A95E2F7F9
:1004F000362B3C9375E07A95F1F70000A281B38129
:100500004C913481377002C0880F991F3A95E2F7F9
:10051000809584238C9385E08A95F1F7000022234F
:10052000C9F1A281B3818C919481977021E030E070
:1005300002C0220F331F9A95E2F7822B8C9375E04D
:100540007A95F1F70000A285B3852C91848583FF0D
:10055000C0CF382F377088E090E002C0880F991F15
:100560003A95E2F72823A281B3814C913481377008
:1005700081E090E002C0880F991F3A95E2F78095DC
:1005800084238C9385E08A95F1F70000848583FFAE
:10059000C6CFA1CFA281B3813C91848182958695FB
:1005A0008695837025812170220F220F282B81E0F0
:1005B00090E002C0880F991F2A95E2F78095832367
:1005C0008C93848583FF1EC0A085B1854C91877074
:1005D0002FE030E0B90102C0660F771F8A95E2F77D
:1005E000CB01809584238C93A681B7818C919485CF
:1005F000977002C0220F331F9A95E2F7822B8C93DB
:1006000081E00895A085B1851C920680F781E02DD8
:100610008FEF8083F5CF1F93CF93DF93C82FD92F10
:10062000162F8C8584FF1AC08F8583FDD0C0EA8188
:10063000FB8130818C8182958695869583702D8192
:100640002170220F220F282B81E090E002C0880F3A
:10065000991F2A95E2F7809583238083EA81FB81A5
:1006600040818C81869586958695877021E030E063
:10067000B90102C0660F771F8A95E2F7CB0180951A
:1006800084238083EA81FB8190818C81877002C002
:10069000220F331F8A95E2F72095292320838C852A
:1006A00083FF99C0E885F985408187702FE030E0AD
:1006B000D90102C0AA0FBB1F8A95E2F7CD01809530
:1006C00084238083E885F9854081812F82958F700E
:1006D00090E05C85577002C0880F991F5A95E2F729
:1006E000842B8083EA81FB8160814C81477081E0AB
:1006F00090E0DC0102C0AA0FBB1F4A95E2F7AD01F2
:10070000462B4083B5E0BA95F1F70000EA81FB8102
:1007100050814C81477002C0880F991F4A95E2F7BB
:1007200080958523808345E04A95F1F70000E885B0
:10073000F98590818C85877002C0220F331F8A95BE
:10074000E2F7209529232083E885F9852081812FF0
:100750008F7090E03C85377002C0880F991F3A95E2
:10076000E2F7822B8083EA81FB8140812C81277014
:1007700081E090E0BC0102C0660F771F2A95E2F786
:100780009B01242B208375E07A95F1F70000EA8124
:10079000FB8130812C81277002C0880F991F2A9518
:1007A000E2F780958323808385E08A95F1F7000046
:1007B0008C8584FD07C01150123088F0B5EDBA95D4
:1007C000F1F7000081E0DF91CF911F910895CE01F4
:1007D0000E9408022CCFE885F9851083C4CFAFE3CF
:1007E000BFE11197F1F700C00000ECCFEF92FF924C
:1007F0000F931F93CF93DF93C82FD92F162FE42E7B
:10080000F22E8C8500FB84F98C8720FB83F98C8782
:100810008F85877F8F878F7E8F878D8540FB85F9BA
:100820008D87222309F424C1E885F98540818C85D0
:1008300087702FE030E0B90102C0660F771F8A95FC
:10084000E2F7CB01809584238083EE81FF81808154
:100850009C85977002C0220F331F9A95E2F7822B76
:100860008083EA81FB8140818C81877021E030E0C8
:10087000B90102C0660F771F8A95E2F7CB01809518
:1008800084238083E881F98140818C818770B9015C
:1008900002C0660F771F8A95E2F7CB01842B808315
:1008A000AA81BB818C91EC81E695E695E695E7708F
:1008B000A90102C0440F551FEA95E2F7FA01E0953D
:1008C000E823EC93E881F98190818C818695869567
:1008D0008695877002C0220F331F8A95E2F7892F11
:1008E000822B8083002371F1EA81FB8140819C810E
:1008F00092959695969593708D818170880F880F4B
:10090000892B21E030E0B90102C0660F771F8A957C
:10091000E2F7CB01809584238083E881F98190817F
:100920004C8142954695469543708D818170880F24
:10093000880F842B02C0220F331F8A95E2F7892F7C
:10094000822B80838FE59AEE0197F1F700C00000BB
:10095000FF2009F495C060E3CE010E9478018FE189
:100960009EE40197F1F700C0000060E3CE010E9411
:1009700078018FE891E00197F1F700C0000060E393
:10098000CE010E9478018FE891E00197F1F700C055
:100990000000F1108EC060E16062EE2009F495C0A5
:1009A00084E0682B8D85E0FA85F98D87143608F090
:1009B0008EC080E0682BCE010E940B038F8588607B
:1009C0008F8768E0CE010E940B0361E0CE010E9498
:1009D0000B038D8586FF7DC066E088230CF47BC009
:1009E000CE010E940B036CE0CE010E940B038F85A9
:1009F00084608F878D7F8F879E859E7F9E87292F1E
:100A00002F772E878E7F8F8791709E87E12FF0E062
:100A1000CF0162E370E00E94510B2FEF260F23708D
:100A2000220F220F220F8D85877E282B2D87CF0145
:100A3000880F991F64E670E00E94510B8150982F37
:100A40009295990F907E3C853F71932B9C8786955C
:100A5000869586958770287F282B2D87198A188A76
:100A600081E0DF91CF911F910F91FF90EF9008955A
:100A7000E885F9851082EE81FF818FEF8083F1CECA
:100A800060E3CE010E940B038FE19EE40197F1F732
:100A900000C0000060E3CE010E940B038FE891E0EC
:100AA0000197F1F700C0000060E3CE010E940B0344
:100AB0006ACF60E2CE010E9478018FE891E0019751
:100AC000F1F700C0000060E067CF80E06ACF88E007
:100AD00071CF64E082CF616083CFCF93DF93C82F63
:100AE000D92F61E0CE010E940B03882359F09E8527
:100AF000292F2F772E872F852E7F2F8791709E8706
:100B0000198A188ADF91CF910895CF93DF93C82F68
:100B1000D92F623069F170F4662309F480C0613026
:100B200009F080C08D858871882309F47BC090E42A
:100B3000940F76C0633009F075C08D858871883157
:100B400009F44DC0883109F45AC0883109F06AC0EF
:100B50009C859295969597708D858770880F880FE4
:100B6000880F892B833109F05DC094E5940F58C03C
:100B70008D8588718831A9F0883111F1883109F0AB
:100B800051C09C859295969597708D858770880F3A
:100B9000880F880F892B833109F044C094E1940FAA
:100BA0003FC02C852295269527709D859770990FBB
:100BB000990F990F922B9B30F9F69CE0940F30C05F
:100BC0002C852295269527709D859770990F990FF2
:100BD000990F922B9F3091F690E1940F21C02C85B4
:100BE0002295269527709D859770990F990F990FDB
:100BF000922B9B3009F0A6CF9CE4940F11C02C855A
:100C00002295269527709D859770990F990F990FBA
:100C1000922B9F3009F099CF90E5940F01C0942F4B
:100C20009F3F31F4198A188A81E0DF91CF910895AE
:100C3000262F2795222727958E858F77282B2E877D
:100C400061FB882780F93F853E7F832B8F874F7319
:100C5000440F2178422B4E87692F6068CE010E9495
:100C60000B03E0CFCF93DF93C82FD92F9E85991F19
:100C70009927991F8F858170880F892B8F5F6D85CC
:100C8000669566956695637070E06F5F7F4F90E044
:100C90000E94510B40E0682FCE010E9485058823F9
:100CA00011F0198A188ADF91CF9108950F931F933D
:100CB000CF93DF93C82FD92F162F042F8E858695BB
:100CC0008F73883210F04111BBC08C8584FDBEC08B
:100CD000EA81FB8140812C812695269526952770F7
:100CE00081E090E0BC0102C0660F771F2A95E2F711
:100CF0009B01242B2083EA81FB8130812C8127708A
:100D000002C0880F991F2A95E2F78095832380837C
:100D10008C8583FFB6C0E885F985408187702FE018
:100D200030E0D90102C0AA0FBB1F8A95E2F7CD01BE
:100D3000809584238083E885F9854081812F829581
:100D40008F7090E05C85577002C0880F991F5A958C
:100D5000E2F7842B8083EA81FB8160814C814770BC
:100D600081E090E0DC0102C0AA0FBB1F4A95E2F7C8
:100D7000AD01462B4083B5E0BA95F1F70000EA815A
:100D8000FB8150814C81477002C0880F991F4A95A2
:100D9000E2F780958523808345E04A95F1F70000CE
:100DA000E885F98590818C85877002C0220F331FFA
:100DB0008A95E2F7209529232083E885F98520810B
:100DC0001F70812F90E03C85377002C0880F991FFB
:100DD0003A95E2F7822B8083EA81FB8140812C8166
:100DE000277081E090E0BC0102C0660F771F2A9552
:100DF000E2F79B01242B208375E07A95F1F7000040
:100E0000EA81FB8130812C81277002C0880F991FF5
:100E10002A95E2F78095832380838C8584FD04C026
:100E200085ED8A95F1F70000002351F09E85892F0A
:100E300086958F738F5F8F73880F9178892B8E873C
:100E400081E0DF91CF911F910F910895CE010E9413
:100E50000802EA81FB8130818C8182958695869596
:100E600083702D812170220F220F282B81E090E0CA
:100E700002C0880F991F2A95E2F78095832380830B
:100E800027CFE885F9851083A7CFCF93DF93682F0D
:100E9000E0916401F0916501848582958695877063
:100EA000D585D770DD0FDD0FDD0FD82BDF5F6A3002
:100EB000D1F4C685C695CF7309C041E060E2809148
:100EC0006401909165010E945606CF5FCD17A8F38B
:100ED00080916401909165010E94320680E090E06B
:100EE000DF91CF91089541E0CF010E945606F6CFE1
:100EF000E82FF92F158280858E7F808780818E7FF5
:100F000080838D7F80838B7F80838FE090E09783C9
:100F1000868313821482128211820895262F372F1E
:100F2000019709F008952F3F3F4FE1F784E791E0E3
:100F30000E947807F7CF08951F920F920FB60F9275
:100F400011242F933F934F935F936F937F938F93CE
:100F50009F93AF93BF93EF93FF930E949B07FF91E3
:100F6000EF91BF91AF919F918F917F916F915F9121
:100F70004F913F912F910F900FBE0F901F9018959A
:100F80006FEF7FEF81E090E00E948E0708956FEF92
:100F90007FEF80E090E00E948E070895E82FF92F00
:100FA0001182128280818E7F808314821382089541
:100FB000262F372F019709F008952F3F3F4FE1F774
:100FC0008DE791E00E94CE07F7CF08950895089528
:100FD0001F920F920FB60F9211242F933F934F93AE
:100FE0005F936F937F938F939F93AF93BF93EF9391
:100FF000FF930E94E507FF91EF91BF91AF919F9101
:101000008F917F916F915F914F913F912F910F90B1
:101010000FBE0F901F9018951F920F920FB60F9250
:1010200011242F933F934F935F936F937F938F93ED
:101030009F93AF93BF93EF93FF930E94E607FF91B7
:10104000EF91BF91AF919F918F917F916F915F9140
:101050004F913F912F910F900FBE0F901F901895B9
:101060001F920F920FB60F9211242F933F934F931D
:101070005F936F937F938F939F93AF93BF93EF9300
:10108000FF930E94E707FF91EF91BF91AF919F916E
:101090008F917F916F915F914F913F912F910F9021
:1010A0000FBE0F901F9018956FEF7FEF81E090E0DB
:1010B0000E94D80708956FEF7FEF80E090E00E94D4
:1010C000D8070895E82FF92F1182128280818E7F30
:1010D0008083148213820895262F372F019709F0F9
:1010E00008952F3F3F4FE1F782E891E00E946208A8
:1010F000F7CFCF93DF93E82FF92FC0E8D0E08881B6
:10110000A1E8B0E03C918C7F377E262F2370282BFE
:10111000862F8695869590E0880F991F880F991FD6
:10112000880F991F832B28838C93628314821382E8
:1011300081E0DF91CF910895E82FF92FA1E8B0E089
:101140008C91887F862B8C9361831482138281E03B
:1011500008950895089508951F920F920FB60F9263
:1011600011242F933F934F935F936F937F938F93AC
:101170009F93AF93BF93EF93FF930E94A908FF91B2
:10118000EF91BF91AF919F918F917F916F915F91FF
:101190004F913F912F910F900FBE0F901F90189578
:1011A0001F920F920FB60F9211242F933F934F93DC
:1011B0005F936F937F938F939F93AF93BF93EF93BF
:1011C000FF930E94AA08FF91EF91BF91AF919F9169
:1011D0008F917F916F915F914F913F912F910F90E0
:1011E0000FBE0F901F9018951F920F920FB60F927F
:1011F00011242F933F934F935F936F937F938F931C
:101200009F93AF93BF93EF93FF930E94AB08FF911F
:10121000EF91BF91AF919F918F917F916F915F916E
:101220004F913F912F910F900FBE0F901F901895E7
:101230001F920F920FB60F9211242F933F934F934B
:101240005F936F937F938F939F93AF93BF93EF932E
:10125000FF930E943C0AFF91EF91BF91AF919F9144
:101260008F917F916F915F914F913F912F910F904F
:101270000FBE0F901F9018956FEF7FEF81E090E009
:101280000E946C0808956FEF7FEF80E090E00E946D
:101290006C080895E82FF92F1182128280818E7FC9
:1012A0008083148213820895262F372F019709F027
:1012B00008952F3F3F4FE1F787E891E00E944A09E8
:1012C000F7CF0895089508951F920F920FB60F92C9
:1012D00011242F933F934F935F936F937F938F933B
:1012E0009F93AF93BF93EF93FF930E946109FF9188
:1012F000EF91BF91AF919F918F917F916F915F918E
:101300004F913F912F910F900FBE0F901F90189506
:101310001F920F920FB60F9211242F933F934F936A
:101320005F936F937F938F939F93AF93BF93EF934D
:10133000FF930E946209FF91EF91BF91AF919F913E
:101340008F917F916F915F914F913F912F910F906E
:101350000FBE0F901F9018951F920F920FB60F920D
:1013600011242F933F934F935F936F937F938F93AA
:101370009F93AF93BF93EF93FF930E946309FF91F5
:10138000EF91BF91AF919F918F917F916F915F91FD
:101390004F913F912F910F900FBE0F901F90189576
:1013A0006FEF7FEF81E090E00E94540908956FEFA6
:1013B0007FEF80E090E00E94540908950F931F93FF
:1013C000CF93DF93C82FD92F062F172FC130D10508
:1013D00051F0CD2B19F40F3F1F4F69F0DF91CF91E2
:1013E0001F910F9108950F3F100799F78EE891E034
:1013F0000E946800EECF8EE891E00E94C100EECF1F
:101400001F920F920FB60F9211242F933F934F9379
:101410005F936F937F938F939F93AF93BF93EF935C
:10142000FF938EE891E00E946D0580E091E00E94BC
:10143000A40B80918D0191E0980F90938D011F92E4
:101440008F938CE091E09F938F930E948E0B0F906F
:101450000F900F900F90FF91EF91BF91AF919F91DF
:101460008F917F916F915F914F913F912F910F904D
:101470000FBE0F901F90189580918C018F5F809305
:101480008C018FB7F89410928500109284008FBF62
:10149000089510928C018FB7F894109285001092E5
:1014A00084008FBF62E082E891E00E949C0808956A
:1014B00060E082E891E00E949C080895CF93DF935A
:1014C00000D000D0CDB7DEB780918C0190E0A0E0D5
:1014D000B0E0DC01992788274FB7F8942091840069
:1014E000309185004FBF820F931FA11DB11D9C013C
:1014F000AD01569547953795279529833A834B83B8
:101500005C83CA01B9010F900F900F900F90DF918B
:10151000CF9108951092C0001092C1008AB18B7FC4
:101520008AB98BB184608BB9E9E6F0E080818C7F69
:1015300080838081826080838DB381608DBB60E019
:1015400082E891E00E94790860E082E891E00E94E0
:101550009C08EFE6F0E080818160808300E025E078
:1015600044E064E270E08EE891E00E94C20040E056
:1015700064E270E08EE891E00E94290121E040E001
:101580006CE68EE891E00E94F6038EE891E00E94FE
:10159000600184E191E09F938F931F9287E18F9385
:1015A0001F9284E08F931F928DE18F9388E191E0E9
:1015B0009F938F930E948E0B1F9285E28F931F92B1
:1015C0008EE18F931F928AE08F938FE291E09F9339
:1015D0008F930E948E0B2FEF87EA91E62150804077
:1015E0009040E1F700C000008EE891E00E946D0598
:1015F00087E491E09F938F930E948E0B84B1806269
:1016000084B978948DB79EB744960FB6F8949EBF70
:101610000FBE8DBF0E94490A9FEF23ED80E39150DA
:1016200020408040E1F700C000000E94580A8EE888
:1016300091E00E946D05C0918400D09185001091C9
:101640008C010E945E0ADF93CF931F921F939F939A
:101650008F937F936F938EE491E09F938F930E947B
:101660008E0B8FEF93ED20E3815090402040E1F707
:1016700000C000008DB79EB70A960FB6F8949EBFC3
:101680000FBE8DBFC7CF6FEF7FEF81E090E00E946C
:10169000DE0908956FEF7FEF80E090E00E94DE09A1
:1016A000089597FB072E16F4009407D077FD09D014
:1016B0000E947A0B07FC05D03EF4909581959F4FD0
:1016C0000895709561957F4F0895EE0FFF1F059067
:1016D000F491E02D0994A29FB001B39FC001A39F94
:1016E000700D811D1124911DB29F700D811D11245B
:1016F000911D0895AA1BBB1B51E107C0AA1FBB1F68
:10170000A617B70710F0A61BB70B881F991F5A958D
:10171000A9F780959095BC01CD010895A0E0B0E0B7
:10172000E4E9FBE00C94850EAE014B5F5F4FFA01DC
:1017300061917191AF0180916001909161010E946E
:10174000D00BE2E00C94A10E0F931F93CF93DF9385
:10175000E0916001F0916101238100E010E021FD42
:101760000EC00FEF1FEFC801DF91CF911F910F91B6
:1017700008950995892B11F00FEF1FEFCE01EC01B1
:1017800089916091600170916101DB011896ED9182
:10179000FC918111EECF8AE00995892B21F3E1CFED
:1017A000AFE0B0E0E6EDFBE00C94780E6C017B015D
:1017B0008A01DC0117961C921E92169713968C9143
:1017C00081FFECC12AE0522EF6019381F70193FDCF
:1017D000859193FF81917F01882309F473C085323D
:1017E00039F493FD859193FF81917F01853229F42E
:1017F000B60190E00E94E70DE7CF912C612C712C8F
:10180000FFE1F71508F446C08B32C9F1F8F48032D5
:10181000C1F1833209F43BC0833609F48AC08337AF
:1018200009F493C0833509F0B6C0F801A190B190D6
:101830008F01692D70E076FC02C06FEF7FEFC5016C
:101840000E94D10D4C01689477F85FC08D32E1F0B1
:10185000803351F020ED280F2A3048F18E3209F004
:1018600039C0689476F802C0689470F8F70193FD67
:10187000859193FF81917F018111C2CF33C068941C
:1018800071F8689472F8F2CF689473F8EFCF6894A7
:1018900074F8ECCF77FC26C020ED280F2A3070F4C6
:1018A00076FE05C0959C200D1124922EDFCF659CFD
:1018B000200D1124622E689475F8D8CF8E3251F421
:1018C00076FECFCFD60116968D919C912F96EFE0A4
:1018D0000C94940E8C3619F4689477F8C7CF883638
:1018E00009F4C4CF982F9F7D9554933008F094CF7E
:1018F0000C5F1F4F8FE3898388248394912CAE0162
:101900004F5F5F4F5A01E89477F873FC05C0862D4E
:1019100090E08816990640F18114910461F56620E3
:1019200009F452CFB60180E290E00E94E70D6A947C
:10193000F6CFD8018C9189830E5F1F4F8824839442
:10194000912CFE0131965F01DECFD801AD90BD90A4
:101950008D01692D70E076FC02C06FEF7FEFC5014D
:101960000E94DC0D4C01CFCFB60180E290E00E94D6
:10197000E70D6A94CCCFF50177FC859177FE8191D4
:101980005F01B60190E00E94E70D61106A94F1E0FA
:101990008F1A9108C1CF843619F0893609F081C0B9
:1019A000F80177FE77C061917191819191918F01DA
:1019B000272D2F76822E97FF09C0909580957095E0
:1019C00061957F4F8F4F9F4F689487F82AE030E0F2
:1019D000AE014F5F5F4F5A010E94170E8A19A82E61
:1019E000BA2C782C86FE0CC0E89470F8A91440F448
:1019F00084FE05C082FC03C0782D7E7E772EB92C34
:101A000074FEA5C0FE01EA0DF11D8081803309F04E
:101A100097C0872D897E782E73FC0EC070FEA6C0FD
:101A20009A2CB61418F4960C9B18B62C862D8B198C
:101A30006B1408F480E0B80EB61408F099C06B1867
:101A400074FE98C0B60180E390E00E94E70D72FE3C
:101A500009C088E590E071FC02C088E790E0B6011B
:101A60000E94E70DA91408F492C0AA94B12C9FEF2C
:101A7000A91AB90ADE0111964D01AA0EBB1EF50185
:101A800082915F01B60190E00E94E70D8A149B04E9
:101A9000B1F745CF61917191072E000C880B990B1E
:101AA00086CF872CE89484F82AE030E0853769F007
:101AB000572D597F852E803771F118F5883571F1D2
:101AC0008F3609F0FFCE28E030E0F80187FE2EC007
:101AD00081919191A191B1918C879D87AE87BF87AC
:101AE0008F01BE016F5F7F4F5B01AB016C857D8510
:101AF0008E859F850E94170E8A19A82EE89487F874
:101B00006FCF883709F0DECE84FE02C0689482F879
:101B100020E130E0DACF689484F8F6CF74FE03C099
:101B2000652F6660862E20E132E0CFCF81919191C2
:101B3000AC0160E070E04C875D876E877F87D0CF17
:101B400072FC02C0B39468CFB394B39465CF872D71
:101B50008678882309F460CFF5CFB60180E290E063
:101B60000E94E70D83948614C0F360CF8B2CFBCFCB
:101B7000612C66CF872D8678882309F473CF8BE29A
:101B800071FE80E277FC8DE2B60190E069CFB6018C
:101B900080E390E00E94E70D9A9464CF8FEF9FEF6F
:101BA00095CEFC010590615070400110D8F78095EA
:101BB00090958E0F9F1F0895FC0161507040019019
:101BC0000110D8F7809590958E0F9F1F08950F9361
:101BD0001F93CF93DF93182F092FEB018B8181FD8A
:101BE00009C01FEF0FEF812F902FDF91CF911F9131
:101BF0000F91089582FF14C02E813F818C819D81B9
:101C0000281739073CF4E881F981CF0101969983BF
:101C1000888310838E819F8101969F838E83E3CF7B
:101C2000E885F985812F0995892BA1F3DACFFA018F
:101C3000AA27283051F1203181F1E8946F936E7F0B
:101C40006E5F7F4F8F4F9F4FAF4FB1E03ED0B4E0FC
:101C50003CD0670F781F891F9A1FA11D680F791F3D
:101C60008A1F911DA11D6A0F711D811D911DA11D4E
:101C700020D009F468943F912AE0269F112430195E
:101C8000305D3193DEF6CF010895462F4770405DF9
:101C90004193B3E00FD0C9F7F6CF462F4F70405DA8
:101CA0004A3318F0495D31FD4052419302D0A9F703
:101CB000EACFB4E0A6959795879577956795BA95FD
:101CC000C9F700976105710508959B01AC010A2EC3
:101CD00006945795479537952795BA95C9F7620F9A
:101CE000731F841F951FA01D08952F923F924F923E
:101CF0005F926F927F928F929F92AF92BF92CF929C
:101D0000DF92EF92FF920F931F93CF93DF93CDB7A4
:101D1000DEB7CA1BDB0B0FB6F894DEBF0FBECDBF1C
:101D200009942A88398848885F846E847D848C84ED
:101D30009B84AA84B984C884DF80EE80FD800C81F6
:101D40001B81AA81B981CE0FD11D0FB6F894DEBFD9
:101D50000FBECDBFED01089510E0C9E3D0E004C08F
:101D6000FE010E94650B2196CE33D107C9F7F89486
:021D7000FFCFA3
:101D72004F7574726120636F697361006E756D3D9A
:101D820025640A005345470020253032642F253050
:101D920032642F323025303264202533730A00201A
:101DA200202020253032643A253032643A25303200
:101DB20064202020200A004B656E6E6572007469F3
:0E1DC2006D653D256C750A2025752025750080
:00000001FF
