:100000000C944A000C94EC080C9435090C947E096D
:100010000C94C7090C94100A0C9472000C94CE0B2B
:100020000C94F20B0C94160C0C945E0B0C94160BA7
:100030000C943A0B0C94820B0C94810A0C94A50A34
:100040000C94C90A0C9472000C9472000C94720007
:100050000C9472000C9494080C9472000C9472002E
:100060000C940B0F0C947200B80810095909A209DE
:10007000EB09340AED0AA60B3A0C310F7F0FBF08CB
:1000800017096009A909F2093B0AF40AAD0B410CF2
:10009000380F860F11241FBECFEFD8E0DEBFCDBFD3
:1000A00011E0A0E0B1E0E0E0FCE202C005900D92BA
:1000B000A233B107D9F721E0A2E3B1E001C01D925C
:1000C000A53AB207E1F710E0CFE3D0E004C02197F2
:1000D000FE010E94DB10C433D107C9F70E94EE0F66
:1000E0000C94F3150C940000E82FF92FAEE3B1E067
:1000F00080E597E019969C938E9318971B961C9217
:100100001E921A9782E013968C9313971D961C9259
:100110001E921C9711821082138212828481982F62
:10012000987F9483807C8483148285818E7F8583ED
:100130001782168211861086138612868485887F20
:100140008487877F84878F7E84878F718487858566
:10015000982F987F9587807E85878F7D858780649F
:1001600085878F77858786858E7F8687982F91787C
:1001700096878170868787858E7F87878D7F878723
:100180008B7F8787877F87878F7E87878F7D87870E
:100190008F7B8787118A108A08950F93E82FF92F94
:1001A000862F972F522FBC01635271096930710558
:1001B00008F041C0483008F045C0283008F048C079
:1001C000083008F04BC09C0120523109ABEABAEA72
:1001D0000E94E1109C01369527958E7F820F931F18
:1001E0009C012F5D3F4F31832083829693838283CE
:1001F00047708481887F842B84835770252F220F3A
:10020000220F220F877C282B2483802F8295880F32
:10021000880F807C2F73822B848302FB002700F9D8
:1002200085818E7F082B0583878580628787118A69
:10023000108A81E005C083ED90E0918B808B80E097
:100240000F91089587ED90E0918B808B80E0F8CF3F
:1002500087ED90E0918B808B80E0F2CF87ED90E08E
:10026000918B808B80E0ECCFE82FF92F262F372F52
:10027000C9018397099718F5483038F5205231099C
:10028000ABEABAEA0E94E1109C01369527958E7F71
:10029000820F931F9C012F5D3F4F378326832F5F73
:1002A0003F4F318720878096938782874770848568
:1002B000887F842B8487118A108A81E0089583EDDA
:1002C00090E0918B808B80E0089587ED90E0918B9A
:1002D000808B80E00895E82FF92FA6E3B1E08EE34C
:1002E00091E015969C938E93149713969C938E93FE
:1002F00012978D939C93F0933D01E0933C01118AFA
:10030000108A81E00895CF93DF93E82FF92F848539
:1003100084FF17C0A281B3813C9184818295869528
:100320008695837025812170220F220F282B81E072
:1003300090E002C0880F991F2A95E2F780958323E9
:100340008C93A281B3814C91848186958695869504
:10035000877021E030E0E90102C0CC0FDD1F8A95F3
:10036000E2F7CE01809584238C93A281B3814C91D6
:1003700084818770E90102C0CC0FDD1F8A95E2F706
:10038000CE01809584238C93A085B1855C914485B2
:1003900047708FE090E002C0880F991F4A95E2F7FE
:1003A000809585238C93A085B1858C9162956F7023
:1003B00070E09485977002C0660F771F9A95E2F7F8
:1003C000862B8C93A281B3814C9184818770B90173
:1003D00002C0660F771F8A95E2F7CB01842B8C93BE
:1003E00075E07A95F1F70000A281B3819C91848138
:1003F000877002C0220F331F8A95E2F720952923C8
:100400002C9385E08A95F1F70000848584FF03C072
:10041000878583FD04C0C5EDCA95F1F7000081E032
:10042000DF91CF910895E82FF92F848583FF55C080
:10043000A085B1854C9187702FE030E0B90102C0F2
:10044000660F771F8A95E2F7CB01809584238C9302
:10045000A681B7819C918485877002C0220F331FCB
:100460008A95E2F7209529232C93A281B3814C91A0
:100470008481869586958695877021E030E0B90164
:1004800002C0660F771F8A95E2F7CB01809584231F
:100490008C93A281B3814C91948192959695969577
:1004A000937085818170880F880F892BB90102C0F4
:1004B000660F771F8A95E2F7CB01842B8C93A2817C
:1004C000B3819C918481877002C0220F331F8A956B
:1004D000E2F7209529232C932FC0A085B1851C928B
:1004E000A681B7811C92C1CF207848C0A281B38178
:1004F0003C914481477081E090E0BC0102C0660FEE
:10050000771F4A95E2F7362B3C9375E07A95F1F721
:100510000000A281B3814C913481377002C0880FF2
:10052000991F3A95E2F7809584238C9385E08A950C
:10053000F1F700002223C9F1A281B3818C9194814B
:10054000977021E030E002C0220F331F9A95E2F746
:10055000822B8C9375E07A95F1F70000A285B38524
:100560002C91848583FFC0CF382F377088E090E0CE
:1005700002C0880F991F3A95E2F72823A281B38120
:100580004C913481377081E090E002C0880F991F50
:100590003A95E2F7809584238C9385E08A95F1F76C
:1005A0000000848583FFC6CFA1CFA281B3813C9197
:1005B0008481829586958695837025812170220F8E
:1005C000220F282B81E090E002C0880F991F2A9506
:1005D000E2F7809583238C93848583FF1EC0A085DA
:1005E000B1854C9187702FE030E0B90102C0660FF1
:1005F000771F8A95E2F7CB01809584238C93A6819F
:10060000B7818C919485977002C0220F331F9A9501
:10061000E2F7822B8C9381E00895A085B1851C922E
:100620000680F781E02D8FEF8083F5CF1F93CF9366
:10063000DF93C82FD92F162F8C8584FF1AC08F8582
:1006400083FDD0C0EA81FB8130818C8182958695C3
:10065000869583702D812170220F220F282B81E037
:1006600090E002C0880F991F2A95E2F780958323B6
:100670008083EA81FB8140818C8186958695869571
:10068000877021E030E0B90102C0660F771F8A95BC
:10069000E2F7CB01809584238083EA81FB819081FE
:1006A0008C81877002C0220F331F8A95E2F7209554
:1006B000292320838C8583FF99C0E885F9854081B3
:1006C00087702FE030E0D90102C0AA0FBB1F8A95C6
:1006D000E2F7CD01809584238083E885F985408108
:1006E000812F82958F7090E05C85577002C0880FD3
:1006F000991F5A95E2F7842B8083EA81FB81608100
:100700004C81477081E090E0DC0102C0AA0FBB1F62
:100710004A95E2F7AD01462B4083B5E0BA95F1F773
:100720000000EA81FB8150814C81477002C0880F34
:10073000991F4A95E2F780958523808345E04A9585
:10074000F1F70000E885F98590818C85877002C0FB
:10075000220F331F8A95E2F7209529232083E8850D
:10076000F9852081812F8F7090E03C85377002C021
:10077000880F991F3A95E2F7822B8083EA81FB81EB
:1007800040812C81277081E090E0BC0102C0660F9F
:10079000771F2A95E2F79B01242B208375E07A9539
:1007A000F1F70000EA81FB8130812C81277002C0C3
:1007B000880F991F2A95E2F780958323808385E02F
:1007C0008A95F1F700008C8584FD07C01150123026
:1007D00088F0B5EDBA95F1F7000081E0DF91CF9197
:1007E0001F910895CE010E9413022CCFE885F98550
:1007F0001083C4CFAFE3BFE11197F1F700C0000051
:10080000ECCFEF92FF920F931F93CF93DF93C82FFC
:10081000D92F162FE42EF22E8C8500FB84F98C87BD
:1008200020FB83F98C878F85877F8F878F7E8F87CB
:100830008D8540FB85F98D87222309F424C1E88545
:10084000F98540818C8587702FE030E0B90102C0C6
:10085000660F771F8A95E2F7CB018095842380830A
:10086000EE81FF8180819C85977002C0220F331F2B
:100870009A95E2F7822B8083EA81FB8140818C810B
:10088000877021E030E0B90102C0660F771F8A95BA
:10089000E2F7CB01809584238083E881F981408150
:1008A0008C818770B90102C0660F771F8A95E2F7C5
:1008B000CB01842B8083AA81BB818C91EC81E6954E
:1008C000E695E695E770A90102C0440F551FEA9529
:1008D000E2F7FA01E095E823EC93E881F981908151
:1008E0008C81869586958695877002C0220F331F6E
:1008F0008A95E2F7892F822B8083002371F1EA81A8
:10090000FB8140819C8192959695969593708D81FF
:100910008170880F880F892B21E030E0B90102C077
:10092000660F771F8A95E2F7CB0180958423808339
:10093000E881F98190814C814295469546954370B6
:100940008D818170880F880F842B02C0220F331F86
:100950008A95E2F7892F822B80838FE59AEE0197A3
:10096000F1F700C00000FF2009F495C060E3CE015C
:100970000E9483018FE19EE40197F1F700C000001F
:1009800060E3CE010E9483018FE891E00197F1F7C7
:1009900000C0000060E3CE010E9483018FE891E077
:1009A0000197F1F700C00000F1108EC060E16062B5
:1009B000EE2009F495C084E0682B8D85E0FA85F976
:1009C0008D87143608F08EC080E0682BCE010E941F
:1009D00016038F8588608F8768E0CE010E9416031A
:1009E00061E0CE010E9416038D8586FF7DC066E022
:1009F00088230CF47BC0CE010E9416036CE0CE016C
:100A00000E9416038F8584608F878D7F8F879E85D8
:100A10009E7F9E87292F2F772E878E7F8F879170BD
:100A20009E87E12FF0E0CF0162E370E00E94C710E3
:100A30002FEF260F2370220F220F220F8D85877E26
:100A4000282B2D87CF01880F991F64E670E00E9444
:100A5000C7108150982F9295990F907E3C853F71D9
:100A6000932B9C878695869586958770287F282B63
:100A70002D87198A188A81E0DF91CF911F910F91FC
:100A8000FF90EF900895E885F9851082EE81FF814F
:100A90008FEF8083F1CE60E3CE010E9416038FE1D9
:100AA0009EE40197F1F700C0000060E3CE010E94D0
:100AB00016038FE891E00197F1F700C0000060E3B2
:100AC000CE010E9416036ACF60E2CE010E9483012C
:100AD0008FE891E00197F1F700C0000060E067CF78
:100AE00080E06ACF88E071CF64E082CF616083CF1D
:100AF000CF93DF93C82FD92F61E0CE010E94160358
:100B0000882359F09E85292F2F772E872F852E7FBA
:100B10002F8791709E87198A188ADF91CF91089547
:100B2000CF93DF93C82FD92F623069F170F4662319
:100B300009F480C0613009F080C08D8588718823F8
:100B400009F47BC090E4940F76C0633009F075C05F
:100B50008D858871883109F44DC0883109F45AC0F7
:100B6000883109F06AC09C859295969597708D851D
:100B70008770880F880F880F892B833109F05DC03B
:100B800094E5940F58C08D8588718831A9F088311B
:100B900011F1883109F051C09C8592959695977016
:100BA0008D858770880F880F880F892B833109F016
:100BB00044C094E1940F3FC02C8522952695277060
:100BC0009D859770990F990F990F922B9B30F9F68D
:100BD0009CE0940F30C02C852295269527709D852A
:100BE0009770990F990F990F922B9F3091F690E182
:100BF000940F21C02C852295269527709D8597708E
:100C0000990F990F990F922B9B3009F0A6CF9CE476
:100C1000940F11C02C852295269527709D8597707D
:100C2000990F990F990F922B9F3009F099CF90E56A
:100C3000940F01C0942F9F3F31F4198A188A81E0E4
:100C4000DF91CF910895262F2795222727958E850E
:100C50008F77282B2E8761FB882780F93F853E7F81
:100C6000832B8F874F73440F2178422B4E87692F38
:100C70006068CE010E941603E0CFCF93DF93C82FA8
:100C8000D92F9E85991F9927991F8F858170880F6D
:100C9000892B8F5F6D85669566956695637070E0AC
:100CA0006F5F7F4F90E00E94C71040E0682FCE0139
:100CB0000E949005882311F0198A188ADF91CF913C
:100CC00008950F931F93CF93DF93C82FD92F162F1B
:100CD000042F8E8586958F73883210F04111BBC02A
:100CE0008C8584FDBEC0EA81FB8140812C812695E4
:100CF00026952695277081E090E0BC0102C0660F22
:100D0000771F2A95E2F79B01242B2083EA81FB8140
:100D100030812C81277002C0880F991F2A95E2F735
:100D20008095832380838C8583FFB6C0E885F98511
:100D3000408187702FE030E0D90102C0AA0FBB1FAD
:100D40008A95E2F7CD01809584238083E885F98533
:100D50004081812F82958F7090E05C85577002C032
:100D6000880F991F5A95E2F7842B8083EA81FB81D3
:100D700060814C81477081E090E0DC0102C0AA0FE5
:100D8000BB1F4A95E2F7AD01462B4083B5E0BA950B
:100D9000F1F70000EA81FB8150814C81477002C06D
:100DA000880F991F4A95E2F780958523808345E057
:100DB0004A95F1F70000E885F98590818C85877068
:100DC00002C0220F331F8A95E2F720952923208342
:100DD000E885F98520811F70812F90E03C85377070
:100DE00002C0880F991F3A95E2F7822B8083EA812F
:100DF000FB8140812C81277081E090E0BC0102C022
:100E0000660F771F2A95E2F79B01242B208375E05C
:100E10007A95F1F70000EA81FB8130812C812770FF
:100E200002C0880F991F2A95E2F78095832380835B
:100E30008C8584FD04C085ED8A95F1F700000023C0
:100E400051F09E85892F86958F738F5F8F73880FE2
:100E50009178892B8E8781E0DF91CF911F910F913F
:100E60000895CE010E941302EA81FB8130818C81BA
:100E700082958695869583702D812170220F220F91
:100E8000282B81E090E002C0880F991F2A95E2F795
:100E900080958323808327CFE885F9851083A7CFAA
:100EA000CF93DF93682FE0913C01F0913D01848561
:100EB000829586958770D585D770DD0FDD0FDD0FA4
:100EC000D82BDF5F6A30D1F4C685C695CF7309C0D1
:100ED00041E060E280913C0190913D010E946106F9
:100EE000CF5FCD17A8F380913C0190913D010E9406
:100EF0003D0680E090E0DF91CF91089541E0CF0181
:100F00000E946106F6CFE82FF92F1182108213821A
:100F10001282158214828681887F868310861782CA
:100F2000128611868385887F838714868585982F0E
:100F3000987F9587807C85878F7B85878F7785874E
:100F400086858E7F8687817082608687108A178665
:100F5000128A118A0895DF92EF92FF920F931F93E6
:100F6000CF93DF9300D0CDB7DEB70C851D858E857E
:100F7000D8011D969C911D979F771D969C931D9758
:100F8000813009F440C0823009F446C0882339F02A
:100F90008DEF9FEFF801928B818B80E097C0977C5B
:100FA00098611D969C931D97987F93601D969C93C6
:100FB000D8011C968C931C971D968C911D97282FF9
:100FC000269526952695277030E02F5F3F4F877036
:100FD00090E00196289FB001299F700D389F700DF9
:100FE00011241F968D919C910E943B12282F392F1E
:100FF000F801308B2787232BE1F0CE010F969A83DF
:101000008983D12C47C0F8019585977C9861958795
:10101000987F92609587CCCF1D969C911D97977C69
:1010200090621D969C931D97987F92601D969C934D
:10103000BFCF8BE090E0928B818B80E047C0E9814D
:10104000FA81CF0102969A838983F080D8011F9696
:10105000ED91FC9150971D968C918695869586957D
:10106000877090E00196829FB001839F700D929FE0
:10107000700D1124460F571FE40FF51FF082E39403
:10108000F8018585877090E04E2D50E08417950714
:10109000B4F6D394D8011D968C911D9786958695AC
:1010A0008695877090E02D2D30E08217930714F01D
:1010B000E12CE6CF1D968C911D9780681D968C9330
:1010C0001D9752961C921E92519781E00F900F909F
:1010D000DF91CF911F910F91FF90EF90DF900895D6
:1010E000E82FF92F158280858E7F808780818E7F03
:1010F00080838D7F80838B7F80838FE090E09783D8
:10110000868313821482128211820895262F372F2C
:10111000019709F008952F3F3F4FE1F78CE491E0EC
:101120000E947008F7CF08951F920F920FB60F928A
:1011300011242F933F934F935F936F937F938F93DC
:101140009F93AF93BF93EF93FF930E949308FF91F8
:10115000EF91BF91AF919F918F917F916F915F912F
:101160004F913F912F910F900FBE0F901F901895A8
:101170006FEF7FEF81E090E00E94860808956FEFA7
:101180007FEF80E090E00E9486080895E82FF92F15
:10119000118280818E7F8083138212820895262F90
:1011A000372F019709F008952F3F3F4FE1F785E56D
:1011B00091E00E94C608F7CFE82FF92FA9E6B0E02A
:1011C0008C918C7F862B8C9361838081816080835E
:1011D0001382128281E008951F920F920FB60F9230
:1011E00011242F933F934F935F936F937F938F932C
:1011F0009F93AF93BF93EF93FF930E94C410FF910F
:10120000EF91BF91AF919F918F917F916F915F917E
:101210004F913F912F910F900FBE0F901F901895F7
:101220006FEF7FEF81E090E00E94CF0808956FEFAD
:101230007FEF80E090E00E94CF080895E82FF92F1B
:10124000118280818E7F8083138212820895262FDF
:10125000372F019709F008952F3F3F4FE1F789E5B8
:1012600091E00E941E09F7CF08951F920F920FB6CA
:101270000F9211242F933F934F935F936F937F931C
:101280008F939F93AF93BF93EF93FF930E94340983
:10129000FF91EF91BF91AF919F918F917F916F914E
:1012A0005F914F913F912F910F900FBE0F901F9024
:1012B00018956FEF7FEF81E090E00E942709089575
:1012C0006FEF7FEF80E090E00E9427090895E82FFC
:1012D000F92F118280818E7F80831382128208957C
:1012E000262F372F019709F008952F3F3F4FE1F741
:1012F0008DE591E00E946709F7CF08951F920F9244
:101300000FB60F9211242F933F934F935F936F93D8
:101310007F938F939F93AF93BF93EF93FF930E941D
:101320007D09FF91EF91BF91AF919F918F917F9137
:101330006F915F914F913F912F910F900FBE0F9042
:101340001F9018956FEF7FEF81E090E00E94700989
:1013500008956FEF7FEF80E090E00E94700908959C
:10136000E82FF92F118280818E7F80831382128271
:101370000895262F372F019709F008952F3F3F4FEB
:10138000E1F781E691E00E94B009F7CF08951F923E
:101390000F920FB60F9211242F933F934F935F93A9
:1013A0006F937F938F939F93AF93BF93EF93FF932D
:1013B0000E94C609FF91EF91BF91AF919F918F91CC
:1013C0007F916F915F914F913F912F910F900FBE41
:1013D0000F901F9018956FEF7FEF81E090E00E94D3
:1013E000B90908956FEF7FEF80E090E00E94B9099E
:1013F0000895E82FF92F118280818E7F80831382D8
:1014000012820895262F372F019709F008952F3F54
:101410003F4FE1F785E691E00E94F909F7CF089583
:101420001F920F920FB60F9211242F933F934F9359
:101430005F936F937F938F939F93AF93BF93EF933C
:10144000FF930E940F0AFF91EF91BF91AF919F917F
:101450008F917F916F915F914F913F912F910F905D
:101460000FBE0F901F9018956FEF7FEF81E090E017
:101470000E94020A08956FEF7FEF80E090E00E94E3
:10148000020A0895E82FF92F1182128280818E7F3F
:101490008083148213820895262F372F019709F035
:1014A00008952F3F3F4FE1F789E691E00E94420AFD
:1014B000F7CFE82FF92F84B535B58C7F377F262FEE
:1014C0002370282B862F8695869590E0880F991F8C
:1014D000880F991F880F991F832B24BD85BD6283B8
:1014E0001482138281E00895E82FF92F85B5887F53
:1014F000862B85BD61831482138281E0089508954F
:1015000008951F920F920FB60F9211242F933F93BD
:101510004F935F936F937F938F939F93AF93BF93FB
:10152000EF93FF930E94C110FF91EF91BF91AF9194
:101530009F918F917F916F915F914F913F912F91EB
:101540000F900FBE0F901F9018951F920F920FB61D
:101550000F9211242F933F934F935F936F937F9339
:101560008F939F93AF93BF93EF93FF930E947F0A54
:10157000FF91EF91BF91AF919F918F917F916F916B
:101580005F914F913F912F910F900FBE0F901F9041
:1015900018951F920F920FB60F9211242F933F931D
:1015A0004F935F936F937F938F939F93AF93BF936B
:1015B000EF93FF930E94800AFF91EF91BF91AF914B
:1015C0009F918F917F916F915F914F913F912F915B
:1015D0000F900FBE0F901F9018956FEF7FEF81E077
:1015E00090E00E944C0A08956FEF7FEF80E090E05A
:1015F0000E944C0A0895E82FF92F118212828081EF
:101600008E7F8083148213820895262F372F0197AF
:1016100009F008952F3F3F4FE1F78EE691E00E94D9
:10162000FB0AF7CF08950895089508951F920F9229
:101630000FB60F9211242F933F934F935F936F93A5
:101640007F938F939F93AF93BF93EF93FF930E94EA
:10165000120BFF91EF91BF91AF919F918F917F916D
:101660006F915F914F913F912F910F900FBE0F900F
:101670001F9018951F920F920FB60F9211242F935F
:101680003F934F935F936F937F938F939F93AF930A
:10169000BF93EF93FF930E94130BFF91EF91BF91C4
:1016A000AF919F918F917F916F915F914F913F91FA
:1016B0002F910F900FBE0F901F9018951F920F92B1
:1016C0000FB60F9211242F933F934F935F936F9315
:1016D0007F938F939F93AF93BF93EF93FF930E945A
:1016E000140BFF91EF91BF91AF919F918F917F91DB
:1016F0006F915F914F913F912F910F900FBE0F907F
:101700001F9018951F920F920FB60F9211242F93CE
:101710003F934F935F936F937F938F939F93AF9379
:10172000BF93EF93FF930E94150BFF91EF91BF9131
:10173000AF919F918F917F916F915F914F913F9169
:101740002F910F900FBE0F901F9018956FEF7FEFA6
:1017500081E090E00E94050B08956FEF7FEF80E03D
:1017600090E00E94050B0895E82FF92F1182128254
:1017700080818E7F8083148213820895262F372FD5
:10178000019709F008952F3F3F4FE1F783E791E07C
:101790000E94B40BF7CF0895089508951F920F92F9
:1017A0000FB60F9211242F933F934F935F936F9334
:1017B0007F938F939F93AF93BF93EF93FF930E9479
:1017C000CB0BFF91EF91BF91AF919F918F917F9143
:1017D0006F915F914F913F912F910F900FBE0F909E
:1017E0001F9018951F920F920FB60F9211242F93EE
:1017F0003F934F935F936F937F938F939F93AF9399
:10180000BF93EF93FF930E94CC0BFF91EF91BF9199
:10181000AF919F918F917F916F915F914F913F9188
:101820002F910F900FBE0F901F9018951F920F923F
:101830000FB60F9211242F933F934F935F936F93A3
:101840007F938F939F93AF93BF93EF93FF930E94E8
:10185000CD0BFF91EF91BF91AF919F918F917F91B0
:101860006F915F914F913F912F910F900FBE0F900D
:101870001F9018956FEF7FEF81E090E00E94BE0B04
:1018800008956FEF7FEF80E090E00E94BE0B089517
:1018900027E030E0FC013383228380E0089527E0D5
:1018A00030E0FC013383228380E0089527E030E0BC
:1018B000FC013383228380E0089527E030E0FC01BF
:1018C0003383228380E0089527E030E0FC013383F6
:1018D000228380E0089527E030E0FC0133832283F7
:1018E00080E0089580E090E00895FC01828193817A
:1018F0000895E82FF92F9B013370862F8295880F6A
:10190000807E95859F71892B8587669566956695FE
:101910008685807E682B6687832F83708295880FEB
:10192000807E6F79862B8687868140FB80F986834F
:101930008481816084831086178281E0089585E028
:1019400090E00895FC01878190850895E82FF92F94
:101950008AE091E0918380838EE191E0918380839E
:10196000128A118A83858078838713868485807C98
:10197000848714868585807E858784818D7F848396
:101980008B7F848384E190E0908B87871086178219
:1019900008952EE131E0FC013183208308950F93F7
:1019A0001F93CF93DF93C82FD92F062F172FC13046
:1019B000D10551F0CD2B19F40F3F1F4F69F0DF9186
:1019C000CF911F910F9108950F3F100799F789E765
:1019D00091E00E94A60CEECF89E791E00E94C90C2D
:1019E000EECFCF92DF92EF92FF92CF93DF9300D0B2
:1019F00000D000D0CDB7DEB78D839E83AD81BE8190
:101A00001F968D919C91892BD9F4CC24CA94DC2CFF
:101A100076018CE891E00E94660F69837A838B835C
:101A20009C83C616D706E806F906F8F08091BC003C
:101A300080FDEFCFED81FE811086178281E01EC010
:101A40008CE891E00E94660F69837A838B839C8384
:101A5000ED81FE8187859089C980DA80EB80FC80EA
:101A6000C80ED91EE11CF11CD4CF83E490E0AD81F7
:101A7000BE8118969C938E93179780E00F900F90DD
:101A80000F900F900F900F90DF91CF91FF90EF90FC
:101A9000DF90CF900895E82FF92F84818B7F848386
:101AA00088EF90E09287818785EA8093BC0010865A
:101AB000178281E008950F931F93CF93DF93C82F70
:101AC000D92F062F172F8C8182FB882780F9882336
:101AD00011F090E011C020E430E038872F8310C06F
:101AE000E989FA89292F30E0D801A20FB31FE20F4C
:101AF000F31F21812C939F5F941790F318861F8208
:101B0000DF91CF911F910F910895AF92BF92CF9225
:101B1000DF92EF92FF920F931F93CF93DF93C82F23
:101B2000D92FA62EF42EB22EC02ED12E1C811695A2
:101B300011701123B9F0EE2019F0C114D10411F184
:101B4000CE010E94F10C182F882381F0F11046C0BD
:101B5000E989FA896A2D660F6083E989FA89B18279
:101B600090E025C084E090E098878F83812FDF91FB
:101B7000CF911F910F91FF90EF90DF90CF90BF908A
:101B8000AF90089581E190E098878F8310E0EECFC9
:101B9000292F30E0E989FA89A9014E5F5F4FE40FF0
:101BA000F51F2C0D3D1DD9018C9180839F5F9E15E3
:101BB00078F392E09E0DE794EE24E7948B858F777F
:101BC000E82AEB8696959F738C85807C892B8C8781
:101BD000CE010E944B0D18861F82C8CFE989FA8971
:101BE0008A2D880F8083E989FA89B1828B858F7766
:101BF0008B878C85807C81608C87CE010E944B0D09
:101C0000CE010E94F10C811102C0182FAFCF6A2DB6
:101C100070E0660F771FE989FA896160608381E06F
:101C20008E0D982F9795992797952B852F77922B27
:101C30009B8786958F739C85907C892B8C87CE01A2
:101C40000E944B0DCE010E94F10C811102C0182F91
:101C50008DCF4E2DB601CE010E945B0D8111BBCF01
:101C6000182F84CFEF920F931F93CF93DF93C82F3A
:101C7000D92F962F8C81817081110AC021E430E028
:101C800038872F83DF91CF911F910F91EF900895A7
:101C90008D858295869587706E85660F660F660FB7
:101CA000682BE22E042F152F292F41E0CE010E9430
:101CB000850D882339F318861F82E4CFEF920F93A6
:101CC0001F93CF93DF93C82FD92F962F8C818170CC
:101CD00081110AC021E430E038872F83DF91CF9152
:101CE0001F910F91EF9008958D858295869587704D
:101CF0006E85660F660F660F682BE22E042F152F78
:101D0000292F40E0CE010E94850D882339F31886E3
:101D10001F82E4CFE82FF92F8091B9008C7F8833A0
:101D200009F46EC0A8F0803509F458C08835C9F5AB
:101D3000A189B28980917801A80FB11D8091BB0063
:101D40008C9384818460848384E98093BC000895AB
:101D5000883121F0F8F0883209F056C09385991F38
:101D60009927991F84858F73880F892B909178010B
:101D7000981768F50188F289E02D81E0890F80933A
:101D80007801E90FF11D80818093BB0085E8809385
:101D9000BC000895883011F08031B1F510927801BF
:101DA000DDCF803489F52091780130E09385991F4B
:101DB0009927991F84858F73880F892B8150990BE0
:101DC00028173907CCF485EC8093BC0008958481F2
:101DD0008460848384E98093BC0008959091BB0063
:101DE000A189B2898091780121E0280F20937801A0
:101DF000A80FB11D9C93D7CF85E88093BC000895B0
:101E000085EA8093BC0008958091B900858384E0C1
:101E10008093BC0008951F920F920FB60F92112469
:101E20002F933F934F935F936F937F938F939F93E2
:101E3000AF93BF93EF93FF9389E791E00E948A0EDF
:101E4000FF91EF91BF91AF919F918F917F916F9192
:101E50005F914F913F912F910F900FBE0F901F9068
:101E600018956FEF7FEF81E090E00E94CF0C08950E
:101E70006FEF7FEF80E090E00E94CF0C0895E82F95
:101E8000F92F80E094E2A4EFB0E086839783A087E7
:101E9000B18780839183A283B383158214821686CF
:101EA0001786108A118A82898E7F828B148A138A00
:101EB0000895262F372F019709F008952F3F3F4FA0
:101EC000E1F78CE891E00E943F0FF7CFCF93DF93CB
:101ED00000D000D0CDB7DEB7E82FF92F82859385EB
:101EE000A485B58589839A83AB83BC83BC01CD016E
:101EF0000F900F900F900F90DF91CF9108956FEF9B
:101F00007FEF81E090E00E94590F08956FEF7FEF1F
:101F100080E090E00E94590F089516BCEEE6F0E0D4
:101F200080818260808390E00FC08091A20121E0D7
:101F300030E0092E02C0220F331F0A94E2F72095E9
:101F400028232093A2019F5F9830D8F48091A401A8
:101F50008111FCCF81E08093A4014A9BE6CF809160
:101F6000A20121E030E0092E02C0220F331F0A94A3
:101F7000E2F7822B8093A20188B121E0822788B901
:101F8000E2CFEEE6F0E080818D7F808308958DB30F
:101F90008E7F8DBB8FEC90E00197F1F700C00000C1
:101FA00088E687BDEEE6F0E08081826080838091E4
:101FB000A4018111FCCF88B1816088B981E0809350
:101FC000A40180ED87BD0E948D0FEEE6F0E08081D8
:101FD0008D7F80838DB381608DBB0895CDB7DEB7D3
:101FE000AE970FB6F894DEBF0FBECDBF87B181604C
:101FF00087B981E08093A3018093A4018E010F5FD4
:102000001F4FC8010E9483071F9284E48F931F9281
:1020100086E48F931F9280E38F931F9285E48F93C2
:102020001F9283E48F931F9283E38F931F9282E327
:102030008F931F9281E38F931F9282E48F931F925D
:1020400086E38F931F9285E38F931F9284E38F9390
:102050001F9281E48F931F9289E38F931F9288E3ED
:102060008F931F9287E38F931F921F930F930E946A
:10207000AB078FEF8AB98AB18B7F8AB90FB6F89414
:10208000DEBF0FBECDBFCE0144960E94C60862E0FF
:10209000CE0144960E94DC088DB381608DBBCE01D9
:1020A00048960E94420A62E0CE0148960E94590A70
:1020B00062E0CE0148960E94740A7894CE014D9653
:1020C0000E94740003E022E041E067E270E0CE018C
:1020D0004D960E94CD0042E064E270E0CE014D9644
:1020E0000E94340101E021E040E06CE6CE014D9613
:1020F0000E940104CE014D960E946B01CE014D96C7
:102100000E9478058EE291E09F938F930E94FA12CD
:102110009FEF25EA8EE0915020408040E1F700C01B
:102120000000CE014D960E9478051092A1010F90FB
:102130000F900EC08091A1018F5F8093A1018091CB
:10214000A2018534C9F08091A20190E00E94101391
:102150008091A3018111FCCF81E08093A3010E94B3
:10216000C70F8091A101813128F3CE014D960E94C5
:1021700078051092A101DECFCE014D960E94780520
:10218000E7CF1092A40108951092A301089597FB40
:10219000072E16F4009407D077FD09D00E94F010A6
:1021A00007FC05D03EF4909581959F4F089570955A
:1021B00061957F4F0895EE0FFF1F0590F491E02D7C
:1021C0000994A29FB001B39FC001A39F700D811D10
:1021D0001124911DB29F700D811D1124911D089530
:1021E000AA1BBB1B51E107C0AA1FBB1FA617B7073D
:1021F00010F0A61BB70B881F991F5A95A9F7809559
:102200009095BC01CD0108950F931F93CF93DF9359
:102210009C01029710F422E030E0E0913201F0914D
:10222000330180E090E0A0E0B0E0309791F40097B7
:1022300009F445C0821B930B84309105B8F58A815F
:102240009B816115710569F1FB0193838283FE0116
:1022500011C0408151810281138142175307F0F070
:102260004217530799F4109761F012960C93129746
:1022700013961C933296CF01DF91CF911F910F914E
:1022800008950093320110933301F4CF009719F0B1
:102290004817590718F4CA01BD01EF01DF01F80121
:1022A000C4CF9093330180933201D1CFFE01E80F68
:1022B000F91F21933193029799838883DCCF809112
:1022C000340190913501892B41F480910201909164
:1022D0000301909335018093340180910001909126
:1022E0000101009741F48DB79EB7409104015091D0
:1022F0000501841B950B409134015091350148171D
:10230000590708F0B8CF841B950B8217930708F480
:10231000B2CFB9016E5F7F4F8617970708F4ABCF36
:10232000640F751F7093350160933401FA01219396
:102330003193A1CFCF93DF939C010097D9F0FC019B
:10234000329713821282A0913201B091330110971B
:1023500009F086C080819181280F391F8091340156
:10236000909135018217930709F05FC0F093350112
:10237000E0933401DF91CF910895CE17DF0708F085
:1023800059C0AE010A80DB81C02D2097B1F7EA0168
:10239000FB83EA8329913991CE01820F931FE817BD
:1023A000F90761F4808191810296820F931FEA01FF
:1023B00099838883828193819B838A83E0E0F0E024
:1023C00012968D919C911397009709F04EC0ED01E4
:1023D000899199918C0F9D1F209134013091350185
:1023E0002817390739F6309709F042C010923301A7
:1023F00010923201B0933501A0933401BBCFB38367
:10240000A28380819181280F391FA217B30769F435
:1024100002962D913C911197820F931F9183808397
:1024200012968D919C9193838283F0933301E09374
:102430003201A0CFD383C28380819181280F391FBD
:10244000C217D30709F0A3CF029628813981820FE2
:10245000931F918380838A819B819383828397CF0B
:10246000AE17BF0760F6ED018CCFFD01DC01A8CFF0
:1024700013821282BFCFA0E0B0E0E1E4F2E10C945D
:10248000BE157C01CB01E114F10449F40E94041152
:10249000EC01CE01CDB7DEB7E0E10C94DA15F7011F
:1024A000E60FF71FD7011297C0E0D0E0EA17FB074D
:1024B00080F30D911C91119706171707B0F00530A6
:1024C000110588F09801245031092617370758F074
:1024D000061B170B02501109019311936D937C9306
:1024E000CF010E949A11E701D4CF4B01801A910AC3
:1024F0005701A00EB11EC0913201D0913301412C81
:10250000512C60E070E0209731F52091340130913A
:1025100035012A153B0509F056C04816590608F042
:1025200052C020910001309101012115310541F483
:102530002DB73EB74091040150910501241B350B86
:10254000E217F30708F0A5CFF0933501E0933401CB
:102550008D939C93C8CF288139816A807B80CA156E
:10256000DB0551F5690142E0C40ED11CC814D90441
:1025700018F1A801481B590B420F531FEA0122967C
:10258000259778F062827382518340838D939C9368
:102590006115710561F0DB011396FC93EE931297C0
:1025A000A2CFC8010296820F931FF301EFCFF093E1
:1025B0003301E093320197CF4216530608F4290104
:1025C000BE01E301A0CF0E940411EC01009709F4C1
:1025D00060CFA801B7010E94F112C7010E949A11B1
:1025E00058CFFB01DC0102C001900D9241505040D8
:1025F000D8F70895A0E0B0E0E0E0F3E10C94CC154A
:10260000AE014B5F5F4FFA0161917191AF01809113
:102610003801909139010E941713E2E00C94E815FB
:1026200060913801709139010E942E150895AFE034
:10263000B0E0EDE1F3E10C94BF156C017B018A0180
:10264000DC0117961C921E92169713968C9181FFAF
:10265000ECC12AE0522EF6019381F70193FD85919A
:1026600093FF81917F01882309F473C0853239F487
:1026700093FD859193FF81917F01853229F4B60105
:1026800090E00E942E15E7CF912C612C712CFFE178
:10269000F71508F446C08B32C9F1F8F48032C1F165
:1026A000833209F43BC0833609F48AC0833709F4C6
:1026B00093C0833509F0B6C0F801A190B1908F01A5
:1026C000692D70E076FC02C06FEF7FEFC5010E94BC
:1026D00018154C01689477F85FC08D32E1F08033B3
:1026E00051F020ED280F2A3048F18E3209F039C020
:1026F000689476F802C0689470F8F70193FD8591AC
:1027000093FF81917F018111C2CF33C0689471F82A
:10271000689472F8F2CF689473F8EFCF689474F805
:10272000ECCF77FC26C020ED280F2A3070F476FE1F
:1027300005C0959C200D1124922EDFCF659C200DA5
:102740001124622E689475F8D8CF8E3251F476FE3B
:10275000CFCFD60116968D919C912F96EFE00C94D9
:10276000DB158C3619F4689477F8C7CF883609F4EE
:10277000C4CF982F9F7D9554933008F094CF0C5F71
:102780001F4F8FE3898388248394912CAE014F5F80
:102790005F4F5A01E89477F873FC05C0862D90E0EE
:1027A0008816990640F18114910461F5662009F4B8
:1027B00052CFB60180E290E00E942E156A94F6CFC7
:1027C000D8018C9189830E5F1F4F88248394912CAC
:1027D000FE0131965F01DECFD801AD90BD908D0135
:1027E000692D70E076FC02C06FEF7FEFC5010E949B
:1027F00023154C01CFCFB60180E290E00E942E1548
:102800006A94CCCFF50177FC859177FE81915F01C9
:10281000B60190E00E942E1561106A94F1E08F1AC3
:102820009108C1CF843619F0893609F081C0F801CA
:1028300077FE77C061917191819191918F01272DE0
:102840002F76822E97FF09C090958095709561959F
:102850007F4F8F4F9F4F689487F82AE030E0AE019A
:102860004F5F5F4F5A010E945E158A19A82EBA2C3D
:10287000782C86FE0CC0E89470F8A91440F484FE0D
:1028800005C082FC03C0782D7E7E772EB92C74FEA5
:10289000A5C0FE01EA0DF11D8081803309F097C0CB
:1028A000872D897E782E73FC0EC070FEA6C09A2CF0
:1028B000B61418F4960C9B18B62C862D8B196B1435
:1028C00008F480E0B80EB61408F099C06B1874FED6
:1028D00098C0B60180E390E00E942E1572FE09C0F8
:1028E00088E590E071FC02C088E790E0B6010E94A4
:1028F0002E15A91408F492C0AA94B12C9FEFA91A1E
:10290000B90ADE0111964D01AA0EBB1EF501829196
:102910005F01B60190E00E942E158A149B04B1F766
:1029200045CF61917191072E000C880B990B86CFD2
:10293000872CE89484F82AE030E0853769F0572D39
:10294000597F852E803771F118F5883571F18F36F2
:1029500009F0FFCE28E030E0F80187FE2EC081911B
:102960009191A191B1918C879D87AE87BF878F018F
:10297000BE016F5F7F4F5B01AB016C857D858E85EE
:102980009F850E945E158A19A82EE89487F86FCF5C
:10299000883709F0DECE84FE02C0689482F820E118
:1029A00030E0DACF689484F8F6CF74FE03C0652F68
:1029B0006660862E20E132E0CFCF81919191AC010B
:1029C00060E070E04C875D876E877F87D0CF72FCB8
:1029D00002C0B39468CFB394B39465CF872D867843
:1029E000882309F460CFF5CFB60180E290E00E9421
:1029F0002E1583948614C0F360CF8B2CFBCF612CF3
:102A000066CF872D8678882309F473CF8BE271FE19
:102A100080E277FC8DE2B60190E069CFB60180E3F9
:102A200090E00E942E159A9464CF8FEF9FEF95CE81
:102A3000FC010590615070400110D8F78095909589
:102A40008E0F9F1F0895FC0161507040019001108E
:102A5000D8F7809590958E0F9F1F08950F931F9321
:102A6000CF93DF93182F092FEB018B8181FD09C0D4
:102A70001FEF0FEF812F902FDF91CF911F910F91BB
:102A8000089582FF14C02E813F818C819D8128177B
:102A900039073CF4E881F981CF0101969983888355
:102AA00010838E819F8101969F838E83E3CFE8857B
:102AB000F985812F0995892BA1F3DACFFA01AA278D
:102AC000283051F1203181F1E8946F936E7F6E5F71
:102AD0007F4F8F4F9F4FAF4FB1E03ED0B4E03CD01F
:102AE000670F781F891F9A1FA11D680F791F8A1F02
:102AF000911DA11D6A0F711D811D911DA11D20D069
:102B000009F468943F912AE0269F11243019305D22
:102B10003193DEF6CF010895462F4770405D419313
:102B2000B3E00FD0C9F7F6CF462F4F70405D4A3360
:102B300018F0495D31FD4052419302D0A9F7EACF28
:102B4000B4E0A6959795879577956795BA95C9F757
:102B500000976105710508959B01AC010A2E06944A
:102B60005795479537952795BA95C9F7620F731F03
:102B7000841F951FA01D08952F923F924F925F9240
:102B80006F927F928F929F92AF92BF92CF92DF927D
:102B9000EF92FF920F931F93CF93DF93CDB7DEB7E2
:102BA000CA1BDB0B0FB6F894DEBF0FBECDBF099476
:102BB0002A88398848885F846E847D848C849B84CD
:102BC000AA84B984C884DF80EE80FD800C811B81DB
:102BD000AA81B981CE0FD11D0FB6F894DEBF0FBE0A
:102BE000CDBFED01089510E0CFE3D0E004C0FE01B9
:102BF0000E94DB102196CA34D107C9F7F894FFCFA1
:102C00000000A501200000000000480C4F0C560CED
:102C10005D0C640C6B0C720C750C00000000320E25
:102C20004F0C560C5E0E790C6B0C9F0CA20C4F6C6B
:022C3000610041
:00000001FF
