:100000000C9434000C943E000C943E000C943E0082
:100010000C943E000C943E000C943E000C943E0068
:100020000C943E000C943E000C943E000C943E0058
:100030000C943E000C943E000C943E000C943E0048
:100040000C943E000C943E000C943E000C943E0038
:100050000C943E000C943E000C943E000C943E0028
:100060000C943E000C943E0011241FBECFEFD8E04C
:10007000DEBFCDBF0E9440000C9466000C940000CF
:100080008AB18F608AB98BB1807F8BB984B18E7F42
:1000900084B985B1816085B920E030E00BC02F5F65
:1000A0003F4F4FEF85EA9EE0415080409040E1F79E
:1000B00000C000008BB1807F8BB98BB1822B8BB9D4
:1000C0002930310561F720E030E0EBCFF894FFCF25
:00000001FF
