:100000000C9434000C943E000C943E000C943E0082
:100010000C943E000C943E000C943E000C943E0068
:100020000C943E000C943E000C943E000C943E0058
:100030000C943E000C943E000C943E000C943E0048
:100040000C943E000C943E000C943E000C943E0038
:100050000C943E000C943E000C943E000C943E0028
:100060000C943E000C943E0011241FBECFEFD8E04C
:10007000DEBFCDBF0E947C000C94BB000C9400003E
:10008000262F372F803150F4803130F4E82FF0E004
:10009000E354FF4F0C94B50080E005C08D3F41F163
:1000A0008E3F41F58EE3411180682130310509F022
:1000B0008095089586E0F7CF8BE5F5CF8FE4F3CFF9
:1000C00086E6F1CF8DE6EFCF8DE7EDCF8FE7EBCF73
:1000D0008FE6E9CF87E7E7CF8CE7E5CF89E3E3CF8A
:1000E0008EE5E1CF89E7DFCF81E7DDCF8FE3DBCF9F
:1000F00080E4D9CF80E0D7CF1092C1008FEF8AB9CA
:1001000084B18B7F84B985B18B6F85B9D0E0C0E0B5
:1001100019C081E0D11180E0D82F8FE19EE40197D2
:10012000F1F700C000001A99FECF15C0CF30D9F00A
:10013000CF5F9FEF24E38CE0915020408040E1F7B7
:1001400000C0000040E060E070E08C2F0E944000A2
:100150008BB91A9BDECFDD2349F3CC2311F0C150BC
:10016000E8CFCFE0E6CFCD2FE4CFEE0FFF1F059015
:10017000F491E02D0994F894FFCF76005A005C00CA
:100180005E006000620064005300660068006A0060
:0A0190006C006E0070007200740035
:00000001FF
