:100000000C9434000C943E000C943E000C943E0082
:100010000C943E000C943E000C943E000C943E0068
:100020000C943E000C943E000C943E000C943E0058
:100030000C943E000C943E000C943E000C943E0048
:100040000C943E000C943E000C943E000C943E0038
:100050000C943E000C943E000C943E000C943E0028
:100060000C943E000C943E0011241FBECFEFD8E04C
:10007000DEBFCDBF0E9440000C949D000C94000098
:100080001092C1008FEF8AB98BB984B18B7F84B98C
:1000900085B1846085B940E060E070E080E00E9456
:1000A0005B008BB983B18FE19EE40197F1F700C04B
:1000B000000083B1FECF262F372F803150F48031DE
:1000C00030F4E82FF0E0E156FF4F0C94970080E009
:1000D00005C08D3F41F18E3F41F58EE341118068AF
:1000E0002130310509F08095089586E0F7CF8BE542
:1000F000F5CF8FE4F3CF86E6F1CF8DE6EFCF8DE736
:10010000EDCF8FE7EBCF8FE6E9CF87E7E7CF8CE73F
:10011000E5CF89E3E3CF8EE5E1CF89E7DFCF81E764
:10012000DDCF8FE3DBCF80E4D9CF80E0D7CFEE0FF8
:10013000FF1F0590F491E02D0994F894FFCF9100F2
:100140007500770079007B007D007F006E008100E4
:0E01500083008500870089008B008D008F00E2
:00000001FF
