:100000000C9434000C943E000C943E000C943E0082
:100010000C943E000C943E000C943E000C943E0068
:100020000C943E000C943E000C943E000C943E0058
:100030000C943E000C943E000C943E000C943E0048
:100040000C943E000C943E000C943E000C943E0038
:100050000C943E000C943E000C943E000C943E0028
:100060000C943E000C943E0011241FBECFEFD4E050
:10007000DEBFCDBF0E9440000C94A4000C94000091
:100080001092C1008FEF8AB98BB984B18B7F84B98C
:1000900085B1846085B9C0E00AC0CF5F2FEF89E6E3
:1000A00098E1215080409040E1F700C0000040E01E
:1000B00060E070E08C2F0E9462008BB9C93068F359
:1000C000C0E0ECCF262F372F803150F4803130F450
:1000D000E82FF0E0EA55FF4F0C949E0080E005C049
:1000E0008D3F41F18E3F41F58EE341118068213013
:1000F000310509F08095089586E0F7CF8BE5F5CFBF
:100100008FE4F3CF86E6F1CF8DE6EFCF8DE7EDCF2D
:100110008FE7EBCF8FE6E9CF87E7E7CF8CE7E5CF37
:1001200089E3E3CF8EE5E1CF89E7DFCF81E7DDCF5C
:100130008FE3DBCF80E4D9CF80E0D7CFEE0FFF1F76
:100140000590F491E02D0994F894FFCF98007C007D
:100150007E008000820084008600750088008A008E
:0C0160008C008E0090009200940096002D
:00000001FF
